{"contracts/StorageOracle.sol":{"StorageOracle":{"abi":[{"inputs":[],"stateMutability":"nonpayable","type":"constructor"},{"inputs":[],"name":"AccessControlBadConfirmation","type":"error"},{"inputs":[{"internalType":"address","name":"account","type":"address"},{"internalType":"bytes32","name":"neededRole","type":"bytes32"}],"name":"AccessControlUnauthorizedAccount","type":"error"},{"inputs":[],"name":"ReentrancyGuardReentrantCall","type":"error"},{"anonymous":false,"inputs":[{"indexed":true,"internalType":"string","name":"root","type":"string"},{"indexed":false,"internalType":"uint256","name":"size","type":"uint256"}],"name":"DataRemoved","type":"event"},{"anonymous":false,"inputs":[{"indexed":true,"internalType":"string","name":"root","type":"string"},{"indexed":false,"internalType":"string[]","name":"nodeAddresses","type":"string[]"},{"indexed":false,"internalType":"uint256","name":"size","type":"uint256"},{"indexed":false,"internalType":"uint256","name":"replicationFactor","type":"uint256"}],"name":"DataStored","type":"event"},{"anonymous":false,"inputs":[{"indexed":true,"internalType":"string","name":"root","type":"string"},{"indexed":true,"internalType":"string","name":"nodeAddress","type":"string"},{"indexed":false,"internalType":"bytes32","name":"expectedHash","type":"bytes32"},{"indexed":false,"internalType":"bytes32","name":"actualHash","type":"bytes32"}],"name":"IntegrityViolation","type":"event"},{"anonymous":false,"inputs":[{"indexed":true,"internalType":"string","name":"nodeAddress","type":"string"}],"name":"NodeDeactivated","type":"event"},{"anonymous":false,"inputs":[{"indexed":true,"internalType":"string","name":"nodeAddress","type":"string"},{"indexed":false,"internalType":"uint256","name":"totalStorage","type":"uint256"}],"name":"NodeRegistered","type":"event"},{"anonymous":false,"inputs":[{"indexed":true,"internalType":"string","name":"nodeAddress","type":"string"},{"indexed":false,"internalType":"uint256","name":"usedStorage","type":"uint256"},{"indexed":false,"internalType":"uint256","name":"reliability","type":"uint256"}],"name":"NodeUpdated","type":"event"},{"anonymous":false,"inputs":[{"indexed":true,"internalType":"string","name":"root","type":"string"},{"indexed":false,"internalType":"uint256","name":"newReplicationFactor","type":"uint256"}],"name":"ReplicationCompleted","type":"event"},{"anonymous":false,"inputs":[{"indexed":true,"internalType":"string","name":"root","type":"string"},{"indexed":false,"internalType":"uint256","name":"targetReplicas","type":"uint256"}],"name":"ReplicationRequested","type":"event"},{"anonymous":false,"inputs":[{"indexed":true,"internalType":"bytes32","name":"role","type":"bytes32"},{"indexed":true,"internalType":"bytes32","name":"previousAdminRole","type":"bytes32"},{"indexed":true,"internalType":"bytes32","name":"newAdminRole","type":"bytes32"}],"name":"RoleAdminChanged","type":"event"},{"anonymous":false,"inputs":[{"indexed":true,"internalType":"bytes32","name":"role","type":"bytes32"},{"indexed":true,"internalType":"address","name":"account","type":"address"},{"indexed":true,"internalType":"address","name":"sender","type":"address"}],"name":"RoleGranted","type":"event"},{"anonymous":false,"inputs":[{"indexed":true,"internalType":"bytes32","name":"role","type":"bytes32"},{"indexed":true,"internalType":"address","name":"account","type":"address"},{"indexed":true,"internalType":"address","name":"sender","type":"address"}],"name":"RoleRevoked","type":"event"},{"inputs":[],"name":"ADMIN_ROLE","outputs":[{"internalType":"bytes32","name":"","type":"bytes32"}],"stateMutability":"view","type":"function"},{"inputs":[],"name":"DEFAULT_ADMIN_ROLE","outputs":[{"internalType":"bytes32","name":"","type":"bytes32"}],"stateMutability":"view","type":"function"},{"inputs":[],"name":"ORACLE_ROLE","outputs":[{"internalType":"bytes32","name":"","type":"bytes32"}],"stateMutability":"view","type":"function"},{"inputs":[{"internalType":"uint256","name":"","type":"uint256"}],"name":"activeNodes","outputs":[{"internalType":"string","name":"","type":"string"}],"stateMutability":"view","type":"function"},{"inputs":[{"internalType":"uint256","name":"","type":"uint256"}],"name":"activeRoots","outputs":[{"internalType":"string","name":"","type":"string"}],"stateMutability":"view","type":"function"},{"inputs":[{"internalType":"string","name":"root","type":"string"},{"internalType":"string[]","name":"newNodeAddresses","type":"string[]"}],"name":"completeReplication","outputs":[],"stateMutability":"nonpayable","type":"function"},{"inputs":[{"internalType":"string","name":"nodeAddress","type":"string"}],"name":"deactivateNode","outputs":[],"stateMutability":"nonpayable","type":"function"},{"inputs":[],"name":"getActiveNodes","outputs":[{"internalType":"string[]","name":"","type":"string[]"}],"stateMutability":"view","type":"function"},{"inputs":[],"name":"getActiveRoots","outputs":[{"internalType":"string[]","name":"","type":"string[]"}],"stateMutability":"view","type":"function"},{"inputs":[{"internalType":"bytes32","name":"role","type":"bytes32"}],"name":"getRoleAdmin","outputs":[{"internalType":"bytes32","name":"","type":"bytes32"}],"stateMutability":"view","type":"function"},{"inputs":[{"internalType":"string","name":"root","type":"string"}],"name":"getStorageEntry","outputs":[{"components":[{"internalType":"string","name":"root","type":"string"},{"internalType":"string[]","name":"nodeAddresses","type":"string[]"},{"internalType":"uint256","name":"size","type":"uint256"},{"internalType":"uint256","name":"replicationFactor","type":"uint256"},{"internalType":"uint256","name":"timestamp","type":"uint256"},{"internalType":"bool","name":"isActive","type":"bool"},{"internalType":"bytes32","name":"integrityHash","type":"bytes32"}],"internalType":"struct StorageOracle.StorageEntry","name":"","type":"tuple"}],"stateMutability":"view","type":"function"},{"inputs":[{"internalType":"string","name":"nodeAddress","type":"string"}],"name":"getStorageNode","outputs":[{"components":[{"internalType":"string","name":"nodeAddress","type":"string"},{"internalType":"uint256","name":"totalStorage","type":"uint256"},{"internalType":"uint256","name":"usedStorage","type":"uint256"},{"internalType":"uint256","name":"reliability","type":"uint256"},{"internalType":"uint256","name":"lastSeen","type":"uint256"},{"internalType":"bool","name":"isActive","type":"bool"}],"internalType":"struct StorageOracle.StorageNode","name":"","type":"tuple"}],"stateMutability":"view","type":"function"},{"inputs":[],"name":"getStorageStats","outputs":[{"internalType":"uint256","name":"","type":"uint256"},{"internalType":"uint256","name":"","type":"uint256"},{"internalType":"uint256","name":"","type":"uint256"},{"internalType":"uint256","name":"","type":"uint256"}],"stateMutability":"view","type":"function"},{"inputs":[{"internalType":"address","name":"oracle","type":"address"}],"name":"grantOracleRole","outputs":[],"stateMutability":"nonpayable","type":"function"},{"inputs":[{"internalType":"bytes32","name":"role","type":"bytes32"},{"internalType":"address","name":"account","type":"address"}],"name":"grantRole","outputs":[],"stateMutability":"nonpayable","type":"function"},{"inputs":[{"internalType":"bytes32","name":"role","type":"bytes32"},{"internalType":"address","name":"account","type":"address"}],"name":"hasRole","outputs":[{"internalType":"bool","name":"","type":"bool"}],"stateMutability":"view","type":"function"},{"inputs":[{"internalType":"string","name":"root","type":"string"}],"name":"hasSufficientReplication","outputs":[{"internalType":"bool","name":"","type":"bool"}],"stateMutability":"view","type":"function"},{"inputs":[],"name":"minReplicationFactor","outputs":[{"internalType":"uint256","name":"","type":"uint256"}],"stateMutability":"view","type":"function"},{"inputs":[{"internalType":"string","name":"","type":"string"},{"internalType":"uint256","name":"","type":"uint256"}],"name":"nodeDataMap","outputs":[{"internalType":"string","name":"","type":"string"}],"stateMutability":"view","type":"function"},{"inputs":[{"internalType":"string","name":"root","type":"string"},{"internalType":"string[]","name":"nodeAddresses","type":"string[]"},{"internalType":"uint256","name":"size","type":"uint256"},{"internalType":"bytes32","name":"integrityHash","type":"bytes32"}],"name":"registerDataStorage","outputs":[],"stateMutability":"nonpayable","type":"function"},{"inputs":[{"internalType":"string","name":"nodeAddress","type":"string"},{"internalType":"uint256","name":"totalStorage","type":"uint256"}],"name":"registerNode","outputs":[],"stateMutability":"nonpayable","type":"function"},{"inputs":[{"internalType":"string","name":"root","type":"string"}],"name":"removeDataStorage","outputs":[],"stateMutability":"nonpayable","type":"function"},{"inputs":[{"internalType":"bytes32","name":"role","type":"bytes32"},{"internalType":"address","name":"callerConfirmation","type":"address"}],"name":"renounceRole","outputs":[],"stateMutability":"nonpayable","type":"function"},{"inputs":[{"internalType":"string","name":"","type":"string"}],"name":"replicationRequests","outputs":[{"internalType":"string","name":"root","type":"string"},{"internalType":"uint256","name":"targetReplicas","type":"uint256"},{"internalType":"uint256","name":"currentReplicas","type":"uint256"},{"internalType":"uint256","name":"requestTime","type":"uint256"},{"internalType":"bool","name":"fulfilled","type":"bool"}],"stateMutability":"view","type":"function"},{"inputs":[{"internalType":"string","name":"root","type":"string"},{"internalType":"uint256","name":"targetReplicas","type":"uint256"}],"name":"requestReplication","outputs":[],"stateMutability":"nonpayable","type":"function"},{"inputs":[{"internalType":"address","name":"oracle","type":"address"}],"name":"revokeOracleRole","outputs":[],"stateMutability":"nonpayable","type":"function"},{"inputs":[{"internalType":"bytes32","name":"role","type":"bytes32"},{"internalType":"address","name":"account","type":"address"}],"name":"revokeRole","outputs":[],"stateMutability":"nonpayable","type":"function"},{"inputs":[{"internalType":"uint256","name":"newMinReplication","type":"uint256"}],"name":"setMinReplicationFactor","outputs":[],"stateMutability":"nonpayable","type":"function"},{"inputs":[{"internalType":"string","name":"","type":"string"}],"name":"storageEntries","outputs":[{"internalType":"string","name":"root","type":"string"},{"internalType":"uint256","name":"size","type":"uint256"},{"internalType":"uint256","name":"replicationFactor","type":"uint256"},{"internalType":"uint256","name":"timestamp","type":"uint256"},{"internalType":"bool","name":"isActive","type":"bool"},{"internalType":"bytes32","name":"integrityHash","type":"bytes32"}],"stateMutability":"view","type":"function"},{"inputs":[{"internalType":"string","name":"","type":"string"}],"name":"storageNodes","outputs":[{"internalType":"string","name":"nodeAddress","type":"string"},{"internalType":"uint256","name":"totalStorage","type":"uint256"},{"internalType":"uint256","name":"usedStorage","type":"uint256"},{"internalType":"uint256","name":"reliability","type":"uint256"},{"internalType":"uint256","name":"lastSeen","type":"uint256"},{"internalType":"bool","name":"isActive","type":"bool"}],"stateMutability":"view","type":"function"},{"inputs":[{"internalType":"bytes4","name":"interfaceId","type":"bytes4"}],"name":"supportsInterface","outputs":[{"internalType":"bool","name":"","type":"bool"}],"stateMutability":"view","type":"function"},{"inputs":[],"name":"totalActiveNodes","outputs":[{"internalType":"uint256","name":"","type":"uint256"}],"stateMutability":"view","type":"function"},{"inputs":[],"name":"totalStoredData","outputs":[{"internalType":"uint256","name":"","type":"uint256"}],"stateMutability":"view","type":"function"},{"inputs":[{"internalType":"string","name":"nodeAddress","type":"string"},{"internalType":"uint256","name":"usedStorage","type":"uint256"},{"internalType":"uint256","name":"reliability","type":"uint256"}],"name":"updateNodeStatus","outputs":[],"stateMutability":"nonpayable","type":"function"},{"inputs":[{"internalType":"string","name":"root","type":"string"},{"internalType":"string","name":"nodeAddress","type":"string"},{"internalType":"bytes32","name":"actualHash","type":"bytes32"}],"name":"verifyIntegrity","outputs":[],"stateMutability":"nonpayable","type":"function"}],"evm":{"bytecode":{"linkReferences":{},"object":"60806040526003600a5534801561001557600080fd5b5060018055610025600033610081565b506100507fa49807205ce4d355092ef5a8a18f56e8913cf4a201fbe287825b095693c2177533610081565b5061007b7f68e79a7bf1e0bc45d0a330c573bc367f9cf464fd326078812f301165fbda4ef133610081565b5061012d565b6000828152602081815260408083206001600160a01b038516845290915281205460ff16610123576000838152602081815260408083206001600160a01b03861684529091529020805460ff191660011790556100db3390565b6001600160a01b0316826001600160a01b0316847f2f8788117e7eff1d82e926ec794901d17c78024a50270940304540a733656f0d60405160405180910390a4506001610127565b5060005b92915050565b612f398061013c6000396000f3fe608060405234801561001057600080fd5b50600436106102115760003560e01c80636b51e91911610125578063c7e66d00116100ad578063dbdb2f901161007c578063dbdb2f90146104d7578063dcccc765146104ea578063df9c49a3146104f2578063f3ef747f14610505578063fd1b316a1461051857600080fd5b8063c7e66d0014610479578063ca47e5e81461048c578063d547741f146104b1578063d71aec02146104c457600080fd5b806391d14854116100f457806391d148541461042f57806396f9d9831461044257806398eb92f814610455578063a217fddf1461045e578063a5cbe4151461046657600080fd5b80636b51e919146103df57806372788a62146103f457806375b238fc14610407578063766695ed1461041c57600080fd5b80632f2ff15d116101a857806349a574771161017757806349a57477146103645780634d0b6a881461036d57806350c3271114610380578063537b633a146103a0578063581eac50146103cc57600080fd5b80632f2ff15d1461030757806336568abe1461031a5780634128009a1461032d578063420c26de1461035157600080fd5b8063189a393c116101e4578063189a393c1461028f57806319b0eb36146102af5780631b910341146102c4578063248a9ca3146102e457600080fd5b806301ffc9a71461021657806307e2cea51461023e5780630d92bc561461026157806315ae7cfd14610286575b600080fd5b61022961022436600461240d565b61052b565b60405190151581526020015b60405180910390f35b610253600080516020612ec483398151915281565b604051908152602001610235565b61027461026f3660046124f3565b610562565b6040516102359695949392919061257f565b610253600a5481565b6102a261029d3660046125bd565b61062e565b60405161023591906125d6565b6102c26102bd3660046125e9565b6106da565b005b6102d76102d23660046124f3565b610854565b604051610235919061265a565b6102536102f23660046125bd565b60009081526020819052604090206001015490565b6102c261031536600461273c565b610a6b565b6102c261032836600461273c565b610a90565b61034061033b3660046124f3565b610ac8565b604051610235959493929190612768565b6102c261035f3660046124f3565b610b8d565b61025360095481565b6102c261037b366004612847565b610d95565b61039361038e3660046124f3565b61109b565b60405161023591906128be565b600854600954600554600a54604080519485526020850193909352918301526060820152608001610235565b6102c26103da3660046125bd565b6111cf565b6103e761126a565b6040516102359190612976565b6102c2610402366004612989565b611343565b610253600080516020612ee483398151915281565b6102c261042a3660046124f3565b6114cc565b61022961043d36600461273c565b611799565b6102a26104503660046125bd565b6117c2565b61025360085481565b610253600081565b6102c26104743660046129d6565b6117d2565b6102c26104873660046129f1565b611822565b61049f61049a3660046124f3565b6118c3565b60405161023596959493929190612a35565b6102c26104bf36600461273c565b61198e565b6102c26104d2366004612a73565b6119b3565b6102296104e53660046124f3565b611b67565b6103e7611b97565b6102c26105003660046129d6565b611c67565b6102c26105133660046129f1565b611cb3565b6102a26105263660046129f1565b611eac565b60006001600160e01b03198216637965db0b60e01b148061055c57506301ffc9a760e01b6001600160e01b03198316145b92915050565b805160208183018101805160028252928201919093012091528054819061058890612ada565b80601f01602080910402602001604051908101604052809291908181526020018280546105b490612ada565b80156106015780601f106105d657610100808354040283529160200191610601565b820191906000526020600020905b8154815290600101906020018083116105e457829003601f168201915b505050506002830154600384015460048501546005860154600690960154949592949193509160ff169086565b6005818154811061063e57600080fd5b90600052602060002001600091509050805461065990612ada565b80601f016020809104026020016040519081016040528092919081815260200182805461068590612ada565b80156106d25780601f106106a7576101008083540402835291602001916106d2565b820191906000526020600020905b8154815290600101906020018083116106b557829003601f168201915b505050505081565b6106f2600080516020612ec483398151915233611799565b6107175760405162461bcd60e51b815260040161070e90612b14565b60405180910390fd5b60006002846040516107299190612b57565b908152604051908190036020019020600581015490915060ff1661078f5760405162461bcd60e51b815260206004820152601d60248201527f53746f726167654f7261636c653a2044617461206e6f7420666f756e64000000604482015260640161070e565b8060060154821461084e57826040516107a89190612b57565b6040518091039020846040516107be9190612b57565b604080519182900382206006850154835260208301869052917f1613c50515a34c2e9ee8235e18d6b855e233768d2a1a38dade233b801b406d09910160405180910390a360006003846040516108149190612b57565b90815260200160405180910390209050600a8160030154111561084c57600a8160030160008282546108469190612b89565b90915550505b505b50505050565b6108996040518060e001604052806060815260200160608152602001600081526020016000815260200160008152602001600015158152602001600080191681525090565b6002826040516108a99190612b57565b90815260200160405180910390206040518060e00160405290816000820180546108d290612ada565b80601f01602080910402602001604051908101604052809291908181526020018280546108fe90612ada565b801561094b5780601f106109205761010080835404028352916020019161094b565b820191906000526020600020905b81548152906001019060200180831161092e57829003601f168201915b5050505050815260200160018201805480602002602001604051908101604052809291908181526020016000905b82821015610a2557838290600052602060002001805461099890612ada565b80601f01602080910402602001604051908101604052809291908181526020018280546109c490612ada565b8015610a115780601f106109e657610100808354040283529160200191610a11565b820191906000526020600020905b8154815290600101906020018083116109f457829003601f168201915b505050505081526020019060010190610979565b50505090825250600282015460208201526003820154604082015260048201546060820152600582015460ff161515608082015260069091015460a09091015292915050565b600082815260208190526040902060010154610a8681611ef3565b61084e8383611efd565b6001600160a01b0381163314610ab95760405163334bd91960e11b815260040160405180910390fd5b610ac38282611f8f565b505050565b8051602081830181018051600482529282019190930120915280548190610aee90612ada565b80601f0160208091040260200160405190810160405280929190818152602001828054610b1a90612ada565b8015610b675780601f10610b3c57610100808354040283529160200191610b67565b820191906000526020600020905b815481529060010190602001808311610b4a57829003601f168201915b505050506001830154600284015460038501546004909501549394919390925060ff1685565b610ba5600080516020612ec483398151915233611799565b610bc15760405162461bcd60e51b815260040161070e90612b14565b6000600382604051610bd39190612b57565b908152604051908190036020019020600581015490915060ff16610c535760405162461bcd60e51b815260206004820152603160248201527f53746f726167654f7261636c653a204e6f6465206e6f7420666f756e64206f7260448201527020616c726561647920696e61637469766560781b606482015260840161070e565b60058101805460ff1916905560098054906000610c6f83612b9c565b919050555081604051610c829190612b57565b604051908190038120907fb4551525dafbacbcbad53f3a1ad477e2de2428dcd5832ae46d8edacf8c2959d590600090a26000600783604051610cc49190612b57565b9081526020016040518091039020905060005b815481101561084e57610d8d828281548110610cf557610cf5612bb3565b906000526020600020018054610d0a90612ada565b80601f0160208091040260200160405190810160405280929190818152602001828054610d3690612ada565b8015610d835780601f10610d5857610100808354040283529160200191610d83565b820191906000526020600020905b815481529060010190602001808311610d6657829003601f168201915b5050505050611ffa565b600101610cd7565b610dad600080516020612ec483398151915233611799565b610dc95760405162461bcd60e51b815260040161070e90612b14565b610dd1612048565b6000845111610e225760405162461bcd60e51b815260206004820181905260248201527f53746f726167654f7261636c653a20496e76616c696420726f6f742068617368604482015260640161070e565b6000835111610e845760405162461bcd60e51b815260206004820152602860248201527f53746f726167654f7261636c653a204e6f2073746f72616765206e6f646573206044820152671c1c9bdd9a59195960c21b606482015260840161070e565b60008211610ed45760405162461bcd60e51b815260206004820152601b60248201527f53746f726167654f7261636c653a20496e76616c69642073697a650000000000604482015260640161070e565b6000600285604051610ee69190612b57565b908152604051908190036020019020600581015490915060ff16610f5e57600580546001810182556000919091527f036b6384b5eca791c62761152d0c79bb0604c104a5fb6f4eb0703f3154bb3db001610f408682612c10565b508260086000828254610f539190612cd1565b90915550610f7f9050565b828160020154600854610f719190612b89565b610f7b9190612cd1565b6008555b80610f8a8682612c10565b508351610fa0906001830190602087019061234b565b50600281018390558351600382015542600482015560058101805460ff191660011790556006810182905560005b845181101561102757610ffa858281518110610fec57610fec612bb3565b602002602001015187612072565b61101f85828151811061100f5761100f612bb3565b60200260200101518560016120ad565b600101610fce565b50846040516110369190612b57565b60405180910390207f2e26e697e6e4820176953b372a8b1bd11a29d1e2b484f95ff59d316b3a1c1c098585875160405161107293929190612ce4565b60405180910390a2600a54845110156110915761109185600a5461211e565b5061084e60018055565b6110d66040518060c0016040528060608152602001600081526020016000815260200160008152602001600081526020016000151581525090565b6003826040516110e69190612b57565b90815260200160405180910390206040518060c001604052908160008201805461110f90612ada565b80601f016020809104026020016040519081016040528092919081815260200182805461113b90612ada565b80156111885780601f1061115d57610100808354040283529160200191611188565b820191906000526020600020905b81548152906001019060200180831161116b57829003601f168201915b50505091835250506001820154602082015260028201546040820152600382015460608201526004820154608082015260059091015460ff16151560a09091015292915050565b6111e7600080516020612ee483398151915233611799565b6112035760405162461bcd60e51b815260040161070e90612d09565b600081116112655760405162461bcd60e51b815260206004820152602960248201527f53746f726167654f7261636c653a20496e76616c6964207265706c696361746960448201526837b7103330b1ba37b960b91b606482015260840161070e565b600a55565b60606006805480602002602001604051908101604052809291908181526020016000905b8282101561133a5783829060005260206000200180546112ad90612ada565b80601f01602080910402602001604051908101604052809291908181526020018280546112d990612ada565b80156113265780601f106112fb57610100808354040283529160200191611326565b820191906000526020600020905b81548152906001019060200180831161130957829003601f168201915b50505050508152602001906001019061128e565b50505050905090565b61135b600080516020612ec483398151915233611799565b6113775760405162461bcd60e51b815260040161070e90612b14565b60006003846040516113899190612b57565b908152604051908190036020019020600581015490915060ff166114015760405162461bcd60e51b815260206004820152602960248201527f53746f726167654f7261636c653a204e6f6465206e6f7420666f756e64206f7260448201526820696e61637469766560b81b606482015260840161070e565b60648211156114635760405162461bcd60e51b815260206004820152602860248201527f53746f726167654f7261636c653a20496e76616c69642072656c696162696c6960448201526774792073636f726560c01b606482015260840161070e565b6002810183905560038101829055426004820155604051611485908590612b57565b6040805191829003822085835260208301859052917f0d5d823685676e88e287c4dcb16e87cbf25d719d8fff88c54d82b918a282399f91015b60405180910390a250505050565b6114e4600080516020612ec483398151915233611799565b6115005760405162461bcd60e51b815260040161070e90612b14565b611508612048565b600060028260405161151a9190612b57565b908152604051908190036020019020600581015490915060ff166115995760405162461bcd60e51b815260206004820152603060248201527f53746f726167654f7261636c653a2044617461206e6f7420666f756e64206f7260448201526f08185b1c9958591e481c995b5bdd995960821b606482015260840161070e565b60005b60018201548110156117185761165f8260010182815481106115c0576115c0612bb3565b9060005260206000200180546115d590612ada565b80601f016020809104026020016040519081016040528092919081815260200182805461160190612ada565b801561164e5780601f106116235761010080835404028352916020019161164e565b820191906000526020600020905b81548152906001019060200180831161163157829003601f168201915b5050505050836002015460006120ad565b61171082600101828154811061167757611677612bb3565b90600052602060002001805461168c90612ada565b80601f01602080910402602001604051908101604052809291908181526020018280546116b890612ada565b80156117055780601f106116da57610100808354040283529160200191611705565b820191906000526020600020905b8154815290600101906020018083116116e857829003601f168201915b505050505084612218565b60010161159c565b5080600201546008600082825461172f9190612b89565b909155505060058101805460ff1916905560405161174e908390612b57565b60405190819003812060028301548252907f4d66688fa673c7f3259a7c8f40ad1f957e197fa8afa380524dd2d061ec7e0edd9060200160405180910390a25061179660018055565b50565b6000918252602082815260408084206001600160a01b0393909316845291905290205460ff1690565b6006818154811061063e57600080fd5b6117ea600080516020612ee483398151915233611799565b6118065760405162461bcd60e51b815260040161070e90612d09565b61181e600080516020612ec483398151915282611f8f565b5050565b61183a600080516020612ec483398151915233611799565b6118565760405162461bcd60e51b815260040161070e90612b14565b600a548110156118b95760405162461bcd60e51b815260206004820152602860248201527f53746f726167654f7261636c653a2042656c6f77206d696e696d756d207265706044820152673634b1b0ba34b7b760c11b606482015260840161070e565b61181e828261211e565b80516020818301810180516003825292820191909301209152805481906118e990612ada565b80601f016020809104026020016040519081016040528092919081815260200182805461191590612ada565b80156119625780601f1061193757610100808354040283529160200191611962565b820191906000526020600020905b81548152906001019060200180831161194557829003601f168201915b505050600184015460028501546003860154600487015460059097015495969295919450925060ff1686565b6000828152602081905260409020600101546119a981611ef3565b61084e8383611f8f565b6119cb600080516020612ec483398151915233611799565b6119e75760405162461bcd60e51b815260040161070e90612b14565b60006002836040516119f99190612b57565b908152604051908190036020019020600581015490915060ff16611a5f5760405162461bcd60e51b815260206004820152601d60248201527f53746f726167654f7261636c653a2044617461206e6f7420666f756e64000000604482015260640161070e565b6000600484604051611a719190612b57565b908152604051908190036020019020600481015490915060ff1615611aed5760405162461bcd60e51b815260206004820152602c60248201527f53746f726167654f7261636c653a205265706c69636174696f6e20616c72656160448201526b191e4818dbdb5c1b195d195960a21b606482015260840161070e565b8251611b02906001840190602086019061234b565b5082516003830155426004808401919091558101805460ff19166001179055604051611b2f908590612b57565b60405190819003812084518252907fb2258952c6aa3f320afbb73923ef1335585781582e8d35d9082cc0afc1de9e5c906020016114be565b6000600a54600283604051611b7c9190612b57565b90815260200160405180910390206003015410159050919050565b60606005805480602002602001604051908101604052809291908181526020016000905b8282101561133a578382906000526020600020018054611bda90612ada565b80601f0160208091040260200160405190810160405280929190818152602001828054611c0690612ada565b8015611c535780601f10611c2857610100808354040283529160200191611c53565b820191906000526020600020905b815481529060010190602001808311611c3657829003601f168201915b505050505081526020019060010190611bbb565b611c7f600080516020612ee483398151915233611799565b611c9b5760405162461bcd60e51b815260040161070e90612d09565b61181e600080516020612ec483398151915282611efd565b611ccb600080516020612ec483398151915233611799565b611ce75760405162461bcd60e51b815260040161070e90612b14565b6000825111611d445760405162461bcd60e51b815260206004820152602360248201527f53746f726167654f7261636c653a20496e76616c6964206e6f6465206164647260448201526265737360e81b606482015260840161070e565b60008111611da45760405162461bcd60e51b815260206004820152602760248201527f53746f726167654f7261636c653a20496e76616c69642073746f7261676520636044820152666170616369747960c81b606482015260840161070e565b6000600383604051611db69190612b57565b908152604051908190036020019020600581015490915060ff16611e2757600680546001810182556000919091527ff652222313e28459528d920b65115c16c04f3efc82aaedc97be59f3f377c0d3f01611e108482612c10565b5060098054906000611e2183612d4b565b91905055505b80611e328482612c10565b506001808201839055600060028301556064600383015542600483015560058201805460ff19169091179055604051611e6c908490612b57565b604051908190038120838252907f6d5584b237049a8728238122791e2f39f42d3138254ccf6dd688cc95d48060b9906020015b60405180910390a2505050565b81516020818401810180516007825292820191850191909120919052805482908110611ed757600080fd5b9060005260206000200160009150915050805461065990612ada565b6117968133612312565b6000611f098383611799565b611f87576000838152602081815260408083206001600160a01b03861684529091529020805460ff19166001179055611f3f3390565b6001600160a01b0316826001600160a01b0316847f2f8788117e7eff1d82e926ec794901d17c78024a50270940304540a733656f0d60405160405180910390a450600161055c565b50600061055c565b6000611f9b8383611799565b15611f87576000838152602081815260408083206001600160a01b0386168085529252808320805460ff1916905551339286917ff6391f5c32d9c69d2a47ea670b442974b53935d1edc7fd64eb21e047a839171b9190a450600161055c565b600060028260405161200c9190612b57565b908152604051908190036020019020600581015490915060ff1680156120375750600a548160030154105b1561181e5761181e82600a5461211e565b60026001540361206b57604051633ee5aeb560e01b815260040160405180910390fd5b6002600155565b6007826040516120829190612b57565b908152604051602091819003820190208054600181018255600091825291902001610ac38282612c10565b60006003846040516120bf9190612b57565b9081526020016040518091039020905081156120f457828160020160008282546120e99190612cd1565b9091555061084e9050565b8281600201541061084e57828160020160008282546121139190612b89565b909155505050505050565b60006002836040516121309190612b57565b908152602001604051809103902090506040518060a00160405280848152602001838152602001826003015481526020014281526020016000151581525060048460405161217e9190612b57565b9081526040519081900360200190208151819061219b9082612c10565b50602082015160018201556040808301516002830155606083015160038301556080909201516004909101805460ff1916911515919091179055516121e1908490612b57565b604051908190038120838252907fb033d671b74fa3f35bfb1002b622b52074563aaf7009c7d78173cd72e656738c90602001611e9f565b600060078360405161222a9190612b57565b9081526020016040518091039020905060005b815481101561084e57828051906020012082828154811061226057612260612bb3565b906000526020600020016040516122779190612d64565b60405180910390200361230a578154829061229490600190612b89565b815481106122a4576122a4612bb3565b906000526020600020018282815481106122c0576122c0612bb3565b9060005260206000200190816122d69190612dd9565b50818054806122e7576122e7612ead565b60019003818190600052602060002001600061230391906123a1565b905561084e565b60010161223d565b61231c8282611799565b61181e5760405163e2517d3f60e01b81526001600160a01b03821660048201526024810183905260440161070e565b828054828255906000526020600020908101928215612391579160200282015b8281111561239157825182906123819082612c10565b509160200191906001019061236b565b5061239d9291506123db565b5090565b5080546123ad90612ada565b6000825580601f106123bd575050565b601f01602090049060005260206000209081019061179691906123f8565b8082111561239d5760006123ef82826123a1565b506001016123db565b5b8082111561239d57600081556001016123f9565b60006020828403121561241f57600080fd5b81356001600160e01b03198116811461243757600080fd5b9392505050565b634e487b7160e01b600052604160045260246000fd5b604051601f8201601f191681016001600160401b038111828210171561247c5761247c61243e565b604052919050565b600082601f83011261249557600080fd5b81356001600160401b038111156124ae576124ae61243e565b6124c1601f8201601f1916602001612454565b8181528460208386010111156124d657600080fd5b816020850160208301376000918101602001919091529392505050565b60006020828403121561250557600080fd5b81356001600160401b0381111561251b57600080fd5b61252784828501612484565b949350505050565b60005b8381101561254a578181015183820152602001612532565b50506000910152565b6000815180845261256b81602086016020860161252f565b601f01601f19169290920160200192915050565b60c08152600061259260c0830189612553565b602083019790975250604081019490945260608401929092521515608083015260a090910152919050565b6000602082840312156125cf57600080fd5b5035919050565b6020815260006124376020830184612553565b6000806000606084860312156125fe57600080fd5b83356001600160401b0381111561261457600080fd5b61262086828701612484565b93505060208401356001600160401b0381111561263c57600080fd5b61264886828701612484565b93969395505050506040919091013590565b602081526000825160e06020840152612677610100840182612553565b602085810151858303601f19016040870152805180845292935081019181840191600582901b85010160005b828110156126d457601f198683030184526126bf828651612553565b602095860195949094019391506001016126a3565b506040880151606088015260608801516080880152608088015160a088015260a0880151945061270860c088018615159052565b60c088015160e0880152809550505050505092915050565b80356001600160a01b038116811461273757600080fd5b919050565b6000806040838503121561274f57600080fd5b8235915061275f60208401612720565b90509250929050565b60a08152600061277b60a0830188612553565b905085602083015284604083015283606083015282151560808301529695505050505050565b600082601f8301126127b257600080fd5b81356001600160401b038111156127cb576127cb61243e565b8060051b6127db60208201612454565b918252602081850181019290810190868411156127f757600080fd5b6020860192505b8383101561283d5782356001600160401b0381111561281c57600080fd5b61282b886020838a0101612484565b835250602092830192909101906127fe565b9695505050505050565b6000806000806080858703121561285d57600080fd5b84356001600160401b0381111561287357600080fd5b61287f87828801612484565b94505060208501356001600160401b0381111561289b57600080fd5b6128a7878288016127a1565b949794965050505060408301359260600135919050565b602081526000825160c060208401526128da60e0840182612553565b9050602084015160408401526040840151606084015260608401516080840152608084015160a084015260a0840151151560c08401528091505092915050565b600082825180855260208501945060208160051b8301016020850160005b8381101561296a57601f19858403018852612954838351612553565b6020988901989093509190910190600101612938565b50909695505050505050565b602081526000612437602083018461291a565b60008060006060848603121561299e57600080fd5b83356001600160401b038111156129b457600080fd5b6129c086828701612484565b9660208601359650604090950135949350505050565b6000602082840312156129e857600080fd5b61243782612720565b60008060408385031215612a0457600080fd5b82356001600160401b03811115612a1a57600080fd5b612a2685828601612484565b95602094909401359450505050565b60c081526000612a4860c0830189612553565b602083019790975250604081019490945260608401929092526080830152151560a090910152919050565b60008060408385031215612a8657600080fd5b82356001600160401b03811115612a9c57600080fd5b612aa885828601612484565b92505060208301356001600160401b03811115612ac457600080fd5b612ad0858286016127a1565b9150509250929050565b600181811c90821680612aee57607f821691505b602082108103612b0e57634e487b7160e01b600052602260045260246000fd5b50919050565b60208082526023908201527f53746f726167654f7261636c653a204f7261636c6520726f6c652072657175696040820152621c995960ea1b606082015260800190565b60008251612b6981846020870161252f565b9190910192915050565b634e487b7160e01b600052601160045260246000fd5b8181038181111561055c5761055c612b73565b600081612bab57612bab612b73565b506000190190565b634e487b7160e01b600052603260045260246000fd5b601f821115610ac357806000526020600020601f840160051c81016020851015612bf05750805b601f840160051c820191505b8181101561084c5760008155600101612bfc565b81516001600160401b03811115612c2957612c2961243e565b612c3d81612c378454612ada565b84612bc9565b6020601f821160018114612c745760008315612c595750848201515b600184901b600019600386901b1c198216175b85555061084c565b600084815260208120601f198516915b82811015612ca45787850151825560209485019460019092019101612c84565b5084821015612cc25786840151600019600387901b60f8161c191681555b50505050600190811b01905550565b8082018082111561055c5761055c612b73565b606081526000612cf7606083018661291a565b60208301949094525060400152919050565b60208082526022908201527f53746f726167654f7261636c653a2041646d696e20726f6c6520726571756972604082015261195960f21b606082015260800190565b600060018201612d5d57612d5d612b73565b5060010190565b6000808354612d7281612ada565b600182168015612d895760018114612d9e57612dce565b60ff1983168652811515820286019350612dce565b86600052602060002060005b83811015612dc657815488820152600190910190602001612daa565b505081860193505b509195945050505050565b818103612de4575050565b612dee8254612ada565b6001600160401b03811115612e0557612e0561243e565b612e1381612c378454612ada565b6000601f821160018114612e455760008315612c59575081850154600184901b600019600386901b1c19821617612c6c565b600085815260209020601f19841690600086815260209020845b83811015612e7f5782860154825560019586019590910190602001612e5f565b5085831015612e9d5781850154600019600388901b60f8161c191681555b5050505050600190811b01905550565b634e487b7160e01b600052603160045260246000fdfe68e79a7bf1e0bc45d0a330c573bc367f9cf464fd326078812f301165fbda4ef1a49807205ce4d355092ef5a8a18f56e8913cf4a201fbe287825b095693c21775a26469706673582212203f35931523616f4a514adbab23188ac85751bbbf6654a70c682462ab4ecfd83c64736f6c634300081b0033","opcodes":"PUSH1 0x80 PUSH1 0x40 MSTORE PUSH1 0x3 PUSH1 0xA SSTORE CALLVALUE DUP1 ISZERO PUSH2 0x15 JUMPI PUSH1 0x0 DUP1 REVERT JUMPDEST POP PUSH1 0x1 DUP1 SSTORE PUSH2 0x25 PUSH1 0x0 CALLER PUSH2 0x81 JUMP JUMPDEST POP PUSH2 0x50 PUSH32 0xA49807205CE4D355092EF5A8A18F56E8913CF4A201FBE287825B095693C21775 CALLER PUSH2 0x81 JUMP JUMPDEST POP PUSH2 0x7B PUSH32 0x68E79A7BF1E0BC45D0A330C573BC367F9CF464FD326078812F301165FBDA4EF1 CALLER PUSH2 0x81 JUMP JUMPDEST POP PUSH2 0x12D JUMP JUMPDEST PUSH1 0x0 DUP3 DUP2 MSTORE PUSH1 0x20 DUP2 DUP2 MSTORE PUSH1 0x40 DUP1 DUP4 KECCAK256 PUSH1 0x1 PUSH1 0x1 PUSH1 0xA0 SHL SUB DUP6 AND DUP5 MSTORE SWAP1 SWAP2 MSTORE DUP2 KECCAK256 SLOAD PUSH1 0xFF AND PUSH2 0x123 JUMPI PUSH1 0x0 DUP4 DUP2 MSTORE PUSH1 0x20 DUP2 DUP2 MSTORE PUSH1 0x40 DUP1 DUP4 KECCAK256 PUSH1 0x1 PUSH1 0x1 PUSH1 0xA0 SHL SUB DUP7 AND DUP5 MSTORE SWAP1 SWAP2 MSTORE SWAP1 KECCAK256 DUP1 SLOAD PUSH1 0xFF NOT AND PUSH1 0x1 OR SWAP1 SSTORE PUSH2 0xDB CALLER SWAP1 JUMP JUMPDEST PUSH1 0x1 PUSH1 0x1 PUSH1 0xA0 SHL SUB AND DUP3 PUSH1 0x1 PUSH1 0x1 PUSH1 0xA0 SHL SUB AND DUP5 PUSH32 0x2F8788117E7EFF1D82E926EC794901D17C78024A50270940304540A733656F0D PUSH1 0x40 MLOAD PUSH1 0x40 MLOAD DUP1 SWAP2 SUB SWAP1 LOG4 POP PUSH1 0x1 PUSH2 0x127 JUMP JUMPDEST POP PUSH1 0x0 JUMPDEST SWAP3 SWAP2 POP POP JUMP JUMPDEST PUSH2 0x2F39 DUP1 PUSH2 0x13C PUSH1 0x0 CODECOPY PUSH1 0x0 RETURN INVALID PUSH1 0x80 PUSH1 0x40 MSTORE CALLVALUE DUP1 ISZERO PUSH2 0x10 JUMPI PUSH1 0x0 DUP1 REVERT JUMPDEST POP PUSH1 0x4 CALLDATASIZE LT PUSH2 0x211 JUMPI PUSH1 0x0 CALLDATALOAD PUSH1 0xE0 SHR DUP1 PUSH4 0x6B51E919 GT PUSH2 0x125 JUMPI DUP1 PUSH4 0xC7E66D00 GT PUSH2 0xAD JUMPI DUP1 PUSH4 0xDBDB2F90 GT PUSH2 0x7C JUMPI DUP1 PUSH4 0xDBDB2F90 EQ PUSH2 0x4D7 JUMPI DUP1 PUSH4 0xDCCCC765 EQ PUSH2 0x4EA JUMPI DUP1 PUSH4 0xDF9C49A3 EQ PUSH2 0x4F2 JUMPI DUP1 PUSH4 0xF3EF747F EQ PUSH2 0x505 JUMPI DUP1 PUSH4 0xFD1B316A EQ PUSH2 0x518 JUMPI PUSH1 0x0 DUP1 REVERT JUMPDEST DUP1 PUSH4 0xC7E66D00 EQ PUSH2 0x479 JUMPI DUP1 PUSH4 0xCA47E5E8 EQ PUSH2 0x48C JUMPI DUP1 PUSH4 0xD547741F EQ PUSH2 0x4B1 JUMPI DUP1 PUSH4 0xD71AEC02 EQ PUSH2 0x4C4 JUMPI PUSH1 0x0 DUP1 REVERT JUMPDEST DUP1 PUSH4 0x91D14854 GT PUSH2 0xF4 JUMPI DUP1 PUSH4 0x91D14854 EQ PUSH2 0x42F JUMPI DUP1 PUSH4 0x96F9D983 EQ PUSH2 0x442 JUMPI DUP1 PUSH4 0x98EB92F8 EQ PUSH2 0x455 JUMPI DUP1 PUSH4 0xA217FDDF EQ PUSH2 0x45E JUMPI DUP1 PUSH4 0xA5CBE415 EQ PUSH2 0x466 JUMPI PUSH1 0x0 DUP1 REVERT JUMPDEST DUP1 PUSH4 0x6B51E919 EQ PUSH2 0x3DF JUMPI DUP1 PUSH4 0x72788A62 EQ PUSH2 0x3F4 JUMPI DUP1 PUSH4 0x75B238FC EQ PUSH2 0x407 JUMPI DUP1 PUSH4 0x766695ED EQ PUSH2 0x41C JUMPI PUSH1 0x0 DUP1 REVERT JUMPDEST DUP1 PUSH4 0x2F2FF15D GT PUSH2 0x1A8 JUMPI DUP1 PUSH4 0x49A57477 GT PUSH2 0x177 JUMPI DUP1 PUSH4 0x49A57477 EQ PUSH2 0x364 JUMPI DUP1 PUSH4 0x4D0B6A88 EQ PUSH2 0x36D JUMPI DUP1 PUSH4 0x50C32711 EQ PUSH2 0x380 JUMPI DUP1 PUSH4 0x537B633A EQ PUSH2 0x3A0 JUMPI DUP1 PUSH4 0x581EAC50 EQ PUSH2 0x3CC JUMPI PUSH1 0x0 DUP1 REVERT JUMPDEST DUP1 PUSH4 0x2F2FF15D EQ PUSH2 0x307 JUMPI DUP1 PUSH4 0x36568ABE EQ PUSH2 0x31A JUMPI DUP1 PUSH4 0x4128009A EQ PUSH2 0x32D JUMPI DUP1 PUSH4 0x420C26DE EQ PUSH2 0x351 JUMPI PUSH1 0x0 DUP1 REVERT JUMPDEST DUP1 PUSH4 0x189A393C GT PUSH2 0x1E4 JUMPI DUP1 PUSH4 0x189A393C EQ PUSH2 0x28F JUMPI DUP1 PUSH4 0x19B0EB36 EQ PUSH2 0x2AF JUMPI DUP1 PUSH4 0x1B910341 EQ PUSH2 0x2C4 JUMPI DUP1 PUSH4 0x248A9CA3 EQ PUSH2 0x2E4 JUMPI PUSH1 0x0 DUP1 REVERT JUMPDEST DUP1 PUSH4 0x1FFC9A7 EQ PUSH2 0x216 JUMPI DUP1 PUSH4 0x7E2CEA5 EQ PUSH2 0x23E JUMPI DUP1 PUSH4 0xD92BC56 EQ PUSH2 0x261 JUMPI DUP1 PUSH4 0x15AE7CFD EQ PUSH2 0x286 JUMPI JUMPDEST PUSH1 0x0 DUP1 REVERT JUMPDEST PUSH2 0x229 PUSH2 0x224 CALLDATASIZE PUSH1 0x4 PUSH2 0x240D JUMP JUMPDEST PUSH2 0x52B JUMP JUMPDEST PUSH1 0x40 MLOAD SWAP1 ISZERO ISZERO DUP2 MSTORE PUSH1 0x20 ADD JUMPDEST PUSH1 0x40 MLOAD DUP1 SWAP2 SUB SWAP1 RETURN JUMPDEST PUSH2 0x253 PUSH1 0x0 DUP1 MLOAD PUSH1 0x20 PUSH2 0x2EC4 DUP4 CODECOPY DUP2 MLOAD SWAP2 MSTORE DUP2 JUMP JUMPDEST PUSH1 0x40 MLOAD SWAP1 DUP2 MSTORE PUSH1 0x20 ADD PUSH2 0x235 JUMP JUMPDEST PUSH2 0x274 PUSH2 0x26F CALLDATASIZE PUSH1 0x4 PUSH2 0x24F3 JUMP JUMPDEST PUSH2 0x562 JUMP JUMPDEST PUSH1 0x40 MLOAD PUSH2 0x235 SWAP7 SWAP6 SWAP5 SWAP4 SWAP3 SWAP2 SWAP1 PUSH2 0x257F JUMP JUMPDEST PUSH2 0x253 PUSH1 0xA SLOAD DUP2 JUMP JUMPDEST PUSH2 0x2A2 PUSH2 0x29D CALLDATASIZE PUSH1 0x4 PUSH2 0x25BD JUMP JUMPDEST PUSH2 0x62E JUMP JUMPDEST PUSH1 0x40 MLOAD PUSH2 0x235 SWAP2 SWAP1 PUSH2 0x25D6 JUMP JUMPDEST PUSH2 0x2C2 PUSH2 0x2BD CALLDATASIZE PUSH1 0x4 PUSH2 0x25E9 JUMP JUMPDEST PUSH2 0x6DA JUMP JUMPDEST STOP JUMPDEST PUSH2 0x2D7 PUSH2 0x2D2 CALLDATASIZE PUSH1 0x4 PUSH2 0x24F3 JUMP JUMPDEST PUSH2 0x854 JUMP JUMPDEST PUSH1 0x40 MLOAD PUSH2 0x235 SWAP2 SWAP1 PUSH2 0x265A JUMP JUMPDEST PUSH2 0x253 PUSH2 0x2F2 CALLDATASIZE PUSH1 0x4 PUSH2 0x25BD JUMP JUMPDEST PUSH1 0x0 SWAP1 DUP2 MSTORE PUSH1 0x20 DUP2 SWAP1 MSTORE PUSH1 0x40 SWAP1 KECCAK256 PUSH1 0x1 ADD SLOAD SWAP1 JUMP JUMPDEST PUSH2 0x2C2 PUSH2 0x315 CALLDATASIZE PUSH1 0x4 PUSH2 0x273C JUMP JUMPDEST PUSH2 0xA6B JUMP JUMPDEST PUSH2 0x2C2 PUSH2 0x328 CALLDATASIZE PUSH1 0x4 PUSH2 0x273C JUMP JUMPDEST PUSH2 0xA90 JUMP JUMPDEST PUSH2 0x340 PUSH2 0x33B CALLDATASIZE PUSH1 0x4 PUSH2 0x24F3 JUMP JUMPDEST PUSH2 0xAC8 JUMP JUMPDEST PUSH1 0x40 MLOAD PUSH2 0x235 SWAP6 SWAP5 SWAP4 SWAP3 SWAP2 SWAP1 PUSH2 0x2768 JUMP JUMPDEST PUSH2 0x2C2 PUSH2 0x35F CALLDATASIZE PUSH1 0x4 PUSH2 0x24F3 JUMP JUMPDEST PUSH2 0xB8D JUMP JUMPDEST PUSH2 0x253 PUSH1 0x9 SLOAD DUP2 JUMP JUMPDEST PUSH2 0x2C2 PUSH2 0x37B CALLDATASIZE PUSH1 0x4 PUSH2 0x2847 JUMP JUMPDEST PUSH2 0xD95 JUMP JUMPDEST PUSH2 0x393 PUSH2 0x38E CALLDATASIZE PUSH1 0x4 PUSH2 0x24F3 JUMP JUMPDEST PUSH2 0x109B JUMP JUMPDEST PUSH1 0x40 MLOAD PUSH2 0x235 SWAP2 SWAP1 PUSH2 0x28BE JUMP JUMPDEST PUSH1 0x8 SLOAD PUSH1 0x9 SLOAD PUSH1 0x5 SLOAD PUSH1 0xA SLOAD PUSH1 0x40 DUP1 MLOAD SWAP5 DUP6 MSTORE PUSH1 0x20 DUP6 ADD SWAP4 SWAP1 SWAP4 MSTORE SWAP2 DUP4 ADD MSTORE PUSH1 0x60 DUP3 ADD MSTORE PUSH1 0x80 ADD PUSH2 0x235 JUMP JUMPDEST PUSH2 0x2C2 PUSH2 0x3DA CALLDATASIZE PUSH1 0x4 PUSH2 0x25BD JUMP JUMPDEST PUSH2 0x11CF JUMP JUMPDEST PUSH2 0x3E7 PUSH2 0x126A JUMP JUMPDEST PUSH1 0x40 MLOAD PUSH2 0x235 SWAP2 SWAP1 PUSH2 0x2976 JUMP JUMPDEST PUSH2 0x2C2 PUSH2 0x402 CALLDATASIZE PUSH1 0x4 PUSH2 0x2989 JUMP JUMPDEST PUSH2 0x1343 JUMP JUMPDEST PUSH2 0x253 PUSH1 0x0 DUP1 MLOAD PUSH1 0x20 PUSH2 0x2EE4 DUP4 CODECOPY DUP2 MLOAD SWAP2 MSTORE DUP2 JUMP JUMPDEST PUSH2 0x2C2 PUSH2 0x42A CALLDATASIZE PUSH1 0x4 PUSH2 0x24F3 JUMP JUMPDEST PUSH2 0x14CC JUMP JUMPDEST PUSH2 0x229 PUSH2 0x43D CALLDATASIZE PUSH1 0x4 PUSH2 0x273C JUMP JUMPDEST PUSH2 0x1799 JUMP JUMPDEST PUSH2 0x2A2 PUSH2 0x450 CALLDATASIZE PUSH1 0x4 PUSH2 0x25BD JUMP JUMPDEST PUSH2 0x17C2 JUMP JUMPDEST PUSH2 0x253 PUSH1 0x8 SLOAD DUP2 JUMP JUMPDEST PUSH2 0x253 PUSH1 0x0 DUP2 JUMP JUMPDEST PUSH2 0x2C2 PUSH2 0x474 CALLDATASIZE PUSH1 0x4 PUSH2 0x29D6 JUMP JUMPDEST PUSH2 0x17D2 JUMP JUMPDEST PUSH2 0x2C2 PUSH2 0x487 CALLDATASIZE PUSH1 0x4 PUSH2 0x29F1 JUMP JUMPDEST PUSH2 0x1822 JUMP JUMPDEST PUSH2 0x49F PUSH2 0x49A CALLDATASIZE PUSH1 0x4 PUSH2 0x24F3 JUMP JUMPDEST PUSH2 0x18C3 JUMP JUMPDEST PUSH1 0x40 MLOAD PUSH2 0x235 SWAP7 SWAP6 SWAP5 SWAP4 SWAP3 SWAP2 SWAP1 PUSH2 0x2A35 JUMP JUMPDEST PUSH2 0x2C2 PUSH2 0x4BF CALLDATASIZE PUSH1 0x4 PUSH2 0x273C JUMP JUMPDEST PUSH2 0x198E JUMP JUMPDEST PUSH2 0x2C2 PUSH2 0x4D2 CALLDATASIZE PUSH1 0x4 PUSH2 0x2A73 JUMP JUMPDEST PUSH2 0x19B3 JUMP JUMPDEST PUSH2 0x229 PUSH2 0x4E5 CALLDATASIZE PUSH1 0x4 PUSH2 0x24F3 JUMP JUMPDEST PUSH2 0x1B67 JUMP JUMPDEST PUSH2 0x3E7 PUSH2 0x1B97 JUMP JUMPDEST PUSH2 0x2C2 PUSH2 0x500 CALLDATASIZE PUSH1 0x4 PUSH2 0x29D6 JUMP JUMPDEST PUSH2 0x1C67 JUMP JUMPDEST PUSH2 0x2C2 PUSH2 0x513 CALLDATASIZE PUSH1 0x4 PUSH2 0x29F1 JUMP JUMPDEST PUSH2 0x1CB3 JUMP JUMPDEST PUSH2 0x2A2 PUSH2 0x526 CALLDATASIZE PUSH1 0x4 PUSH2 0x29F1 JUMP JUMPDEST PUSH2 0x1EAC JUMP JUMPDEST PUSH1 0x0 PUSH1 0x1 PUSH1 0x1 PUSH1 0xE0 SHL SUB NOT DUP3 AND PUSH4 0x7965DB0B PUSH1 0xE0 SHL EQ DUP1 PUSH2 0x55C JUMPI POP PUSH4 0x1FFC9A7 PUSH1 0xE0 SHL PUSH1 0x1 PUSH1 0x1 PUSH1 0xE0 SHL SUB NOT DUP4 AND EQ JUMPDEST SWAP3 SWAP2 POP POP JUMP JUMPDEST DUP1 MLOAD PUSH1 0x20 DUP2 DUP4 ADD DUP2 ADD DUP1 MLOAD PUSH1 0x2 DUP3 MSTORE SWAP3 DUP3 ADD SWAP2 SWAP1 SWAP4 ADD KECCAK256 SWAP2 MSTORE DUP1 SLOAD DUP2 SWAP1 PUSH2 0x588 SWAP1 PUSH2 0x2ADA JUMP JUMPDEST DUP1 PUSH1 0x1F ADD PUSH1 0x20 DUP1 SWAP2 DIV MUL PUSH1 0x20 ADD PUSH1 0x40 MLOAD SWAP1 DUP2 ADD PUSH1 0x40 MSTORE DUP1 SWAP3 SWAP2 SWAP1 DUP2 DUP2 MSTORE PUSH1 0x20 ADD DUP3 DUP1 SLOAD PUSH2 0x5B4 SWAP1 PUSH2 0x2ADA JUMP JUMPDEST DUP1 ISZERO PUSH2 0x601 JUMPI DUP1 PUSH1 0x1F LT PUSH2 0x5D6 JUMPI PUSH2 0x100 DUP1 DUP4 SLOAD DIV MUL DUP4 MSTORE SWAP2 PUSH1 0x20 ADD SWAP2 PUSH2 0x601 JUMP JUMPDEST DUP3 ADD SWAP2 SWAP1 PUSH1 0x0 MSTORE PUSH1 0x20 PUSH1 0x0 KECCAK256 SWAP1 JUMPDEST DUP2 SLOAD DUP2 MSTORE SWAP1 PUSH1 0x1 ADD SWAP1 PUSH1 0x20 ADD DUP1 DUP4 GT PUSH2 0x5E4 JUMPI DUP3 SWAP1 SUB PUSH1 0x1F AND DUP3 ADD SWAP2 JUMPDEST POP POP POP POP PUSH1 0x2 DUP4 ADD SLOAD PUSH1 0x3 DUP5 ADD SLOAD PUSH1 0x4 DUP6 ADD SLOAD PUSH1 0x5 DUP7 ADD SLOAD PUSH1 0x6 SWAP1 SWAP7 ADD SLOAD SWAP5 SWAP6 SWAP3 SWAP5 SWAP2 SWAP4 POP SWAP2 PUSH1 0xFF AND SWAP1 DUP7 JUMP JUMPDEST PUSH1 0x5 DUP2 DUP2 SLOAD DUP2 LT PUSH2 0x63E JUMPI PUSH1 0x0 DUP1 REVERT JUMPDEST SWAP1 PUSH1 0x0 MSTORE PUSH1 0x20 PUSH1 0x0 KECCAK256 ADD PUSH1 0x0 SWAP2 POP SWAP1 POP DUP1 SLOAD PUSH2 0x659 SWAP1 PUSH2 0x2ADA JUMP JUMPDEST DUP1 PUSH1 0x1F ADD PUSH1 0x20 DUP1 SWAP2 DIV MUL PUSH1 0x20 ADD PUSH1 0x40 MLOAD SWAP1 DUP2 ADD PUSH1 0x40 MSTORE DUP1 SWAP3 SWAP2 SWAP1 DUP2 DUP2 MSTORE PUSH1 0x20 ADD DUP3 DUP1 SLOAD PUSH2 0x685 SWAP1 PUSH2 0x2ADA JUMP JUMPDEST DUP1 ISZERO PUSH2 0x6D2 JUMPI DUP1 PUSH1 0x1F LT PUSH2 0x6A7 JUMPI PUSH2 0x100 DUP1 DUP4 SLOAD DIV MUL DUP4 MSTORE SWAP2 PUSH1 0x20 ADD SWAP2 PUSH2 0x6D2 JUMP JUMPDEST DUP3 ADD SWAP2 SWAP1 PUSH1 0x0 MSTORE PUSH1 0x20 PUSH1 0x0 KECCAK256 SWAP1 JUMPDEST DUP2 SLOAD DUP2 MSTORE SWAP1 PUSH1 0x1 ADD SWAP1 PUSH1 0x20 ADD DUP1 DUP4 GT PUSH2 0x6B5 JUMPI DUP3 SWAP1 SUB PUSH1 0x1F AND DUP3 ADD SWAP2 JUMPDEST POP POP POP POP POP DUP2 JUMP JUMPDEST PUSH2 0x6F2 PUSH1 0x0 DUP1 MLOAD PUSH1 0x20 PUSH2 0x2EC4 DUP4 CODECOPY DUP2 MLOAD SWAP2 MSTORE CALLER PUSH2 0x1799 JUMP JUMPDEST PUSH2 0x717 JUMPI PUSH1 0x40 MLOAD PUSH3 0x461BCD PUSH1 0xE5 SHL DUP2 MSTORE PUSH1 0x4 ADD PUSH2 0x70E SWAP1 PUSH2 0x2B14 JUMP JUMPDEST PUSH1 0x40 MLOAD DUP1 SWAP2 SUB SWAP1 REVERT JUMPDEST PUSH1 0x0 PUSH1 0x2 DUP5 PUSH1 0x40 MLOAD PUSH2 0x729 SWAP2 SWAP1 PUSH2 0x2B57 JUMP JUMPDEST SWAP1 DUP2 MSTORE PUSH1 0x40 MLOAD SWAP1 DUP2 SWAP1 SUB PUSH1 0x20 ADD SWAP1 KECCAK256 PUSH1 0x5 DUP2 ADD SLOAD SWAP1 SWAP2 POP PUSH1 0xFF AND PUSH2 0x78F JUMPI PUSH1 0x40 MLOAD PUSH3 0x461BCD PUSH1 0xE5 SHL DUP2 MSTORE PUSH1 0x20 PUSH1 0x4 DUP3 ADD MSTORE PUSH1 0x1D PUSH1 0x24 DUP3 ADD MSTORE PUSH32 0x53746F726167654F7261636C653A2044617461206E6F7420666F756E64000000 PUSH1 0x44 DUP3 ADD MSTORE PUSH1 0x64 ADD PUSH2 0x70E JUMP JUMPDEST DUP1 PUSH1 0x6 ADD SLOAD DUP3 EQ PUSH2 0x84E JUMPI DUP3 PUSH1 0x40 MLOAD PUSH2 0x7A8 SWAP2 SWAP1 PUSH2 0x2B57 JUMP JUMPDEST PUSH1 0x40 MLOAD DUP1 SWAP2 SUB SWAP1 KECCAK256 DUP5 PUSH1 0x40 MLOAD PUSH2 0x7BE SWAP2 SWAP1 PUSH2 0x2B57 JUMP JUMPDEST PUSH1 0x40 DUP1 MLOAD SWAP2 DUP3 SWAP1 SUB DUP3 KECCAK256 PUSH1 0x6 DUP6 ADD SLOAD DUP4 MSTORE PUSH1 0x20 DUP4 ADD DUP7 SWAP1 MSTORE SWAP2 PUSH32 0x1613C50515A34C2E9EE8235E18D6B855E233768D2A1A38DADE233B801B406D09 SWAP2 ADD PUSH1 0x40 MLOAD DUP1 SWAP2 SUB SWAP1 LOG3 PUSH1 0x0 PUSH1 0x3 DUP5 PUSH1 0x40 MLOAD PUSH2 0x814 SWAP2 SWAP1 PUSH2 0x2B57 JUMP JUMPDEST SWAP1 DUP2 MSTORE PUSH1 0x20 ADD PUSH1 0x40 MLOAD DUP1 SWAP2 SUB SWAP1 KECCAK256 SWAP1 POP PUSH1 0xA DUP2 PUSH1 0x3 ADD SLOAD GT ISZERO PUSH2 0x84C JUMPI PUSH1 0xA DUP2 PUSH1 0x3 ADD PUSH1 0x0 DUP3 DUP3 SLOAD PUSH2 0x846 SWAP2 SWAP1 PUSH2 0x2B89 JUMP JUMPDEST SWAP1 SWAP2 SSTORE POP POP JUMPDEST POP JUMPDEST POP POP POP POP JUMP JUMPDEST PUSH2 0x899 PUSH1 0x40 MLOAD DUP1 PUSH1 0xE0 ADD PUSH1 0x40 MSTORE DUP1 PUSH1 0x60 DUP2 MSTORE PUSH1 0x20 ADD PUSH1 0x60 DUP2 MSTORE PUSH1 0x20 ADD PUSH1 0x0 DUP2 MSTORE PUSH1 0x20 ADD PUSH1 0x0 DUP2 MSTORE PUSH1 0x20 ADD PUSH1 0x0 DUP2 MSTORE PUSH1 0x20 ADD PUSH1 0x0 ISZERO ISZERO DUP2 MSTORE PUSH1 0x20 ADD PUSH1 0x0 DUP1 NOT AND DUP2 MSTORE POP SWAP1 JUMP JUMPDEST PUSH1 0x2 DUP3 PUSH1 0x40 MLOAD PUSH2 0x8A9 SWAP2 SWAP1 PUSH2 0x2B57 JUMP JUMPDEST SWAP1 DUP2 MSTORE PUSH1 0x20 ADD PUSH1 0x40 MLOAD DUP1 SWAP2 SUB SWAP1 KECCAK256 PUSH1 0x40 MLOAD DUP1 PUSH1 0xE0 ADD PUSH1 0x40 MSTORE SWAP1 DUP2 PUSH1 0x0 DUP3 ADD DUP1 SLOAD PUSH2 0x8D2 SWAP1 PUSH2 0x2ADA JUMP JUMPDEST DUP1 PUSH1 0x1F ADD PUSH1 0x20 DUP1 SWAP2 DIV MUL PUSH1 0x20 ADD PUSH1 0x40 MLOAD SWAP1 DUP2 ADD PUSH1 0x40 MSTORE DUP1 SWAP3 SWAP2 SWAP1 DUP2 DUP2 MSTORE PUSH1 0x20 ADD DUP3 DUP1 SLOAD PUSH2 0x8FE SWAP1 PUSH2 0x2ADA JUMP JUMPDEST DUP1 ISZERO PUSH2 0x94B JUMPI DUP1 PUSH1 0x1F LT PUSH2 0x920 JUMPI PUSH2 0x100 DUP1 DUP4 SLOAD DIV MUL DUP4 MSTORE SWAP2 PUSH1 0x20 ADD SWAP2 PUSH2 0x94B JUMP JUMPDEST DUP3 ADD SWAP2 SWAP1 PUSH1 0x0 MSTORE PUSH1 0x20 PUSH1 0x0 KECCAK256 SWAP1 JUMPDEST DUP2 SLOAD DUP2 MSTORE SWAP1 PUSH1 0x1 ADD SWAP1 PUSH1 0x20 ADD DUP1 DUP4 GT PUSH2 0x92E JUMPI DUP3 SWAP1 SUB PUSH1 0x1F AND DUP3 ADD SWAP2 JUMPDEST POP POP POP POP POP DUP2 MSTORE PUSH1 0x20 ADD PUSH1 0x1 DUP3 ADD DUP1 SLOAD DUP1 PUSH1 0x20 MUL PUSH1 0x20 ADD PUSH1 0x40 MLOAD SWAP1 DUP2 ADD PUSH1 0x40 MSTORE DUP1 SWAP3 SWAP2 SWAP1 DUP2 DUP2 MSTORE PUSH1 0x20 ADD PUSH1 0x0 SWAP1 JUMPDEST DUP3 DUP3 LT ISZERO PUSH2 0xA25 JUMPI DUP4 DUP3 SWAP1 PUSH1 0x0 MSTORE PUSH1 0x20 PUSH1 0x0 KECCAK256 ADD DUP1 SLOAD PUSH2 0x998 SWAP1 PUSH2 0x2ADA JUMP JUMPDEST DUP1 PUSH1 0x1F ADD PUSH1 0x20 DUP1 SWAP2 DIV MUL PUSH1 0x20 ADD PUSH1 0x40 MLOAD SWAP1 DUP2 ADD PUSH1 0x40 MSTORE DUP1 SWAP3 SWAP2 SWAP1 DUP2 DUP2 MSTORE PUSH1 0x20 ADD DUP3 DUP1 SLOAD PUSH2 0x9C4 SWAP1 PUSH2 0x2ADA JUMP JUMPDEST DUP1 ISZERO PUSH2 0xA11 JUMPI DUP1 PUSH1 0x1F LT PUSH2 0x9E6 JUMPI PUSH2 0x100 DUP1 DUP4 SLOAD DIV MUL DUP4 MSTORE SWAP2 PUSH1 0x20 ADD SWAP2 PUSH2 0xA11 JUMP JUMPDEST DUP3 ADD SWAP2 SWAP1 PUSH1 0x0 MSTORE PUSH1 0x20 PUSH1 0x0 KECCAK256 SWAP1 JUMPDEST DUP2 SLOAD DUP2 MSTORE SWAP1 PUSH1 0x1 ADD SWAP1 PUSH1 0x20 ADD DUP1 DUP4 GT PUSH2 0x9F4 JUMPI DUP3 SWAP1 SUB PUSH1 0x1F AND DUP3 ADD SWAP2 JUMPDEST POP POP POP POP POP DUP2 MSTORE PUSH1 0x20 ADD SWAP1 PUSH1 0x1 ADD SWAP1 PUSH2 0x979 JUMP JUMPDEST POP POP POP SWAP1 DUP3 MSTORE POP PUSH1 0x2 DUP3 ADD SLOAD PUSH1 0x20 DUP3 ADD MSTORE PUSH1 0x3 DUP3 ADD SLOAD PUSH1 0x40 DUP3 ADD MSTORE PUSH1 0x4 DUP3 ADD SLOAD PUSH1 0x60 DUP3 ADD MSTORE PUSH1 0x5 DUP3 ADD SLOAD PUSH1 0xFF AND ISZERO ISZERO PUSH1 0x80 DUP3 ADD MSTORE PUSH1 0x6 SWAP1 SWAP2 ADD SLOAD PUSH1 0xA0 SWAP1 SWAP2 ADD MSTORE SWAP3 SWAP2 POP POP JUMP JUMPDEST PUSH1 0x0 DUP3 DUP2 MSTORE PUSH1 0x20 DUP2 SWAP1 MSTORE PUSH1 0x40 SWAP1 KECCAK256 PUSH1 0x1 ADD SLOAD PUSH2 0xA86 DUP2 PUSH2 0x1EF3 JUMP JUMPDEST PUSH2 0x84E DUP4 DUP4 PUSH2 0x1EFD JUMP JUMPDEST PUSH1 0x1 PUSH1 0x1 PUSH1 0xA0 SHL SUB DUP2 AND CALLER EQ PUSH2 0xAB9 JUMPI PUSH1 0x40 MLOAD PUSH4 0x334BD919 PUSH1 0xE1 SHL DUP2 MSTORE PUSH1 0x4 ADD PUSH1 0x40 MLOAD DUP1 SWAP2 SUB SWAP1 REVERT JUMPDEST PUSH2 0xAC3 DUP3 DUP3 PUSH2 0x1F8F JUMP JUMPDEST POP POP POP JUMP JUMPDEST DUP1 MLOAD PUSH1 0x20 DUP2 DUP4 ADD DUP2 ADD DUP1 MLOAD PUSH1 0x4 DUP3 MSTORE SWAP3 DUP3 ADD SWAP2 SWAP1 SWAP4 ADD KECCAK256 SWAP2 MSTORE DUP1 SLOAD DUP2 SWAP1 PUSH2 0xAEE SWAP1 PUSH2 0x2ADA JUMP JUMPDEST DUP1 PUSH1 0x1F ADD PUSH1 0x20 DUP1 SWAP2 DIV MUL PUSH1 0x20 ADD PUSH1 0x40 MLOAD SWAP1 DUP2 ADD PUSH1 0x40 MSTORE DUP1 SWAP3 SWAP2 SWAP1 DUP2 DUP2 MSTORE PUSH1 0x20 ADD DUP3 DUP1 SLOAD PUSH2 0xB1A SWAP1 PUSH2 0x2ADA JUMP JUMPDEST DUP1 ISZERO PUSH2 0xB67 JUMPI DUP1 PUSH1 0x1F LT PUSH2 0xB3C JUMPI PUSH2 0x100 DUP1 DUP4 SLOAD DIV MUL DUP4 MSTORE SWAP2 PUSH1 0x20 ADD SWAP2 PUSH2 0xB67 JUMP JUMPDEST DUP3 ADD SWAP2 SWAP1 PUSH1 0x0 MSTORE PUSH1 0x20 PUSH1 0x0 KECCAK256 SWAP1 JUMPDEST DUP2 SLOAD DUP2 MSTORE SWAP1 PUSH1 0x1 ADD SWAP1 PUSH1 0x20 ADD DUP1 DUP4 GT PUSH2 0xB4A JUMPI DUP3 SWAP1 SUB PUSH1 0x1F AND DUP3 ADD SWAP2 JUMPDEST POP POP POP POP PUSH1 0x1 DUP4 ADD SLOAD PUSH1 0x2 DUP5 ADD SLOAD PUSH1 0x3 DUP6 ADD SLOAD PUSH1 0x4 SWAP1 SWAP6 ADD SLOAD SWAP4 SWAP5 SWAP2 SWAP4 SWAP1 SWAP3 POP PUSH1 0xFF AND DUP6 JUMP JUMPDEST PUSH2 0xBA5 PUSH1 0x0 DUP1 MLOAD PUSH1 0x20 PUSH2 0x2EC4 DUP4 CODECOPY DUP2 MLOAD SWAP2 MSTORE CALLER PUSH2 0x1799 JUMP JUMPDEST PUSH2 0xBC1 JUMPI PUSH1 0x40 MLOAD PUSH3 0x461BCD PUSH1 0xE5 SHL DUP2 MSTORE PUSH1 0x4 ADD PUSH2 0x70E SWAP1 PUSH2 0x2B14 JUMP JUMPDEST PUSH1 0x0 PUSH1 0x3 DUP3 PUSH1 0x40 MLOAD PUSH2 0xBD3 SWAP2 SWAP1 PUSH2 0x2B57 JUMP JUMPDEST SWAP1 DUP2 MSTORE PUSH1 0x40 MLOAD SWAP1 DUP2 SWAP1 SUB PUSH1 0x20 ADD SWAP1 KECCAK256 PUSH1 0x5 DUP2 ADD SLOAD SWAP1 SWAP2 POP PUSH1 0xFF AND PUSH2 0xC53 JUMPI PUSH1 0x40 MLOAD PUSH3 0x461BCD PUSH1 0xE5 SHL DUP2 MSTORE PUSH1 0x20 PUSH1 0x4 DUP3 ADD MSTORE PUSH1 0x31 PUSH1 0x24 DUP3 ADD MSTORE PUSH32 0x53746F726167654F7261636C653A204E6F6465206E6F7420666F756E64206F72 PUSH1 0x44 DUP3 ADD MSTORE PUSH17 0x20616C726561647920696E616374697665 PUSH1 0x78 SHL PUSH1 0x64 DUP3 ADD MSTORE PUSH1 0x84 ADD PUSH2 0x70E JUMP JUMPDEST PUSH1 0x5 DUP2 ADD DUP1 SLOAD PUSH1 0xFF NOT AND SWAP1 SSTORE PUSH1 0x9 DUP1 SLOAD SWAP1 PUSH1 0x0 PUSH2 0xC6F DUP4 PUSH2 0x2B9C JUMP JUMPDEST SWAP2 SWAP1 POP SSTORE POP DUP2 PUSH1 0x40 MLOAD PUSH2 0xC82 SWAP2 SWAP1 PUSH2 0x2B57 JUMP JUMPDEST PUSH1 0x40 MLOAD SWAP1 DUP2 SWAP1 SUB DUP2 KECCAK256 SWAP1 PUSH32 0xB4551525DAFBACBCBAD53F3A1AD477E2DE2428DCD5832AE46D8EDACF8C2959D5 SWAP1 PUSH1 0x0 SWAP1 LOG2 PUSH1 0x0 PUSH1 0x7 DUP4 PUSH1 0x40 MLOAD PUSH2 0xCC4 SWAP2 SWAP1 PUSH2 0x2B57 JUMP JUMPDEST SWAP1 DUP2 MSTORE PUSH1 0x20 ADD PUSH1 0x40 MLOAD DUP1 SWAP2 SUB SWAP1 KECCAK256 SWAP1 POP PUSH1 0x0 JUMPDEST DUP2 SLOAD DUP2 LT ISZERO PUSH2 0x84E JUMPI PUSH2 0xD8D DUP3 DUP3 DUP2 SLOAD DUP2 LT PUSH2 0xCF5 JUMPI PUSH2 0xCF5 PUSH2 0x2BB3 JUMP JUMPDEST SWAP1 PUSH1 0x0 MSTORE PUSH1 0x20 PUSH1 0x0 KECCAK256 ADD DUP1 SLOAD PUSH2 0xD0A SWAP1 PUSH2 0x2ADA JUMP JUMPDEST DUP1 PUSH1 0x1F ADD PUSH1 0x20 DUP1 SWAP2 DIV MUL PUSH1 0x20 ADD PUSH1 0x40 MLOAD SWAP1 DUP2 ADD PUSH1 0x40 MSTORE DUP1 SWAP3 SWAP2 SWAP1 DUP2 DUP2 MSTORE PUSH1 0x20 ADD DUP3 DUP1 SLOAD PUSH2 0xD36 SWAP1 PUSH2 0x2ADA JUMP JUMPDEST DUP1 ISZERO PUSH2 0xD83 JUMPI DUP1 PUSH1 0x1F LT PUSH2 0xD58 JUMPI PUSH2 0x100 DUP1 DUP4 SLOAD DIV MUL DUP4 MSTORE SWAP2 PUSH1 0x20 ADD SWAP2 PUSH2 0xD83 JUMP JUMPDEST DUP3 ADD SWAP2 SWAP1 PUSH1 0x0 MSTORE PUSH1 0x20 PUSH1 0x0 KECCAK256 SWAP1 JUMPDEST DUP2 SLOAD DUP2 MSTORE SWAP1 PUSH1 0x1 ADD SWAP1 PUSH1 0x20 ADD DUP1 DUP4 GT PUSH2 0xD66 JUMPI DUP3 SWAP1 SUB PUSH1 0x1F AND DUP3 ADD SWAP2 JUMPDEST POP POP POP POP POP PUSH2 0x1FFA JUMP JUMPDEST PUSH1 0x1 ADD PUSH2 0xCD7 JUMP JUMPDEST PUSH2 0xDAD PUSH1 0x0 DUP1 MLOAD PUSH1 0x20 PUSH2 0x2EC4 DUP4 CODECOPY DUP2 MLOAD SWAP2 MSTORE CALLER PUSH2 0x1799 JUMP JUMPDEST PUSH2 0xDC9 JUMPI PUSH1 0x40 MLOAD PUSH3 0x461BCD PUSH1 0xE5 SHL DUP2 MSTORE PUSH1 0x4 ADD PUSH2 0x70E SWAP1 PUSH2 0x2B14 JUMP JUMPDEST PUSH2 0xDD1 PUSH2 0x2048 JUMP JUMPDEST PUSH1 0x0 DUP5 MLOAD GT PUSH2 0xE22 JUMPI PUSH1 0x40 MLOAD PUSH3 0x461BCD PUSH1 0xE5 SHL DUP2 MSTORE PUSH1 0x20 PUSH1 0x4 DUP3 ADD DUP2 SWAP1 MSTORE PUSH1 0x24 DUP3 ADD MSTORE PUSH32 0x53746F726167654F7261636C653A20496E76616C696420726F6F742068617368 PUSH1 0x44 DUP3 ADD MSTORE PUSH1 0x64 ADD PUSH2 0x70E JUMP JUMPDEST PUSH1 0x0 DUP4 MLOAD GT PUSH2 0xE84 JUMPI PUSH1 0x40 MLOAD PUSH3 0x461BCD PUSH1 0xE5 SHL DUP2 MSTORE PUSH1 0x20 PUSH1 0x4 DUP3 ADD MSTORE PUSH1 0x28 PUSH1 0x24 DUP3 ADD MSTORE PUSH32 0x53746F726167654F7261636C653A204E6F2073746F72616765206E6F64657320 PUSH1 0x44 DUP3 ADD MSTORE PUSH8 0x1C1C9BDD9A591959 PUSH1 0xC2 SHL PUSH1 0x64 DUP3 ADD MSTORE PUSH1 0x84 ADD PUSH2 0x70E JUMP JUMPDEST PUSH1 0x0 DUP3 GT PUSH2 0xED4 JUMPI PUSH1 0x40 MLOAD PUSH3 0x461BCD PUSH1 0xE5 SHL DUP2 MSTORE PUSH1 0x20 PUSH1 0x4 DUP3 ADD MSTORE PUSH1 0x1B PUSH1 0x24 DUP3 ADD MSTORE PUSH32 0x53746F726167654F7261636C653A20496E76616C69642073697A650000000000 PUSH1 0x44 DUP3 ADD MSTORE PUSH1 0x64 ADD PUSH2 0x70E JUMP JUMPDEST PUSH1 0x0 PUSH1 0x2 DUP6 PUSH1 0x40 MLOAD PUSH2 0xEE6 SWAP2 SWAP1 PUSH2 0x2B57 JUMP JUMPDEST SWAP1 DUP2 MSTORE PUSH1 0x40 MLOAD SWAP1 DUP2 SWAP1 SUB PUSH1 0x20 ADD SWAP1 KECCAK256 PUSH1 0x5 DUP2 ADD SLOAD SWAP1 SWAP2 POP PUSH1 0xFF AND PUSH2 0xF5E JUMPI PUSH1 0x5 DUP1 SLOAD PUSH1 0x1 DUP2 ADD DUP3 SSTORE PUSH1 0x0 SWAP2 SWAP1 SWAP2 MSTORE PUSH32 0x36B6384B5ECA791C62761152D0C79BB0604C104A5FB6F4EB0703F3154BB3DB0 ADD PUSH2 0xF40 DUP7 DUP3 PUSH2 0x2C10 JUMP JUMPDEST POP DUP3 PUSH1 0x8 PUSH1 0x0 DUP3 DUP3 SLOAD PUSH2 0xF53 SWAP2 SWAP1 PUSH2 0x2CD1 JUMP JUMPDEST SWAP1 SWAP2 SSTORE POP PUSH2 0xF7F SWAP1 POP JUMP JUMPDEST DUP3 DUP2 PUSH1 0x2 ADD SLOAD PUSH1 0x8 SLOAD PUSH2 0xF71 SWAP2 SWAP1 PUSH2 0x2B89 JUMP JUMPDEST PUSH2 0xF7B SWAP2 SWAP1 PUSH2 0x2CD1 JUMP JUMPDEST PUSH1 0x8 SSTORE JUMPDEST DUP1 PUSH2 0xF8A DUP7 DUP3 PUSH2 0x2C10 JUMP JUMPDEST POP DUP4 MLOAD PUSH2 0xFA0 SWAP1 PUSH1 0x1 DUP4 ADD SWAP1 PUSH1 0x20 DUP8 ADD SWAP1 PUSH2 0x234B JUMP JUMPDEST POP PUSH1 0x2 DUP2 ADD DUP4 SWAP1 SSTORE DUP4 MLOAD PUSH1 0x3 DUP3 ADD SSTORE TIMESTAMP PUSH1 0x4 DUP3 ADD SSTORE PUSH1 0x5 DUP2 ADD DUP1 SLOAD PUSH1 0xFF NOT AND PUSH1 0x1 OR SWAP1 SSTORE PUSH1 0x6 DUP2 ADD DUP3 SWAP1 SSTORE PUSH1 0x0 JUMPDEST DUP5 MLOAD DUP2 LT ISZERO PUSH2 0x1027 JUMPI PUSH2 0xFFA DUP6 DUP3 DUP2 MLOAD DUP2 LT PUSH2 0xFEC JUMPI PUSH2 0xFEC PUSH2 0x2BB3 JUMP JUMPDEST PUSH1 0x20 MUL PUSH1 0x20 ADD ADD MLOAD DUP8 PUSH2 0x2072 JUMP JUMPDEST PUSH2 0x101F DUP6 DUP3 DUP2 MLOAD DUP2 LT PUSH2 0x100F JUMPI PUSH2 0x100F PUSH2 0x2BB3 JUMP JUMPDEST PUSH1 0x20 MUL PUSH1 0x20 ADD ADD MLOAD DUP6 PUSH1 0x1 PUSH2 0x20AD JUMP JUMPDEST PUSH1 0x1 ADD PUSH2 0xFCE JUMP JUMPDEST POP DUP5 PUSH1 0x40 MLOAD PUSH2 0x1036 SWAP2 SWAP1 PUSH2 0x2B57 JUMP JUMPDEST PUSH1 0x40 MLOAD DUP1 SWAP2 SUB SWAP1 KECCAK256 PUSH32 0x2E26E697E6E4820176953B372A8B1BD11A29D1E2B484F95FF59D316B3A1C1C09 DUP6 DUP6 DUP8 MLOAD PUSH1 0x40 MLOAD PUSH2 0x1072 SWAP4 SWAP3 SWAP2 SWAP1 PUSH2 0x2CE4 JUMP JUMPDEST PUSH1 0x40 MLOAD DUP1 SWAP2 SUB SWAP1 LOG2 PUSH1 0xA SLOAD DUP5 MLOAD LT ISZERO PUSH2 0x1091 JUMPI PUSH2 0x1091 DUP6 PUSH1 0xA SLOAD PUSH2 0x211E JUMP JUMPDEST POP PUSH2 0x84E PUSH1 0x1 DUP1 SSTORE JUMP JUMPDEST PUSH2 0x10D6 PUSH1 0x40 MLOAD DUP1 PUSH1 0xC0 ADD PUSH1 0x40 MSTORE DUP1 PUSH1 0x60 DUP2 MSTORE PUSH1 0x20 ADD PUSH1 0x0 DUP2 MSTORE PUSH1 0x20 ADD PUSH1 0x0 DUP2 MSTORE PUSH1 0x20 ADD PUSH1 0x0 DUP2 MSTORE PUSH1 0x20 ADD PUSH1 0x0 DUP2 MSTORE PUSH1 0x20 ADD PUSH1 0x0 ISZERO ISZERO DUP2 MSTORE POP SWAP1 JUMP JUMPDEST PUSH1 0x3 DUP3 PUSH1 0x40 MLOAD PUSH2 0x10E6 SWAP2 SWAP1 PUSH2 0x2B57 JUMP JUMPDEST SWAP1 DUP2 MSTORE PUSH1 0x20 ADD PUSH1 0x40 MLOAD DUP1 SWAP2 SUB SWAP1 KECCAK256 PUSH1 0x40 MLOAD DUP1 PUSH1 0xC0 ADD PUSH1 0x40 MSTORE SWAP1 DUP2 PUSH1 0x0 DUP3 ADD DUP1 SLOAD PUSH2 0x110F SWAP1 PUSH2 0x2ADA JUMP JUMPDEST DUP1 PUSH1 0x1F ADD PUSH1 0x20 DUP1 SWAP2 DIV MUL PUSH1 0x20 ADD PUSH1 0x40 MLOAD SWAP1 DUP2 ADD PUSH1 0x40 MSTORE DUP1 SWAP3 SWAP2 SWAP1 DUP2 DUP2 MSTORE PUSH1 0x20 ADD DUP3 DUP1 SLOAD PUSH2 0x113B SWAP1 PUSH2 0x2ADA JUMP JUMPDEST DUP1 ISZERO PUSH2 0x1188 JUMPI DUP1 PUSH1 0x1F LT PUSH2 0x115D JUMPI PUSH2 0x100 DUP1 DUP4 SLOAD DIV MUL DUP4 MSTORE SWAP2 PUSH1 0x20 ADD SWAP2 PUSH2 0x1188 JUMP JUMPDEST DUP3 ADD SWAP2 SWAP1 PUSH1 0x0 MSTORE PUSH1 0x20 PUSH1 0x0 KECCAK256 SWAP1 JUMPDEST DUP2 SLOAD DUP2 MSTORE SWAP1 PUSH1 0x1 ADD SWAP1 PUSH1 0x20 ADD DUP1 DUP4 GT PUSH2 0x116B JUMPI DUP3 SWAP1 SUB PUSH1 0x1F AND DUP3 ADD SWAP2 JUMPDEST POP POP POP SWAP2 DUP4 MSTORE POP POP PUSH1 0x1 DUP3 ADD SLOAD PUSH1 0x20 DUP3 ADD MSTORE PUSH1 0x2 DUP3 ADD SLOAD PUSH1 0x40 DUP3 ADD MSTORE PUSH1 0x3 DUP3 ADD SLOAD PUSH1 0x60 DUP3 ADD MSTORE PUSH1 0x4 DUP3 ADD SLOAD PUSH1 0x80 DUP3 ADD MSTORE PUSH1 0x5 SWAP1 SWAP2 ADD SLOAD PUSH1 0xFF AND ISZERO ISZERO PUSH1 0xA0 SWAP1 SWAP2 ADD MSTORE SWAP3 SWAP2 POP POP JUMP JUMPDEST PUSH2 0x11E7 PUSH1 0x0 DUP1 MLOAD PUSH1 0x20 PUSH2 0x2EE4 DUP4 CODECOPY DUP2 MLOAD SWAP2 MSTORE CALLER PUSH2 0x1799 JUMP JUMPDEST PUSH2 0x1203 JUMPI PUSH1 0x40 MLOAD PUSH3 0x461BCD PUSH1 0xE5 SHL DUP2 MSTORE PUSH1 0x4 ADD PUSH2 0x70E SWAP1 PUSH2 0x2D09 JUMP JUMPDEST PUSH1 0x0 DUP2 GT PUSH2 0x1265 JUMPI PUSH1 0x40 MLOAD PUSH3 0x461BCD PUSH1 0xE5 SHL DUP2 MSTORE PUSH1 0x20 PUSH1 0x4 DUP3 ADD MSTORE PUSH1 0x29 PUSH1 0x24 DUP3 ADD MSTORE PUSH32 0x53746F726167654F7261636C653A20496E76616C6964207265706C6963617469 PUSH1 0x44 DUP3 ADD MSTORE PUSH9 0x37B7103330B1BA37B9 PUSH1 0xB9 SHL PUSH1 0x64 DUP3 ADD MSTORE PUSH1 0x84 ADD PUSH2 0x70E JUMP JUMPDEST PUSH1 0xA SSTORE JUMP JUMPDEST PUSH1 0x60 PUSH1 0x6 DUP1 SLOAD DUP1 PUSH1 0x20 MUL PUSH1 0x20 ADD PUSH1 0x40 MLOAD SWAP1 DUP2 ADD PUSH1 0x40 MSTORE DUP1 SWAP3 SWAP2 SWAP1 DUP2 DUP2 MSTORE PUSH1 0x20 ADD PUSH1 0x0 SWAP1 JUMPDEST DUP3 DUP3 LT ISZERO PUSH2 0x133A JUMPI DUP4 DUP3 SWAP1 PUSH1 0x0 MSTORE PUSH1 0x20 PUSH1 0x0 KECCAK256 ADD DUP1 SLOAD PUSH2 0x12AD SWAP1 PUSH2 0x2ADA JUMP JUMPDEST DUP1 PUSH1 0x1F ADD PUSH1 0x20 DUP1 SWAP2 DIV MUL PUSH1 0x20 ADD PUSH1 0x40 MLOAD SWAP1 DUP2 ADD PUSH1 0x40 MSTORE DUP1 SWAP3 SWAP2 SWAP1 DUP2 DUP2 MSTORE PUSH1 0x20 ADD DUP3 DUP1 SLOAD PUSH2 0x12D9 SWAP1 PUSH2 0x2ADA JUMP JUMPDEST DUP1 ISZERO PUSH2 0x1326 JUMPI DUP1 PUSH1 0x1F LT PUSH2 0x12FB JUMPI PUSH2 0x100 DUP1 DUP4 SLOAD DIV MUL DUP4 MSTORE SWAP2 PUSH1 0x20 ADD SWAP2 PUSH2 0x1326 JUMP JUMPDEST DUP3 ADD SWAP2 SWAP1 PUSH1 0x0 MSTORE PUSH1 0x20 PUSH1 0x0 KECCAK256 SWAP1 JUMPDEST DUP2 SLOAD DUP2 MSTORE SWAP1 PUSH1 0x1 ADD SWAP1 PUSH1 0x20 ADD DUP1 DUP4 GT PUSH2 0x1309 JUMPI DUP3 SWAP1 SUB PUSH1 0x1F AND DUP3 ADD SWAP2 JUMPDEST POP POP POP POP POP DUP2 MSTORE PUSH1 0x20 ADD SWAP1 PUSH1 0x1 ADD SWAP1 PUSH2 0x128E JUMP JUMPDEST POP POP POP POP SWAP1 POP SWAP1 JUMP JUMPDEST PUSH2 0x135B PUSH1 0x0 DUP1 MLOAD PUSH1 0x20 PUSH2 0x2EC4 DUP4 CODECOPY DUP2 MLOAD SWAP2 MSTORE CALLER PUSH2 0x1799 JUMP JUMPDEST PUSH2 0x1377 JUMPI PUSH1 0x40 MLOAD PUSH3 0x461BCD PUSH1 0xE5 SHL DUP2 MSTORE PUSH1 0x4 ADD PUSH2 0x70E SWAP1 PUSH2 0x2B14 JUMP JUMPDEST PUSH1 0x0 PUSH1 0x3 DUP5 PUSH1 0x40 MLOAD PUSH2 0x1389 SWAP2 SWAP1 PUSH2 0x2B57 JUMP JUMPDEST SWAP1 DUP2 MSTORE PUSH1 0x40 MLOAD SWAP1 DUP2 SWAP1 SUB PUSH1 0x20 ADD SWAP1 KECCAK256 PUSH1 0x5 DUP2 ADD SLOAD SWAP1 SWAP2 POP PUSH1 0xFF AND PUSH2 0x1401 JUMPI PUSH1 0x40 MLOAD PUSH3 0x461BCD PUSH1 0xE5 SHL DUP2 MSTORE PUSH1 0x20 PUSH1 0x4 DUP3 ADD MSTORE PUSH1 0x29 PUSH1 0x24 DUP3 ADD MSTORE PUSH32 0x53746F726167654F7261636C653A204E6F6465206E6F7420666F756E64206F72 PUSH1 0x44 DUP3 ADD MSTORE PUSH9 0x20696E616374697665 PUSH1 0xB8 SHL PUSH1 0x64 DUP3 ADD MSTORE PUSH1 0x84 ADD PUSH2 0x70E JUMP JUMPDEST PUSH1 0x64 DUP3 GT ISZERO PUSH2 0x1463 JUMPI PUSH1 0x40 MLOAD PUSH3 0x461BCD PUSH1 0xE5 SHL DUP2 MSTORE PUSH1 0x20 PUSH1 0x4 DUP3 ADD MSTORE PUSH1 0x28 PUSH1 0x24 DUP3 ADD MSTORE PUSH32 0x53746F726167654F7261636C653A20496E76616C69642072656C696162696C69 PUSH1 0x44 DUP3 ADD MSTORE PUSH8 0x74792073636F7265 PUSH1 0xC0 SHL PUSH1 0x64 DUP3 ADD MSTORE PUSH1 0x84 ADD PUSH2 0x70E JUMP JUMPDEST PUSH1 0x2 DUP2 ADD DUP4 SWAP1 SSTORE PUSH1 0x3 DUP2 ADD DUP3 SWAP1 SSTORE TIMESTAMP PUSH1 0x4 DUP3 ADD SSTORE PUSH1 0x40 MLOAD PUSH2 0x1485 SWAP1 DUP6 SWAP1 PUSH2 0x2B57 JUMP JUMPDEST PUSH1 0x40 DUP1 MLOAD SWAP2 DUP3 SWAP1 SUB DUP3 KECCAK256 DUP6 DUP4 MSTORE PUSH1 0x20 DUP4 ADD DUP6 SWAP1 MSTORE SWAP2 PUSH32 0xD5D823685676E88E287C4DCB16E87CBF25D719D8FFF88C54D82B918A282399F SWAP2 ADD JUMPDEST PUSH1 0x40 MLOAD DUP1 SWAP2 SUB SWAP1 LOG2 POP POP POP POP JUMP JUMPDEST PUSH2 0x14E4 PUSH1 0x0 DUP1 MLOAD PUSH1 0x20 PUSH2 0x2EC4 DUP4 CODECOPY DUP2 MLOAD SWAP2 MSTORE CALLER PUSH2 0x1799 JUMP JUMPDEST PUSH2 0x1500 JUMPI PUSH1 0x40 MLOAD PUSH3 0x461BCD PUSH1 0xE5 SHL DUP2 MSTORE PUSH1 0x4 ADD PUSH2 0x70E SWAP1 PUSH2 0x2B14 JUMP JUMPDEST PUSH2 0x1508 PUSH2 0x2048 JUMP JUMPDEST PUSH1 0x0 PUSH1 0x2 DUP3 PUSH1 0x40 MLOAD PUSH2 0x151A SWAP2 SWAP1 PUSH2 0x2B57 JUMP JUMPDEST SWAP1 DUP2 MSTORE PUSH1 0x40 MLOAD SWAP1 DUP2 SWAP1 SUB PUSH1 0x20 ADD SWAP1 KECCAK256 PUSH1 0x5 DUP2 ADD SLOAD SWAP1 SWAP2 POP PUSH1 0xFF AND PUSH2 0x1599 JUMPI PUSH1 0x40 MLOAD PUSH3 0x461BCD PUSH1 0xE5 SHL DUP2 MSTORE PUSH1 0x20 PUSH1 0x4 DUP3 ADD MSTORE PUSH1 0x30 PUSH1 0x24 DUP3 ADD MSTORE PUSH32 0x53746F726167654F7261636C653A2044617461206E6F7420666F756E64206F72 PUSH1 0x44 DUP3 ADD MSTORE PUSH16 0x8185B1C9958591E481C995B5BDD9959 PUSH1 0x82 SHL PUSH1 0x64 DUP3 ADD MSTORE PUSH1 0x84 ADD PUSH2 0x70E JUMP JUMPDEST PUSH1 0x0 JUMPDEST PUSH1 0x1 DUP3 ADD SLOAD DUP2 LT ISZERO PUSH2 0x1718 JUMPI PUSH2 0x165F DUP3 PUSH1 0x1 ADD DUP3 DUP2 SLOAD DUP2 LT PUSH2 0x15C0 JUMPI PUSH2 0x15C0 PUSH2 0x2BB3 JUMP JUMPDEST SWAP1 PUSH1 0x0 MSTORE PUSH1 0x20 PUSH1 0x0 KECCAK256 ADD DUP1 SLOAD PUSH2 0x15D5 SWAP1 PUSH2 0x2ADA JUMP JUMPDEST DUP1 PUSH1 0x1F ADD PUSH1 0x20 DUP1 SWAP2 DIV MUL PUSH1 0x20 ADD PUSH1 0x40 MLOAD SWAP1 DUP2 ADD PUSH1 0x40 MSTORE DUP1 SWAP3 SWAP2 SWAP1 DUP2 DUP2 MSTORE PUSH1 0x20 ADD DUP3 DUP1 SLOAD PUSH2 0x1601 SWAP1 PUSH2 0x2ADA JUMP JUMPDEST DUP1 ISZERO PUSH2 0x164E JUMPI DUP1 PUSH1 0x1F LT PUSH2 0x1623 JUMPI PUSH2 0x100 DUP1 DUP4 SLOAD DIV MUL DUP4 MSTORE SWAP2 PUSH1 0x20 ADD SWAP2 PUSH2 0x164E JUMP JUMPDEST DUP3 ADD SWAP2 SWAP1 PUSH1 0x0 MSTORE PUSH1 0x20 PUSH1 0x0 KECCAK256 SWAP1 JUMPDEST DUP2 SLOAD DUP2 MSTORE SWAP1 PUSH1 0x1 ADD SWAP1 PUSH1 0x20 ADD DUP1 DUP4 GT PUSH2 0x1631 JUMPI DUP3 SWAP1 SUB PUSH1 0x1F AND DUP3 ADD SWAP2 JUMPDEST POP POP POP POP POP DUP4 PUSH1 0x2 ADD SLOAD PUSH1 0x0 PUSH2 0x20AD JUMP JUMPDEST PUSH2 0x1710 DUP3 PUSH1 0x1 ADD DUP3 DUP2 SLOAD DUP2 LT PUSH2 0x1677 JUMPI PUSH2 0x1677 PUSH2 0x2BB3 JUMP JUMPDEST SWAP1 PUSH1 0x0 MSTORE PUSH1 0x20 PUSH1 0x0 KECCAK256 ADD DUP1 SLOAD PUSH2 0x168C SWAP1 PUSH2 0x2ADA JUMP JUMPDEST DUP1 PUSH1 0x1F ADD PUSH1 0x20 DUP1 SWAP2 DIV MUL PUSH1 0x20 ADD PUSH1 0x40 MLOAD SWAP1 DUP2 ADD PUSH1 0x40 MSTORE DUP1 SWAP3 SWAP2 SWAP1 DUP2 DUP2 MSTORE PUSH1 0x20 ADD DUP3 DUP1 SLOAD PUSH2 0x16B8 SWAP1 PUSH2 0x2ADA JUMP JUMPDEST DUP1 ISZERO PUSH2 0x1705 JUMPI DUP1 PUSH1 0x1F LT PUSH2 0x16DA JUMPI PUSH2 0x100 DUP1 DUP4 SLOAD DIV MUL DUP4 MSTORE SWAP2 PUSH1 0x20 ADD SWAP2 PUSH2 0x1705 JUMP JUMPDEST DUP3 ADD SWAP2 SWAP1 PUSH1 0x0 MSTORE PUSH1 0x20 PUSH1 0x0 KECCAK256 SWAP1 JUMPDEST DUP2 SLOAD DUP2 MSTORE SWAP1 PUSH1 0x1 ADD SWAP1 PUSH1 0x20 ADD DUP1 DUP4 GT PUSH2 0x16E8 JUMPI DUP3 SWAP1 SUB PUSH1 0x1F AND DUP3 ADD SWAP2 JUMPDEST POP POP POP POP POP DUP5 PUSH2 0x2218 JUMP JUMPDEST PUSH1 0x1 ADD PUSH2 0x159C JUMP JUMPDEST POP DUP1 PUSH1 0x2 ADD SLOAD PUSH1 0x8 PUSH1 0x0 DUP3 DUP3 SLOAD PUSH2 0x172F SWAP2 SWAP1 PUSH2 0x2B89 JUMP JUMPDEST SWAP1 SWAP2 SSTORE POP POP PUSH1 0x5 DUP2 ADD DUP1 SLOAD PUSH1 0xFF NOT AND SWAP1 SSTORE PUSH1 0x40 MLOAD PUSH2 0x174E SWAP1 DUP4 SWAP1 PUSH2 0x2B57 JUMP JUMPDEST PUSH1 0x40 MLOAD SWAP1 DUP2 SWAP1 SUB DUP2 KECCAK256 PUSH1 0x2 DUP4 ADD SLOAD DUP3 MSTORE SWAP1 PUSH32 0x4D66688FA673C7F3259A7C8F40AD1F957E197FA8AFA380524DD2D061EC7E0EDD SWAP1 PUSH1 0x20 ADD PUSH1 0x40 MLOAD DUP1 SWAP2 SUB SWAP1 LOG2 POP PUSH2 0x1796 PUSH1 0x1 DUP1 SSTORE JUMP JUMPDEST POP JUMP JUMPDEST PUSH1 0x0 SWAP2 DUP3 MSTORE PUSH1 0x20 DUP3 DUP2 MSTORE PUSH1 0x40 DUP1 DUP5 KECCAK256 PUSH1 0x1 PUSH1 0x1 PUSH1 0xA0 SHL SUB SWAP4 SWAP1 SWAP4 AND DUP5 MSTORE SWAP2 SWAP1 MSTORE SWAP1 KECCAK256 SLOAD PUSH1 0xFF AND SWAP1 JUMP JUMPDEST PUSH1 0x6 DUP2 DUP2 SLOAD DUP2 LT PUSH2 0x63E JUMPI PUSH1 0x0 DUP1 REVERT JUMPDEST PUSH2 0x17EA PUSH1 0x0 DUP1 MLOAD PUSH1 0x20 PUSH2 0x2EE4 DUP4 CODECOPY DUP2 MLOAD SWAP2 MSTORE CALLER PUSH2 0x1799 JUMP JUMPDEST PUSH2 0x1806 JUMPI PUSH1 0x40 MLOAD PUSH3 0x461BCD PUSH1 0xE5 SHL DUP2 MSTORE PUSH1 0x4 ADD PUSH2 0x70E SWAP1 PUSH2 0x2D09 JUMP JUMPDEST PUSH2 0x181E PUSH1 0x0 DUP1 MLOAD PUSH1 0x20 PUSH2 0x2EC4 DUP4 CODECOPY DUP2 MLOAD SWAP2 MSTORE DUP3 PUSH2 0x1F8F JUMP JUMPDEST POP POP JUMP JUMPDEST PUSH2 0x183A PUSH1 0x0 DUP1 MLOAD PUSH1 0x20 PUSH2 0x2EC4 DUP4 CODECOPY DUP2 MLOAD SWAP2 MSTORE CALLER PUSH2 0x1799 JUMP JUMPDEST PUSH2 0x1856 JUMPI PUSH1 0x40 MLOAD PUSH3 0x461BCD PUSH1 0xE5 SHL DUP2 MSTORE PUSH1 0x4 ADD PUSH2 0x70E SWAP1 PUSH2 0x2B14 JUMP JUMPDEST PUSH1 0xA SLOAD DUP2 LT ISZERO PUSH2 0x18B9 JUMPI PUSH1 0x40 MLOAD PUSH3 0x461BCD PUSH1 0xE5 SHL DUP2 MSTORE PUSH1 0x20 PUSH1 0x4 DUP3 ADD MSTORE PUSH1 0x28 PUSH1 0x24 DUP3 ADD MSTORE PUSH32 0x53746F726167654F7261636C653A2042656C6F77206D696E696D756D20726570 PUSH1 0x44 DUP3 ADD MSTORE PUSH8 0x3634B1B0BA34B7B7 PUSH1 0xC1 SHL PUSH1 0x64 DUP3 ADD MSTORE PUSH1 0x84 ADD PUSH2 0x70E JUMP JUMPDEST PUSH2 0x181E DUP3 DUP3 PUSH2 0x211E JUMP JUMPDEST DUP1 MLOAD PUSH1 0x20 DUP2 DUP4 ADD DUP2 ADD DUP1 MLOAD PUSH1 0x3 DUP3 MSTORE SWAP3 DUP3 ADD SWAP2 SWAP1 SWAP4 ADD KECCAK256 SWAP2 MSTORE DUP1 SLOAD DUP2 SWAP1 PUSH2 0x18E9 SWAP1 PUSH2 0x2ADA JUMP JUMPDEST DUP1 PUSH1 0x1F ADD PUSH1 0x20 DUP1 SWAP2 DIV MUL PUSH1 0x20 ADD PUSH1 0x40 MLOAD SWAP1 DUP2 ADD PUSH1 0x40 MSTORE DUP1 SWAP3 SWAP2 SWAP1 DUP2 DUP2 MSTORE PUSH1 0x20 ADD DUP3 DUP1 SLOAD PUSH2 0x1915 SWAP1 PUSH2 0x2ADA JUMP JUMPDEST DUP1 ISZERO PUSH2 0x1962 JUMPI DUP1 PUSH1 0x1F LT PUSH2 0x1937 JUMPI PUSH2 0x100 DUP1 DUP4 SLOAD DIV MUL DUP4 MSTORE SWAP2 PUSH1 0x20 ADD SWAP2 PUSH2 0x1962 JUMP JUMPDEST DUP3 ADD SWAP2 SWAP1 PUSH1 0x0 MSTORE PUSH1 0x20 PUSH1 0x0 KECCAK256 SWAP1 JUMPDEST DUP2 SLOAD DUP2 MSTORE SWAP1 PUSH1 0x1 ADD SWAP1 PUSH1 0x20 ADD DUP1 DUP4 GT PUSH2 0x1945 JUMPI DUP3 SWAP1 SUB PUSH1 0x1F AND DUP3 ADD SWAP2 JUMPDEST POP POP POP PUSH1 0x1 DUP5 ADD SLOAD PUSH1 0x2 DUP6 ADD SLOAD PUSH1 0x3 DUP7 ADD SLOAD PUSH1 0x4 DUP8 ADD SLOAD PUSH1 0x5 SWAP1 SWAP8 ADD SLOAD SWAP6 SWAP7 SWAP3 SWAP6 SWAP2 SWAP5 POP SWAP3 POP PUSH1 0xFF AND DUP7 JUMP JUMPDEST PUSH1 0x0 DUP3 DUP2 MSTORE PUSH1 0x20 DUP2 SWAP1 MSTORE PUSH1 0x40 SWAP1 KECCAK256 PUSH1 0x1 ADD SLOAD PUSH2 0x19A9 DUP2 PUSH2 0x1EF3 JUMP JUMPDEST PUSH2 0x84E DUP4 DUP4 PUSH2 0x1F8F JUMP JUMPDEST PUSH2 0x19CB PUSH1 0x0 DUP1 MLOAD PUSH1 0x20 PUSH2 0x2EC4 DUP4 CODECOPY DUP2 MLOAD SWAP2 MSTORE CALLER PUSH2 0x1799 JUMP JUMPDEST PUSH2 0x19E7 JUMPI PUSH1 0x40 MLOAD PUSH3 0x461BCD PUSH1 0xE5 SHL DUP2 MSTORE PUSH1 0x4 ADD PUSH2 0x70E SWAP1 PUSH2 0x2B14 JUMP JUMPDEST PUSH1 0x0 PUSH1 0x2 DUP4 PUSH1 0x40 MLOAD PUSH2 0x19F9 SWAP2 SWAP1 PUSH2 0x2B57 JUMP JUMPDEST SWAP1 DUP2 MSTORE PUSH1 0x40 MLOAD SWAP1 DUP2 SWAP1 SUB PUSH1 0x20 ADD SWAP1 KECCAK256 PUSH1 0x5 DUP2 ADD SLOAD SWAP1 SWAP2 POP PUSH1 0xFF AND PUSH2 0x1A5F JUMPI PUSH1 0x40 MLOAD PUSH3 0x461BCD PUSH1 0xE5 SHL DUP2 MSTORE PUSH1 0x20 PUSH1 0x4 DUP3 ADD MSTORE PUSH1 0x1D PUSH1 0x24 DUP3 ADD MSTORE PUSH32 0x53746F726167654F7261636C653A2044617461206E6F7420666F756E64000000 PUSH1 0x44 DUP3 ADD MSTORE PUSH1 0x64 ADD PUSH2 0x70E JUMP JUMPDEST PUSH1 0x0 PUSH1 0x4 DUP5 PUSH1 0x40 MLOAD PUSH2 0x1A71 SWAP2 SWAP1 PUSH2 0x2B57 JUMP JUMPDEST SWAP1 DUP2 MSTORE PUSH1 0x40 MLOAD SWAP1 DUP2 SWAP1 SUB PUSH1 0x20 ADD SWAP1 KECCAK256 PUSH1 0x4 DUP2 ADD SLOAD SWAP1 SWAP2 POP PUSH1 0xFF AND ISZERO PUSH2 0x1AED JUMPI PUSH1 0x40 MLOAD PUSH3 0x461BCD PUSH1 0xE5 SHL DUP2 MSTORE PUSH1 0x20 PUSH1 0x4 DUP3 ADD MSTORE PUSH1 0x2C PUSH1 0x24 DUP3 ADD MSTORE PUSH32 0x53746F726167654F7261636C653A205265706C69636174696F6E20616C726561 PUSH1 0x44 DUP3 ADD MSTORE PUSH12 0x191E4818DBDB5C1B195D1959 PUSH1 0xA2 SHL PUSH1 0x64 DUP3 ADD MSTORE PUSH1 0x84 ADD PUSH2 0x70E JUMP JUMPDEST DUP3 MLOAD PUSH2 0x1B02 SWAP1 PUSH1 0x1 DUP5 ADD SWAP1 PUSH1 0x20 DUP7 ADD SWAP1 PUSH2 0x234B JUMP JUMPDEST POP DUP3 MLOAD PUSH1 0x3 DUP4 ADD SSTORE TIMESTAMP PUSH1 0x4 DUP1 DUP5 ADD SWAP2 SWAP1 SWAP2 SSTORE DUP2 ADD DUP1 SLOAD PUSH1 0xFF NOT AND PUSH1 0x1 OR SWAP1 SSTORE PUSH1 0x40 MLOAD PUSH2 0x1B2F SWAP1 DUP6 SWAP1 PUSH2 0x2B57 JUMP JUMPDEST PUSH1 0x40 MLOAD SWAP1 DUP2 SWAP1 SUB DUP2 KECCAK256 DUP5 MLOAD DUP3 MSTORE SWAP1 PUSH32 0xB2258952C6AA3F320AFBB73923EF1335585781582E8D35D9082CC0AFC1DE9E5C SWAP1 PUSH1 0x20 ADD PUSH2 0x14BE JUMP JUMPDEST PUSH1 0x0 PUSH1 0xA SLOAD PUSH1 0x2 DUP4 PUSH1 0x40 MLOAD PUSH2 0x1B7C SWAP2 SWAP1 PUSH2 0x2B57 JUMP JUMPDEST SWAP1 DUP2 MSTORE PUSH1 0x20 ADD PUSH1 0x40 MLOAD DUP1 SWAP2 SUB SWAP1 KECCAK256 PUSH1 0x3 ADD SLOAD LT ISZERO SWAP1 POP SWAP2 SWAP1 POP JUMP JUMPDEST PUSH1 0x60 PUSH1 0x5 DUP1 SLOAD DUP1 PUSH1 0x20 MUL PUSH1 0x20 ADD PUSH1 0x40 MLOAD SWAP1 DUP2 ADD PUSH1 0x40 MSTORE DUP1 SWAP3 SWAP2 SWAP1 DUP2 DUP2 MSTORE PUSH1 0x20 ADD PUSH1 0x0 SWAP1 JUMPDEST DUP3 DUP3 LT ISZERO PUSH2 0x133A JUMPI DUP4 DUP3 SWAP1 PUSH1 0x0 MSTORE PUSH1 0x20 PUSH1 0x0 KECCAK256 ADD DUP1 SLOAD PUSH2 0x1BDA SWAP1 PUSH2 0x2ADA JUMP JUMPDEST DUP1 PUSH1 0x1F ADD PUSH1 0x20 DUP1 SWAP2 DIV MUL PUSH1 0x20 ADD PUSH1 0x40 MLOAD SWAP1 DUP2 ADD PUSH1 0x40 MSTORE DUP1 SWAP3 SWAP2 SWAP1 DUP2 DUP2 MSTORE PUSH1 0x20 ADD DUP3 DUP1 SLOAD PUSH2 0x1C06 SWAP1 PUSH2 0x2ADA JUMP JUMPDEST DUP1 ISZERO PUSH2 0x1C53 JUMPI DUP1 PUSH1 0x1F LT PUSH2 0x1C28 JUMPI PUSH2 0x100 DUP1 DUP4 SLOAD DIV MUL DUP4 MSTORE SWAP2 PUSH1 0x20 ADD SWAP2 PUSH2 0x1C53 JUMP JUMPDEST DUP3 ADD SWAP2 SWAP1 PUSH1 0x0 MSTORE PUSH1 0x20 PUSH1 0x0 KECCAK256 SWAP1 JUMPDEST DUP2 SLOAD DUP2 MSTORE SWAP1 PUSH1 0x1 ADD SWAP1 PUSH1 0x20 ADD DUP1 DUP4 GT PUSH2 0x1C36 JUMPI DUP3 SWAP1 SUB PUSH1 0x1F AND DUP3 ADD SWAP2 JUMPDEST POP POP POP POP POP DUP2 MSTORE PUSH1 0x20 ADD SWAP1 PUSH1 0x1 ADD SWAP1 PUSH2 0x1BBB JUMP JUMPDEST PUSH2 0x1C7F PUSH1 0x0 DUP1 MLOAD PUSH1 0x20 PUSH2 0x2EE4 DUP4 CODECOPY DUP2 MLOAD SWAP2 MSTORE CALLER PUSH2 0x1799 JUMP JUMPDEST PUSH2 0x1C9B JUMPI PUSH1 0x40 MLOAD PUSH3 0x461BCD PUSH1 0xE5 SHL DUP2 MSTORE PUSH1 0x4 ADD PUSH2 0x70E SWAP1 PUSH2 0x2D09 JUMP JUMPDEST PUSH2 0x181E PUSH1 0x0 DUP1 MLOAD PUSH1 0x20 PUSH2 0x2EC4 DUP4 CODECOPY DUP2 MLOAD SWAP2 MSTORE DUP3 PUSH2 0x1EFD JUMP JUMPDEST PUSH2 0x1CCB PUSH1 0x0 DUP1 MLOAD PUSH1 0x20 PUSH2 0x2EC4 DUP4 CODECOPY DUP2 MLOAD SWAP2 MSTORE CALLER PUSH2 0x1799 JUMP JUMPDEST PUSH2 0x1CE7 JUMPI PUSH1 0x40 MLOAD PUSH3 0x461BCD PUSH1 0xE5 SHL DUP2 MSTORE PUSH1 0x4 ADD PUSH2 0x70E SWAP1 PUSH2 0x2B14 JUMP JUMPDEST PUSH1 0x0 DUP3 MLOAD GT PUSH2 0x1D44 JUMPI PUSH1 0x40 MLOAD PUSH3 0x461BCD PUSH1 0xE5 SHL DUP2 MSTORE PUSH1 0x20 PUSH1 0x4 DUP3 ADD MSTORE PUSH1 0x23 PUSH1 0x24 DUP3 ADD MSTORE PUSH32 0x53746F726167654F7261636C653A20496E76616C6964206E6F64652061646472 PUSH1 0x44 DUP3 ADD MSTORE PUSH3 0x657373 PUSH1 0xE8 SHL PUSH1 0x64 DUP3 ADD MSTORE PUSH1 0x84 ADD PUSH2 0x70E JUMP JUMPDEST PUSH1 0x0 DUP2 GT PUSH2 0x1DA4 JUMPI PUSH1 0x40 MLOAD PUSH3 0x461BCD PUSH1 0xE5 SHL DUP2 MSTORE PUSH1 0x20 PUSH1 0x4 DUP3 ADD MSTORE PUSH1 0x27 PUSH1 0x24 DUP3 ADD MSTORE PUSH32 0x53746F726167654F7261636C653A20496E76616C69642073746F726167652063 PUSH1 0x44 DUP3 ADD MSTORE PUSH7 0x61706163697479 PUSH1 0xC8 SHL PUSH1 0x64 DUP3 ADD MSTORE PUSH1 0x84 ADD PUSH2 0x70E JUMP JUMPDEST PUSH1 0x0 PUSH1 0x3 DUP4 PUSH1 0x40 MLOAD PUSH2 0x1DB6 SWAP2 SWAP1 PUSH2 0x2B57 JUMP JUMPDEST SWAP1 DUP2 MSTORE PUSH1 0x40 MLOAD SWAP1 DUP2 SWAP1 SUB PUSH1 0x20 ADD SWAP1 KECCAK256 PUSH1 0x5 DUP2 ADD SLOAD SWAP1 SWAP2 POP PUSH1 0xFF AND PUSH2 0x1E27 JUMPI PUSH1 0x6 DUP1 SLOAD PUSH1 0x1 DUP2 ADD DUP3 SSTORE PUSH1 0x0 SWAP2 SWAP1 SWAP2 MSTORE PUSH32 0xF652222313E28459528D920B65115C16C04F3EFC82AAEDC97BE59F3F377C0D3F ADD PUSH2 0x1E10 DUP5 DUP3 PUSH2 0x2C10 JUMP JUMPDEST POP PUSH1 0x9 DUP1 SLOAD SWAP1 PUSH1 0x0 PUSH2 0x1E21 DUP4 PUSH2 0x2D4B JUMP JUMPDEST SWAP2 SWAP1 POP SSTORE POP JUMPDEST DUP1 PUSH2 0x1E32 DUP5 DUP3 PUSH2 0x2C10 JUMP JUMPDEST POP PUSH1 0x1 DUP1 DUP3 ADD DUP4 SWAP1 SSTORE PUSH1 0x0 PUSH1 0x2 DUP4 ADD SSTORE PUSH1 0x64 PUSH1 0x3 DUP4 ADD SSTORE TIMESTAMP PUSH1 0x4 DUP4 ADD SSTORE PUSH1 0x5 DUP3 ADD DUP1 SLOAD PUSH1 0xFF NOT AND SWAP1 SWAP2 OR SWAP1 SSTORE PUSH1 0x40 MLOAD PUSH2 0x1E6C SWAP1 DUP5 SWAP1 PUSH2 0x2B57 JUMP JUMPDEST PUSH1 0x40 MLOAD SWAP1 DUP2 SWAP1 SUB DUP2 KECCAK256 DUP4 DUP3 MSTORE SWAP1 PUSH32 0x6D5584B237049A8728238122791E2F39F42D3138254CCF6DD688CC95D48060B9 SWAP1 PUSH1 0x20 ADD JUMPDEST PUSH1 0x40 MLOAD DUP1 SWAP2 SUB SWAP1 LOG2 POP POP POP JUMP JUMPDEST DUP2 MLOAD PUSH1 0x20 DUP2 DUP5 ADD DUP2 ADD DUP1 MLOAD PUSH1 0x7 DUP3 MSTORE SWAP3 DUP3 ADD SWAP2 DUP6 ADD SWAP2 SWAP1 SWAP2 KECCAK256 SWAP2 SWAP1 MSTORE DUP1 SLOAD DUP3 SWAP1 DUP2 LT PUSH2 0x1ED7 JUMPI PUSH1 0x0 DUP1 REVERT JUMPDEST SWAP1 PUSH1 0x0 MSTORE PUSH1 0x20 PUSH1 0x0 KECCAK256 ADD PUSH1 0x0 SWAP2 POP SWAP2 POP POP DUP1 SLOAD PUSH2 0x659 SWAP1 PUSH2 0x2ADA JUMP JUMPDEST PUSH2 0x1796 DUP2 CALLER PUSH2 0x2312 JUMP JUMPDEST PUSH1 0x0 PUSH2 0x1F09 DUP4 DUP4 PUSH2 0x1799 JUMP JUMPDEST PUSH2 0x1F87 JUMPI PUSH1 0x0 DUP4 DUP2 MSTORE PUSH1 0x20 DUP2 DUP2 MSTORE PUSH1 0x40 DUP1 DUP4 KECCAK256 PUSH1 0x1 PUSH1 0x1 PUSH1 0xA0 SHL SUB DUP7 AND DUP5 MSTORE SWAP1 SWAP2 MSTORE SWAP1 KECCAK256 DUP1 SLOAD PUSH1 0xFF NOT AND PUSH1 0x1 OR SWAP1 SSTORE PUSH2 0x1F3F CALLER SWAP1 JUMP JUMPDEST PUSH1 0x1 PUSH1 0x1 PUSH1 0xA0 SHL SUB AND DUP3 PUSH1 0x1 PUSH1 0x1 PUSH1 0xA0 SHL SUB AND DUP5 PUSH32 0x2F8788117E7EFF1D82E926EC794901D17C78024A50270940304540A733656F0D PUSH1 0x40 MLOAD PUSH1 0x40 MLOAD DUP1 SWAP2 SUB SWAP1 LOG4 POP PUSH1 0x1 PUSH2 0x55C JUMP JUMPDEST POP PUSH1 0x0 PUSH2 0x55C JUMP JUMPDEST PUSH1 0x0 PUSH2 0x1F9B DUP4 DUP4 PUSH2 0x1799 JUMP JUMPDEST ISZERO PUSH2 0x1F87 JUMPI PUSH1 0x0 DUP4 DUP2 MSTORE PUSH1 0x20 DUP2 DUP2 MSTORE PUSH1 0x40 DUP1 DUP4 KECCAK256 PUSH1 0x1 PUSH1 0x1 PUSH1 0xA0 SHL SUB DUP7 AND DUP1 DUP6 MSTORE SWAP3 MSTORE DUP1 DUP4 KECCAK256 DUP1 SLOAD PUSH1 0xFF NOT AND SWAP1 SSTORE MLOAD CALLER SWAP3 DUP7 SWAP2 PUSH32 0xF6391F5C32D9C69D2A47EA670B442974B53935D1EDC7FD64EB21E047A839171B SWAP2 SWAP1 LOG4 POP PUSH1 0x1 PUSH2 0x55C JUMP JUMPDEST PUSH1 0x0 PUSH1 0x2 DUP3 PUSH1 0x40 MLOAD PUSH2 0x200C SWAP2 SWAP1 PUSH2 0x2B57 JUMP JUMPDEST SWAP1 DUP2 MSTORE PUSH1 0x40 MLOAD SWAP1 DUP2 SWAP1 SUB PUSH1 0x20 ADD SWAP1 KECCAK256 PUSH1 0x5 DUP2 ADD SLOAD SWAP1 SWAP2 POP PUSH1 0xFF AND DUP1 ISZERO PUSH2 0x2037 JUMPI POP PUSH1 0xA SLOAD DUP2 PUSH1 0x3 ADD SLOAD LT JUMPDEST ISZERO PUSH2 0x181E JUMPI PUSH2 0x181E DUP3 PUSH1 0xA SLOAD PUSH2 0x211E JUMP JUMPDEST PUSH1 0x2 PUSH1 0x1 SLOAD SUB PUSH2 0x206B JUMPI PUSH1 0x40 MLOAD PUSH4 0x3EE5AEB5 PUSH1 0xE0 SHL DUP2 MSTORE PUSH1 0x4 ADD PUSH1 0x40 MLOAD DUP1 SWAP2 SUB SWAP1 REVERT JUMPDEST PUSH1 0x2 PUSH1 0x1 SSTORE JUMP JUMPDEST PUSH1 0x7 DUP3 PUSH1 0x40 MLOAD PUSH2 0x2082 SWAP2 SWAP1 PUSH2 0x2B57 JUMP JUMPDEST SWAP1 DUP2 MSTORE PUSH1 0x40 MLOAD PUSH1 0x20 SWAP2 DUP2 SWAP1 SUB DUP3 ADD SWAP1 KECCAK256 DUP1 SLOAD PUSH1 0x1 DUP2 ADD DUP3 SSTORE PUSH1 0x0 SWAP2 DUP3 MSTORE SWAP2 SWAP1 KECCAK256 ADD PUSH2 0xAC3 DUP3 DUP3 PUSH2 0x2C10 JUMP JUMPDEST PUSH1 0x0 PUSH1 0x3 DUP5 PUSH1 0x40 MLOAD PUSH2 0x20BF SWAP2 SWAP1 PUSH2 0x2B57 JUMP JUMPDEST SWAP1 DUP2 MSTORE PUSH1 0x20 ADD PUSH1 0x40 MLOAD DUP1 SWAP2 SUB SWAP1 KECCAK256 SWAP1 POP DUP2 ISZERO PUSH2 0x20F4 JUMPI DUP3 DUP2 PUSH1 0x2 ADD PUSH1 0x0 DUP3 DUP3 SLOAD PUSH2 0x20E9 SWAP2 SWAP1 PUSH2 0x2CD1 JUMP JUMPDEST SWAP1 SWAP2 SSTORE POP PUSH2 0x84E SWAP1 POP JUMP JUMPDEST DUP3 DUP2 PUSH1 0x2 ADD SLOAD LT PUSH2 0x84E JUMPI DUP3 DUP2 PUSH1 0x2 ADD PUSH1 0x0 DUP3 DUP3 SLOAD PUSH2 0x2113 SWAP2 SWAP1 PUSH2 0x2B89 JUMP JUMPDEST SWAP1 SWAP2 SSTORE POP POP POP POP POP POP JUMP JUMPDEST PUSH1 0x0 PUSH1 0x2 DUP4 PUSH1 0x40 MLOAD PUSH2 0x2130 SWAP2 SWAP1 PUSH2 0x2B57 JUMP JUMPDEST SWAP1 DUP2 MSTORE PUSH1 0x20 ADD PUSH1 0x40 MLOAD DUP1 SWAP2 SUB SWAP1 KECCAK256 SWAP1 POP PUSH1 0x40 MLOAD DUP1 PUSH1 0xA0 ADD PUSH1 0x40 MSTORE DUP1 DUP5 DUP2 MSTORE PUSH1 0x20 ADD DUP4 DUP2 MSTORE PUSH1 0x20 ADD DUP3 PUSH1 0x3 ADD SLOAD DUP2 MSTORE PUSH1 0x20 ADD TIMESTAMP DUP2 MSTORE PUSH1 0x20 ADD PUSH1 0x0 ISZERO ISZERO DUP2 MSTORE POP PUSH1 0x4 DUP5 PUSH1 0x40 MLOAD PUSH2 0x217E SWAP2 SWAP1 PUSH2 0x2B57 JUMP JUMPDEST SWAP1 DUP2 MSTORE PUSH1 0x40 MLOAD SWAP1 DUP2 SWAP1 SUB PUSH1 0x20 ADD SWAP1 KECCAK256 DUP2 MLOAD DUP2 SWAP1 PUSH2 0x219B SWAP1 DUP3 PUSH2 0x2C10 JUMP JUMPDEST POP PUSH1 0x20 DUP3 ADD MLOAD PUSH1 0x1 DUP3 ADD SSTORE PUSH1 0x40 DUP1 DUP4 ADD MLOAD PUSH1 0x2 DUP4 ADD SSTORE PUSH1 0x60 DUP4 ADD MLOAD PUSH1 0x3 DUP4 ADD SSTORE PUSH1 0x80 SWAP1 SWAP3 ADD MLOAD PUSH1 0x4 SWAP1 SWAP2 ADD DUP1 SLOAD PUSH1 0xFF NOT AND SWAP2 ISZERO ISZERO SWAP2 SWAP1 SWAP2 OR SWAP1 SSTORE MLOAD PUSH2 0x21E1 SWAP1 DUP5 SWAP1 PUSH2 0x2B57 JUMP JUMPDEST PUSH1 0x40 MLOAD SWAP1 DUP2 SWAP1 SUB DUP2 KECCAK256 DUP4 DUP3 MSTORE SWAP1 PUSH32 0xB033D671B74FA3F35BFB1002B622B52074563AAF7009C7D78173CD72E656738C SWAP1 PUSH1 0x20 ADD PUSH2 0x1E9F JUMP JUMPDEST PUSH1 0x0 PUSH1 0x7 DUP4 PUSH1 0x40 MLOAD PUSH2 0x222A SWAP2 SWAP1 PUSH2 0x2B57 JUMP JUMPDEST SWAP1 DUP2 MSTORE PUSH1 0x20 ADD PUSH1 0x40 MLOAD DUP1 SWAP2 SUB SWAP1 KECCAK256 SWAP1 POP PUSH1 0x0 JUMPDEST DUP2 SLOAD DUP2 LT ISZERO PUSH2 0x84E JUMPI DUP3 DUP1 MLOAD SWAP1 PUSH1 0x20 ADD KECCAK256 DUP3 DUP3 DUP2 SLOAD DUP2 LT PUSH2 0x2260 JUMPI PUSH2 0x2260 PUSH2 0x2BB3 JUMP JUMPDEST SWAP1 PUSH1 0x0 MSTORE PUSH1 0x20 PUSH1 0x0 KECCAK256 ADD PUSH1 0x40 MLOAD PUSH2 0x2277 SWAP2 SWAP1 PUSH2 0x2D64 JUMP JUMPDEST PUSH1 0x40 MLOAD DUP1 SWAP2 SUB SWAP1 KECCAK256 SUB PUSH2 0x230A JUMPI DUP2 SLOAD DUP3 SWAP1 PUSH2 0x2294 SWAP1 PUSH1 0x1 SWAP1 PUSH2 0x2B89 JUMP JUMPDEST DUP2 SLOAD DUP2 LT PUSH2 0x22A4 JUMPI PUSH2 0x22A4 PUSH2 0x2BB3 JUMP JUMPDEST SWAP1 PUSH1 0x0 MSTORE PUSH1 0x20 PUSH1 0x0 KECCAK256 ADD DUP3 DUP3 DUP2 SLOAD DUP2 LT PUSH2 0x22C0 JUMPI PUSH2 0x22C0 PUSH2 0x2BB3 JUMP JUMPDEST SWAP1 PUSH1 0x0 MSTORE PUSH1 0x20 PUSH1 0x0 KECCAK256 ADD SWAP1 DUP2 PUSH2 0x22D6 SWAP2 SWAP1 PUSH2 0x2DD9 JUMP JUMPDEST POP DUP2 DUP1 SLOAD DUP1 PUSH2 0x22E7 JUMPI PUSH2 0x22E7 PUSH2 0x2EAD JUMP JUMPDEST PUSH1 0x1 SWAP1 SUB DUP2 DUP2 SWAP1 PUSH1 0x0 MSTORE PUSH1 0x20 PUSH1 0x0 KECCAK256 ADD PUSH1 0x0 PUSH2 0x2303 SWAP2 SWAP1 PUSH2 0x23A1 JUMP JUMPDEST SWAP1 SSTORE PUSH2 0x84E JUMP JUMPDEST PUSH1 0x1 ADD PUSH2 0x223D JUMP JUMPDEST PUSH2 0x231C DUP3 DUP3 PUSH2 0x1799 JUMP JUMPDEST PUSH2 0x181E JUMPI PUSH1 0x40 MLOAD PUSH4 0xE2517D3F PUSH1 0xE0 SHL DUP2 MSTORE PUSH1 0x1 PUSH1 0x1 PUSH1 0xA0 SHL SUB DUP3 AND PUSH1 0x4 DUP3 ADD MSTORE PUSH1 0x24 DUP2 ADD DUP4 SWAP1 MSTORE PUSH1 0x44 ADD PUSH2 0x70E JUMP JUMPDEST DUP3 DUP1 SLOAD DUP3 DUP3 SSTORE SWAP1 PUSH1 0x0 MSTORE PUSH1 0x20 PUSH1 0x0 KECCAK256 SWAP1 DUP2 ADD SWAP3 DUP3 ISZERO PUSH2 0x2391 JUMPI SWAP2 PUSH1 0x20 MUL DUP3 ADD JUMPDEST DUP3 DUP2 GT ISZERO PUSH2 0x2391 JUMPI DUP3 MLOAD DUP3 SWAP1 PUSH2 0x2381 SWAP1 DUP3 PUSH2 0x2C10 JUMP JUMPDEST POP SWAP2 PUSH1 0x20 ADD SWAP2 SWAP1 PUSH1 0x1 ADD SWAP1 PUSH2 0x236B JUMP JUMPDEST POP PUSH2 0x239D SWAP3 SWAP2 POP PUSH2 0x23DB JUMP JUMPDEST POP SWAP1 JUMP JUMPDEST POP DUP1 SLOAD PUSH2 0x23AD SWAP1 PUSH2 0x2ADA JUMP JUMPDEST PUSH1 0x0 DUP3 SSTORE DUP1 PUSH1 0x1F LT PUSH2 0x23BD JUMPI POP POP JUMP JUMPDEST PUSH1 0x1F ADD PUSH1 0x20 SWAP1 DIV SWAP1 PUSH1 0x0 MSTORE PUSH1 0x20 PUSH1 0x0 KECCAK256 SWAP1 DUP2 ADD SWAP1 PUSH2 0x1796 SWAP2 SWAP1 PUSH2 0x23F8 JUMP JUMPDEST DUP1 DUP3 GT ISZERO PUSH2 0x239D JUMPI PUSH1 0x0 PUSH2 0x23EF DUP3 DUP3 PUSH2 0x23A1 JUMP JUMPDEST POP PUSH1 0x1 ADD PUSH2 0x23DB JUMP JUMPDEST JUMPDEST DUP1 DUP3 GT ISZERO PUSH2 0x239D JUMPI PUSH1 0x0 DUP2 SSTORE PUSH1 0x1 ADD PUSH2 0x23F9 JUMP JUMPDEST PUSH1 0x0 PUSH1 0x20 DUP3 DUP5 SUB SLT ISZERO PUSH2 0x241F JUMPI PUSH1 0x0 DUP1 REVERT JUMPDEST DUP2 CALLDATALOAD PUSH1 0x1 PUSH1 0x1 PUSH1 0xE0 SHL SUB NOT DUP2 AND DUP2 EQ PUSH2 0x2437 JUMPI PUSH1 0x0 DUP1 REVERT JUMPDEST SWAP4 SWAP3 POP POP POP JUMP JUMPDEST PUSH4 0x4E487B71 PUSH1 0xE0 SHL PUSH1 0x0 MSTORE PUSH1 0x41 PUSH1 0x4 MSTORE PUSH1 0x24 PUSH1 0x0 REVERT JUMPDEST PUSH1 0x40 MLOAD PUSH1 0x1F DUP3 ADD PUSH1 0x1F NOT AND DUP2 ADD PUSH1 0x1 PUSH1 0x1 PUSH1 0x40 SHL SUB DUP2 GT DUP3 DUP3 LT OR ISZERO PUSH2 0x247C JUMPI PUSH2 0x247C PUSH2 0x243E JUMP JUMPDEST PUSH1 0x40 MSTORE SWAP2 SWAP1 POP JUMP JUMPDEST PUSH1 0x0 DUP3 PUSH1 0x1F DUP4 ADD SLT PUSH2 0x2495 JUMPI PUSH1 0x0 DUP1 REVERT JUMPDEST DUP2 CALLDATALOAD PUSH1 0x1 PUSH1 0x1 PUSH1 0x40 SHL SUB DUP2 GT ISZERO PUSH2 0x24AE JUMPI PUSH2 0x24AE PUSH2 0x243E JUMP JUMPDEST PUSH2 0x24C1 PUSH1 0x1F DUP3 ADD PUSH1 0x1F NOT AND PUSH1 0x20 ADD PUSH2 0x2454 JUMP JUMPDEST DUP2 DUP2 MSTORE DUP5 PUSH1 0x20 DUP4 DUP7 ADD ADD GT ISZERO PUSH2 0x24D6 JUMPI PUSH1 0x0 DUP1 REVERT JUMPDEST DUP2 PUSH1 0x20 DUP6 ADD PUSH1 0x20 DUP4 ADD CALLDATACOPY PUSH1 0x0 SWAP2 DUP2 ADD PUSH1 0x20 ADD SWAP2 SWAP1 SWAP2 MSTORE SWAP4 SWAP3 POP POP POP JUMP JUMPDEST PUSH1 0x0 PUSH1 0x20 DUP3 DUP5 SUB SLT ISZERO PUSH2 0x2505 JUMPI PUSH1 0x0 DUP1 REVERT JUMPDEST DUP2 CALLDATALOAD PUSH1 0x1 PUSH1 0x1 PUSH1 0x40 SHL SUB DUP2 GT ISZERO PUSH2 0x251B JUMPI PUSH1 0x0 DUP1 REVERT JUMPDEST PUSH2 0x2527 DUP5 DUP3 DUP6 ADD PUSH2 0x2484 JUMP JUMPDEST SWAP5 SWAP4 POP POP POP POP JUMP JUMPDEST PUSH1 0x0 JUMPDEST DUP4 DUP2 LT ISZERO PUSH2 0x254A JUMPI DUP2 DUP2 ADD MLOAD DUP4 DUP3 ADD MSTORE PUSH1 0x20 ADD PUSH2 0x2532 JUMP JUMPDEST POP POP PUSH1 0x0 SWAP2 ADD MSTORE JUMP JUMPDEST PUSH1 0x0 DUP2 MLOAD DUP1 DUP5 MSTORE PUSH2 0x256B DUP2 PUSH1 0x20 DUP7 ADD PUSH1 0x20 DUP7 ADD PUSH2 0x252F JUMP JUMPDEST PUSH1 0x1F ADD PUSH1 0x1F NOT AND SWAP3 SWAP1 SWAP3 ADD PUSH1 0x20 ADD SWAP3 SWAP2 POP POP JUMP JUMPDEST PUSH1 0xC0 DUP2 MSTORE PUSH1 0x0 PUSH2 0x2592 PUSH1 0xC0 DUP4 ADD DUP10 PUSH2 0x2553 JUMP JUMPDEST PUSH1 0x20 DUP4 ADD SWAP8 SWAP1 SWAP8 MSTORE POP PUSH1 0x40 DUP2 ADD SWAP5 SWAP1 SWAP5 MSTORE PUSH1 0x60 DUP5 ADD SWAP3 SWAP1 SWAP3 MSTORE ISZERO ISZERO PUSH1 0x80 DUP4 ADD MSTORE PUSH1 0xA0 SWAP1 SWAP2 ADD MSTORE SWAP2 SWAP1 POP JUMP JUMPDEST PUSH1 0x0 PUSH1 0x20 DUP3 DUP5 SUB SLT ISZERO PUSH2 0x25CF JUMPI PUSH1 0x0 DUP1 REVERT JUMPDEST POP CALLDATALOAD SWAP2 SWAP1 POP JUMP JUMPDEST PUSH1 0x20 DUP2 MSTORE PUSH1 0x0 PUSH2 0x2437 PUSH1 0x20 DUP4 ADD DUP5 PUSH2 0x2553 JUMP JUMPDEST PUSH1 0x0 DUP1 PUSH1 0x0 PUSH1 0x60 DUP5 DUP7 SUB SLT ISZERO PUSH2 0x25FE JUMPI PUSH1 0x0 DUP1 REVERT JUMPDEST DUP4 CALLDATALOAD PUSH1 0x1 PUSH1 0x1 PUSH1 0x40 SHL SUB DUP2 GT ISZERO PUSH2 0x2614 JUMPI PUSH1 0x0 DUP1 REVERT JUMPDEST PUSH2 0x2620 DUP7 DUP3 DUP8 ADD PUSH2 0x2484 JUMP JUMPDEST SWAP4 POP POP PUSH1 0x20 DUP5 ADD CALLDATALOAD PUSH1 0x1 PUSH1 0x1 PUSH1 0x40 SHL SUB DUP2 GT ISZERO PUSH2 0x263C JUMPI PUSH1 0x0 DUP1 REVERT JUMPDEST PUSH2 0x2648 DUP7 DUP3 DUP8 ADD PUSH2 0x2484 JUMP JUMPDEST SWAP4 SWAP7 SWAP4 SWAP6 POP POP POP POP PUSH1 0x40 SWAP2 SWAP1 SWAP2 ADD CALLDATALOAD SWAP1 JUMP JUMPDEST PUSH1 0x20 DUP2 MSTORE PUSH1 0x0 DUP3 MLOAD PUSH1 0xE0 PUSH1 0x20 DUP5 ADD MSTORE PUSH2 0x2677 PUSH2 0x100 DUP5 ADD DUP3 PUSH2 0x2553 JUMP JUMPDEST PUSH1 0x20 DUP6 DUP2 ADD MLOAD DUP6 DUP4 SUB PUSH1 0x1F NOT ADD PUSH1 0x40 DUP8 ADD MSTORE DUP1 MLOAD DUP1 DUP5 MSTORE SWAP3 SWAP4 POP DUP2 ADD SWAP2 DUP2 DUP5 ADD SWAP2 PUSH1 0x5 DUP3 SWAP1 SHL DUP6 ADD ADD PUSH1 0x0 JUMPDEST DUP3 DUP2 LT ISZERO PUSH2 0x26D4 JUMPI PUSH1 0x1F NOT DUP7 DUP4 SUB ADD DUP5 MSTORE PUSH2 0x26BF DUP3 DUP7 MLOAD PUSH2 0x2553 JUMP JUMPDEST PUSH1 0x20 SWAP6 DUP7 ADD SWAP6 SWAP5 SWAP1 SWAP5 ADD SWAP4 SWAP2 POP PUSH1 0x1 ADD PUSH2 0x26A3 JUMP JUMPDEST POP PUSH1 0x40 DUP9 ADD MLOAD PUSH1 0x60 DUP9 ADD MSTORE PUSH1 0x60 DUP9 ADD MLOAD PUSH1 0x80 DUP9 ADD MSTORE PUSH1 0x80 DUP9 ADD MLOAD PUSH1 0xA0 DUP9 ADD MSTORE PUSH1 0xA0 DUP9 ADD MLOAD SWAP5 POP PUSH2 0x2708 PUSH1 0xC0 DUP9 ADD DUP7 ISZERO ISZERO SWAP1 MSTORE JUMP JUMPDEST PUSH1 0xC0 DUP9 ADD MLOAD PUSH1 0xE0 DUP9 ADD MSTORE DUP1 SWAP6 POP POP POP POP POP POP SWAP3 SWAP2 POP POP JUMP JUMPDEST DUP1 CALLDATALOAD PUSH1 0x1 PUSH1 0x1 PUSH1 0xA0 SHL SUB DUP2 AND DUP2 EQ PUSH2 0x2737 JUMPI PUSH1 0x0 DUP1 REVERT JUMPDEST SWAP2 SWAP1 POP JUMP JUMPDEST PUSH1 0x0 DUP1 PUSH1 0x40 DUP4 DUP6 SUB SLT ISZERO PUSH2 0x274F JUMPI PUSH1 0x0 DUP1 REVERT JUMPDEST DUP3 CALLDATALOAD SWAP2 POP PUSH2 0x275F PUSH1 0x20 DUP5 ADD PUSH2 0x2720 JUMP JUMPDEST SWAP1 POP SWAP3 POP SWAP3 SWAP1 POP JUMP JUMPDEST PUSH1 0xA0 DUP2 MSTORE PUSH1 0x0 PUSH2 0x277B PUSH1 0xA0 DUP4 ADD DUP9 PUSH2 0x2553 JUMP JUMPDEST SWAP1 POP DUP6 PUSH1 0x20 DUP4 ADD MSTORE DUP5 PUSH1 0x40 DUP4 ADD MSTORE DUP4 PUSH1 0x60 DUP4 ADD MSTORE DUP3 ISZERO ISZERO PUSH1 0x80 DUP4 ADD MSTORE SWAP7 SWAP6 POP POP POP POP POP POP JUMP JUMPDEST PUSH1 0x0 DUP3 PUSH1 0x1F DUP4 ADD SLT PUSH2 0x27B2 JUMPI PUSH1 0x0 DUP1 REVERT JUMPDEST DUP2 CALLDATALOAD PUSH1 0x1 PUSH1 0x1 PUSH1 0x40 SHL SUB DUP2 GT ISZERO PUSH2 0x27CB JUMPI PUSH2 0x27CB PUSH2 0x243E JUMP JUMPDEST DUP1 PUSH1 0x5 SHL PUSH2 0x27DB PUSH1 0x20 DUP3 ADD PUSH2 0x2454 JUMP JUMPDEST SWAP2 DUP3 MSTORE PUSH1 0x20 DUP2 DUP6 ADD DUP2 ADD SWAP3 SWAP1 DUP2 ADD SWAP1 DUP7 DUP5 GT ISZERO PUSH2 0x27F7 JUMPI PUSH1 0x0 DUP1 REVERT JUMPDEST PUSH1 0x20 DUP7 ADD SWAP3 POP JUMPDEST DUP4 DUP4 LT ISZERO PUSH2 0x283D JUMPI DUP3 CALLDATALOAD PUSH1 0x1 PUSH1 0x1 PUSH1 0x40 SHL SUB DUP2 GT ISZERO PUSH2 0x281C JUMPI PUSH1 0x0 DUP1 REVERT JUMPDEST PUSH2 0x282B DUP9 PUSH1 0x20 DUP4 DUP11 ADD ADD PUSH2 0x2484 JUMP JUMPDEST DUP4 MSTORE POP PUSH1 0x20 SWAP3 DUP4 ADD SWAP3 SWAP1 SWAP2 ADD SWAP1 PUSH2 0x27FE JUMP JUMPDEST SWAP7 SWAP6 POP POP POP POP POP POP JUMP JUMPDEST PUSH1 0x0 DUP1 PUSH1 0x0 DUP1 PUSH1 0x80 DUP6 DUP8 SUB SLT ISZERO PUSH2 0x285D JUMPI PUSH1 0x0 DUP1 REVERT JUMPDEST DUP5 CALLDATALOAD PUSH1 0x1 PUSH1 0x1 PUSH1 0x40 SHL SUB DUP2 GT ISZERO PUSH2 0x2873 JUMPI PUSH1 0x0 DUP1 REVERT JUMPDEST PUSH2 0x287F DUP8 DUP3 DUP9 ADD PUSH2 0x2484 JUMP JUMPDEST SWAP5 POP POP PUSH1 0x20 DUP6 ADD CALLDATALOAD PUSH1 0x1 PUSH1 0x1 PUSH1 0x40 SHL SUB DUP2 GT ISZERO PUSH2 0x289B JUMPI PUSH1 0x0 DUP1 REVERT JUMPDEST PUSH2 0x28A7 DUP8 DUP3 DUP9 ADD PUSH2 0x27A1 JUMP JUMPDEST SWAP5 SWAP8 SWAP5 SWAP7 POP POP POP POP PUSH1 0x40 DUP4 ADD CALLDATALOAD SWAP3 PUSH1 0x60 ADD CALLDATALOAD SWAP2 SWAP1 POP JUMP JUMPDEST PUSH1 0x20 DUP2 MSTORE PUSH1 0x0 DUP3 MLOAD PUSH1 0xC0 PUSH1 0x20 DUP5 ADD MSTORE PUSH2 0x28DA PUSH1 0xE0 DUP5 ADD DUP3 PUSH2 0x2553 JUMP JUMPDEST SWAP1 POP PUSH1 0x20 DUP5 ADD MLOAD PUSH1 0x40 DUP5 ADD MSTORE PUSH1 0x40 DUP5 ADD MLOAD PUSH1 0x60 DUP5 ADD MSTORE PUSH1 0x60 DUP5 ADD MLOAD PUSH1 0x80 DUP5 ADD MSTORE PUSH1 0x80 DUP5 ADD MLOAD PUSH1 0xA0 DUP5 ADD MSTORE PUSH1 0xA0 DUP5 ADD MLOAD ISZERO ISZERO PUSH1 0xC0 DUP5 ADD MSTORE DUP1 SWAP2 POP POP SWAP3 SWAP2 POP POP JUMP JUMPDEST PUSH1 0x0 DUP3 DUP3 MLOAD DUP1 DUP6 MSTORE PUSH1 0x20 DUP6 ADD SWAP5 POP PUSH1 0x20 DUP2 PUSH1 0x5 SHL DUP4 ADD ADD PUSH1 0x20 DUP6 ADD PUSH1 0x0 JUMPDEST DUP4 DUP2 LT ISZERO PUSH2 0x296A JUMPI PUSH1 0x1F NOT DUP6 DUP5 SUB ADD DUP9 MSTORE PUSH2 0x2954 DUP4 DUP4 MLOAD PUSH2 0x2553 JUMP JUMPDEST PUSH1 0x20 SWAP9 DUP10 ADD SWAP9 SWAP1 SWAP4 POP SWAP2 SWAP1 SWAP2 ADD SWAP1 PUSH1 0x1 ADD PUSH2 0x2938 JUMP JUMPDEST POP SWAP1 SWAP7 SWAP6 POP POP POP POP POP POP JUMP JUMPDEST PUSH1 0x20 DUP2 MSTORE PUSH1 0x0 PUSH2 0x2437 PUSH1 0x20 DUP4 ADD DUP5 PUSH2 0x291A JUMP JUMPDEST PUSH1 0x0 DUP1 PUSH1 0x0 PUSH1 0x60 DUP5 DUP7 SUB SLT ISZERO PUSH2 0x299E JUMPI PUSH1 0x0 DUP1 REVERT JUMPDEST DUP4 CALLDATALOAD PUSH1 0x1 PUSH1 0x1 PUSH1 0x40 SHL SUB DUP2 GT ISZERO PUSH2 0x29B4 JUMPI PUSH1 0x0 DUP1 REVERT JUMPDEST PUSH2 0x29C0 DUP7 DUP3 DUP8 ADD PUSH2 0x2484 JUMP JUMPDEST SWAP7 PUSH1 0x20 DUP7 ADD CALLDATALOAD SWAP7 POP PUSH1 0x40 SWAP1 SWAP6 ADD CALLDATALOAD SWAP5 SWAP4 POP POP POP POP JUMP JUMPDEST PUSH1 0x0 PUSH1 0x20 DUP3 DUP5 SUB SLT ISZERO PUSH2 0x29E8 JUMPI PUSH1 0x0 DUP1 REVERT JUMPDEST PUSH2 0x2437 DUP3 PUSH2 0x2720 JUMP JUMPDEST PUSH1 0x0 DUP1 PUSH1 0x40 DUP4 DUP6 SUB SLT ISZERO PUSH2 0x2A04 JUMPI PUSH1 0x0 DUP1 REVERT JUMPDEST DUP3 CALLDATALOAD PUSH1 0x1 PUSH1 0x1 PUSH1 0x40 SHL SUB DUP2 GT ISZERO PUSH2 0x2A1A JUMPI PUSH1 0x0 DUP1 REVERT JUMPDEST PUSH2 0x2A26 DUP6 DUP3 DUP7 ADD PUSH2 0x2484 JUMP JUMPDEST SWAP6 PUSH1 0x20 SWAP5 SWAP1 SWAP5 ADD CALLDATALOAD SWAP5 POP POP POP POP JUMP JUMPDEST PUSH1 0xC0 DUP2 MSTORE PUSH1 0x0 PUSH2 0x2A48 PUSH1 0xC0 DUP4 ADD DUP10 PUSH2 0x2553 JUMP JUMPDEST PUSH1 0x20 DUP4 ADD SWAP8 SWAP1 SWAP8 MSTORE POP PUSH1 0x40 DUP2 ADD SWAP5 SWAP1 SWAP5 MSTORE PUSH1 0x60 DUP5 ADD SWAP3 SWAP1 SWAP3 MSTORE PUSH1 0x80 DUP4 ADD MSTORE ISZERO ISZERO PUSH1 0xA0 SWAP1 SWAP2 ADD MSTORE SWAP2 SWAP1 POP JUMP JUMPDEST PUSH1 0x0 DUP1 PUSH1 0x40 DUP4 DUP6 SUB SLT ISZERO PUSH2 0x2A86 JUMPI PUSH1 0x0 DUP1 REVERT JUMPDEST DUP3 CALLDATALOAD PUSH1 0x1 PUSH1 0x1 PUSH1 0x40 SHL SUB DUP2 GT ISZERO PUSH2 0x2A9C JUMPI PUSH1 0x0 DUP1 REVERT JUMPDEST PUSH2 0x2AA8 DUP6 DUP3 DUP7 ADD PUSH2 0x2484 JUMP JUMPDEST SWAP3 POP POP PUSH1 0x20 DUP4 ADD CALLDATALOAD PUSH1 0x1 PUSH1 0x1 PUSH1 0x40 SHL SUB DUP2 GT ISZERO PUSH2 0x2AC4 JUMPI PUSH1 0x0 DUP1 REVERT JUMPDEST PUSH2 0x2AD0 DUP6 DUP3 DUP7 ADD PUSH2 0x27A1 JUMP JUMPDEST SWAP2 POP POP SWAP3 POP SWAP3 SWAP1 POP JUMP JUMPDEST PUSH1 0x1 DUP2 DUP2 SHR SWAP1 DUP3 AND DUP1 PUSH2 0x2AEE JUMPI PUSH1 0x7F DUP3 AND SWAP2 POP JUMPDEST PUSH1 0x20 DUP3 LT DUP2 SUB PUSH2 0x2B0E JUMPI PUSH4 0x4E487B71 PUSH1 0xE0 SHL PUSH1 0x0 MSTORE PUSH1 0x22 PUSH1 0x4 MSTORE PUSH1 0x24 PUSH1 0x0 REVERT JUMPDEST POP SWAP2 SWAP1 POP JUMP JUMPDEST PUSH1 0x20 DUP1 DUP3 MSTORE PUSH1 0x23 SWAP1 DUP3 ADD MSTORE PUSH32 0x53746F726167654F7261636C653A204F7261636C6520726F6C65207265717569 PUSH1 0x40 DUP3 ADD MSTORE PUSH3 0x1C9959 PUSH1 0xEA SHL PUSH1 0x60 DUP3 ADD MSTORE PUSH1 0x80 ADD SWAP1 JUMP JUMPDEST PUSH1 0x0 DUP3 MLOAD PUSH2 0x2B69 DUP2 DUP5 PUSH1 0x20 DUP8 ADD PUSH2 0x252F JUMP JUMPDEST SWAP2 SWAP1 SWAP2 ADD SWAP3 SWAP2 POP POP JUMP JUMPDEST PUSH4 0x4E487B71 PUSH1 0xE0 SHL PUSH1 0x0 MSTORE PUSH1 0x11 PUSH1 0x4 MSTORE PUSH1 0x24 PUSH1 0x0 REVERT JUMPDEST DUP2 DUP2 SUB DUP2 DUP2 GT ISZERO PUSH2 0x55C JUMPI PUSH2 0x55C PUSH2 0x2B73 JUMP JUMPDEST PUSH1 0x0 DUP2 PUSH2 0x2BAB JUMPI PUSH2 0x2BAB PUSH2 0x2B73 JUMP JUMPDEST POP PUSH1 0x0 NOT ADD SWAP1 JUMP JUMPDEST PUSH4 0x4E487B71 PUSH1 0xE0 SHL PUSH1 0x0 MSTORE PUSH1 0x32 PUSH1 0x4 MSTORE PUSH1 0x24 PUSH1 0x0 REVERT JUMPDEST PUSH1 0x1F DUP3 GT ISZERO PUSH2 0xAC3 JUMPI DUP1 PUSH1 0x0 MSTORE PUSH1 0x20 PUSH1 0x0 KECCAK256 PUSH1 0x1F DUP5 ADD PUSH1 0x5 SHR DUP2 ADD PUSH1 0x20 DUP6 LT ISZERO PUSH2 0x2BF0 JUMPI POP DUP1 JUMPDEST PUSH1 0x1F DUP5 ADD PUSH1 0x5 SHR DUP3 ADD SWAP2 POP JUMPDEST DUP2 DUP2 LT ISZERO PUSH2 0x84C JUMPI PUSH1 0x0 DUP2 SSTORE PUSH1 0x1 ADD PUSH2 0x2BFC JUMP JUMPDEST DUP2 MLOAD PUSH1 0x1 PUSH1 0x1 PUSH1 0x40 SHL SUB DUP2 GT ISZERO PUSH2 0x2C29 JUMPI PUSH2 0x2C29 PUSH2 0x243E JUMP JUMPDEST PUSH2 0x2C3D DUP2 PUSH2 0x2C37 DUP5 SLOAD PUSH2 0x2ADA JUMP JUMPDEST DUP5 PUSH2 0x2BC9 JUMP JUMPDEST PUSH1 0x20 PUSH1 0x1F DUP3 GT PUSH1 0x1 DUP2 EQ PUSH2 0x2C74 JUMPI PUSH1 0x0 DUP4 ISZERO PUSH2 0x2C59 JUMPI POP DUP5 DUP3 ADD MLOAD JUMPDEST PUSH1 0x1 DUP5 SWAP1 SHL PUSH1 0x0 NOT PUSH1 0x3 DUP7 SWAP1 SHL SHR NOT DUP3 AND OR JUMPDEST DUP6 SSTORE POP PUSH2 0x84C JUMP JUMPDEST PUSH1 0x0 DUP5 DUP2 MSTORE PUSH1 0x20 DUP2 KECCAK256 PUSH1 0x1F NOT DUP6 AND SWAP2 JUMPDEST DUP3 DUP2 LT ISZERO PUSH2 0x2CA4 JUMPI DUP8 DUP6 ADD MLOAD DUP3 SSTORE PUSH1 0x20 SWAP5 DUP6 ADD SWAP5 PUSH1 0x1 SWAP1 SWAP3 ADD SWAP2 ADD PUSH2 0x2C84 JUMP JUMPDEST POP DUP5 DUP3 LT ISZERO PUSH2 0x2CC2 JUMPI DUP7 DUP5 ADD MLOAD PUSH1 0x0 NOT PUSH1 0x3 DUP8 SWAP1 SHL PUSH1 0xF8 AND SHR NOT AND DUP2 SSTORE JUMPDEST POP POP POP POP PUSH1 0x1 SWAP1 DUP2 SHL ADD SWAP1 SSTORE POP JUMP JUMPDEST DUP1 DUP3 ADD DUP1 DUP3 GT ISZERO PUSH2 0x55C JUMPI PUSH2 0x55C PUSH2 0x2B73 JUMP JUMPDEST PUSH1 0x60 DUP2 MSTORE PUSH1 0x0 PUSH2 0x2CF7 PUSH1 0x60 DUP4 ADD DUP7 PUSH2 0x291A JUMP JUMPDEST PUSH1 0x20 DUP4 ADD SWAP5 SWAP1 SWAP5 MSTORE POP PUSH1 0x40 ADD MSTORE SWAP2 SWAP1 POP JUMP JUMPDEST PUSH1 0x20 DUP1 DUP3 MSTORE PUSH1 0x22 SWAP1 DUP3 ADD MSTORE PUSH32 0x53746F726167654F7261636C653A2041646D696E20726F6C6520726571756972 PUSH1 0x40 DUP3 ADD MSTORE PUSH2 0x1959 PUSH1 0xF2 SHL PUSH1 0x60 DUP3 ADD MSTORE PUSH1 0x80 ADD SWAP1 JUMP JUMPDEST PUSH1 0x0 PUSH1 0x1 DUP3 ADD PUSH2 0x2D5D JUMPI PUSH2 0x2D5D PUSH2 0x2B73 JUMP JUMPDEST POP PUSH1 0x1 ADD SWAP1 JUMP JUMPDEST PUSH1 0x0 DUP1 DUP4 SLOAD PUSH2 0x2D72 DUP2 PUSH2 0x2ADA JUMP JUMPDEST PUSH1 0x1 DUP3 AND DUP1 ISZERO PUSH2 0x2D89 JUMPI PUSH1 0x1 DUP2 EQ PUSH2 0x2D9E JUMPI PUSH2 0x2DCE JUMP JUMPDEST PUSH1 0xFF NOT DUP4 AND DUP7 MSTORE DUP2 ISZERO ISZERO DUP3 MUL DUP7 ADD SWAP4 POP PUSH2 0x2DCE JUMP JUMPDEST DUP7 PUSH1 0x0 MSTORE PUSH1 0x20 PUSH1 0x0 KECCAK256 PUSH1 0x0 JUMPDEST DUP4 DUP2 LT ISZERO PUSH2 0x2DC6 JUMPI DUP2 SLOAD DUP9 DUP3 ADD MSTORE PUSH1 0x1 SWAP1 SWAP2 ADD SWAP1 PUSH1 0x20 ADD PUSH2 0x2DAA JUMP JUMPDEST POP POP DUP2 DUP7 ADD SWAP4 POP JUMPDEST POP SWAP2 SWAP6 SWAP5 POP POP POP POP POP JUMP JUMPDEST DUP2 DUP2 SUB PUSH2 0x2DE4 JUMPI POP POP JUMP JUMPDEST PUSH2 0x2DEE DUP3 SLOAD PUSH2 0x2ADA JUMP JUMPDEST PUSH1 0x1 PUSH1 0x1 PUSH1 0x40 SHL SUB DUP2 GT ISZERO PUSH2 0x2E05 JUMPI PUSH2 0x2E05 PUSH2 0x243E JUMP JUMPDEST PUSH2 0x2E13 DUP2 PUSH2 0x2C37 DUP5 SLOAD PUSH2 0x2ADA JUMP JUMPDEST PUSH1 0x0 PUSH1 0x1F DUP3 GT PUSH1 0x1 DUP2 EQ PUSH2 0x2E45 JUMPI PUSH1 0x0 DUP4 ISZERO PUSH2 0x2C59 JUMPI POP DUP2 DUP6 ADD SLOAD PUSH1 0x1 DUP5 SWAP1 SHL PUSH1 0x0 NOT PUSH1 0x3 DUP7 SWAP1 SHL SHR NOT DUP3 AND OR PUSH2 0x2C6C JUMP JUMPDEST PUSH1 0x0 DUP6 DUP2 MSTORE PUSH1 0x20 SWAP1 KECCAK256 PUSH1 0x1F NOT DUP5 AND SWAP1 PUSH1 0x0 DUP7 DUP2 MSTORE PUSH1 0x20 SWAP1 KECCAK256 DUP5 JUMPDEST DUP4 DUP2 LT ISZERO PUSH2 0x2E7F JUMPI DUP3 DUP7 ADD SLOAD DUP3 SSTORE PUSH1 0x1 SWAP6 DUP7 ADD SWAP6 SWAP1 SWAP2 ADD SWAP1 PUSH1 0x20 ADD PUSH2 0x2E5F JUMP JUMPDEST POP DUP6 DUP4 LT ISZERO PUSH2 0x2E9D JUMPI DUP2 DUP6 ADD SLOAD PUSH1 0x0 NOT PUSH1 0x3 DUP9 SWAP1 SHL PUSH1 0xF8 AND SHR NOT AND DUP2 SSTORE JUMPDEST POP POP POP POP POP PUSH1 0x1 SWAP1 DUP2 SHL ADD SWAP1 SSTORE POP JUMP JUMPDEST PUSH4 0x4E487B71 PUSH1 0xE0 SHL PUSH1 0x0 MSTORE PUSH1 0x31 PUSH1 0x4 MSTORE PUSH1 0x24 PUSH1 0x0 REVERT INVALID PUSH9 0xE79A7BF1E0BC45D0A3 ADDRESS 0xC5 PUSH20 0xBC367F9CF464FD326078812F301165FBDA4EF1A4 SWAP9 SMOD KECCAK256 TLOAD 0xE4 0xD3 SSTORE MULMOD 0x2E CREATE2 0xA8 LOG1 DUP16 JUMP 0xE8 SWAP2 EXTCODECOPY DELEGATECALL LOG2 ADD 0xFB 0xE2 DUP8 DUP3 JUMPDEST MULMOD JUMP SWAP4 0xC2 OR PUSH22 0xA26469706673582212203F35931523616F4A514ADBAB 0x23 XOR DUP11 0xC8 JUMPI MLOAD 0xBB 0xBF PUSH7 0x54A70C682462AB 0x4E 0xCF 0xD8 EXTCODECOPY PUSH5 0x736F6C6343 STOP ADDMOD SHL STOP CALLER "},"methodIdentifiers":{"ADMIN_ROLE()":"75b238fc","DEFAULT_ADMIN_ROLE()":"a217fddf","ORACLE_ROLE()":"07e2cea5","activeNodes(uint256)":"96f9d983","activeRoots(uint256)":"189a393c","completeReplication(string,string[])":"d71aec02","deactivateNode(string)":"420c26de","getActiveNodes()":"6b51e919","getActiveRoots()":"dcccc765","getRoleAdmin(bytes32)":"248a9ca3","getStorageEntry(string)":"1b910341","getStorageNode(string)":"50c32711","getStorageStats()":"537b633a","grantOracleRole(address)":"df9c49a3","grantRole(bytes32,address)":"2f2ff15d","hasRole(bytes32,address)":"91d14854","hasSufficientReplication(string)":"dbdb2f90","minReplicationFactor()":"15ae7cfd","nodeDataMap(string,uint256)":"fd1b316a","registerDataStorage(string,string[],uint256,bytes32)":"4d0b6a88","registerNode(string,uint256)":"f3ef747f","removeDataStorage(string)":"766695ed","renounceRole(bytes32,address)":"36568abe","replicationRequests(string)":"4128009a","requestReplication(string,uint256)":"c7e66d00","revokeOracleRole(address)":"a5cbe415","revokeRole(bytes32,address)":"d547741f","setMinReplicationFactor(uint256)":"581eac50","storageEntries(string)":"0d92bc56","storageNodes(string)":"ca47e5e8","supportsInterface(bytes4)":"01ffc9a7","totalActiveNodes()":"49a57477","totalStoredData()":"98eb92f8","updateNodeStatus(string,uint256,uint256)":"72788a62","verifyIntegrity(string,string,bytes32)":"19b0eb36"}}}}}