{
  "_format": "hh-sol-artifact-1",
  "contractName": "VectorRegistry",
  "sourceName": "contracts/VectorRegistry.sol",
  "abi": [
    {
      "inputs": [],
      "stateMutability": "nonpayable",
      "type": "constructor"
    },
    {
      "inputs": [],
      "name": "AccessControlBadConfirmation",
      "type": "error"
    },
    {
      "inputs": [
        {
          "internalType": "address",
          "name": "account",
          "type": "address"
        },
        {
          "internalType": "bytes32",
          "name": "neededRole",
          "type": "bytes32"
        }
      ],
      "name": "AccessControlUnauthorizedAccount",
      "type": "error"
    },
    {
      "inputs": [],
      "name": "EnforcedPause",
      "type": "error"
    },
    {
      "inputs": [],
      "name": "ExpectedPause",
      "type": "error"
    },
    {
      "inputs": [],
      "name": "ReentrancyGuardReentrantCall",
      "type": "error"
    },
    {
      "anonymous": false,
      "inputs": [
        {
          "indexed": true,
          "internalType": "string",
          "name": "collectionId",
          "type": "string"
        },
        {
          "indexed": true,
          "internalType": "address",
          "name": "user",
          "type": "address"
        }
      ],
      "name": "AccessGranted",
      "type": "event"
    },
    {
      "anonymous": false,
      "inputs": [
        {
          "indexed": true,
          "internalType": "string",
          "name": "collectionId",
          "type": "string"
        },
        {
          "indexed": true,
          "internalType": "address",
          "name": "user",
          "type": "address"
        }
      ],
      "name": "AccessRevoked",
      "type": "event"
    },
    {
      "anonymous": false,
      "inputs": [
        {
          "indexed": true,
          "internalType": "string",
          "name": "collectionId",
          "type": "string"
        },
        {
          "indexed": false,
          "internalType": "string",
          "name": "name",
          "type": "string"
        },
        {
          "indexed": true,
          "internalType": "address",
          "name": "owner",
          "type": "address"
        },
        {
          "indexed": false,
          "internalType": "uint256",
          "name": "dimension",
          "type": "uint256"
        }
      ],
      "name": "CollectionCreated",
      "type": "event"
    },
    {
      "anonymous": false,
      "inputs": [
        {
          "indexed": true,
          "internalType": "string",
          "name": "collectionId",
          "type": "string"
        },
        {
          "indexed": false,
          "internalType": "string",
          "name": "storageRoot",
          "type": "string"
        },
        {
          "indexed": false,
          "internalType": "uint256",
          "name": "vectorCount",
          "type": "uint256"
        }
      ],
      "name": "CollectionUpdated",
      "type": "event"
    },
    {
      "anonymous": false,
      "inputs": [
        {
          "indexed": false,
          "internalType": "address",
          "name": "account",
          "type": "address"
        }
      ],
      "name": "Paused",
      "type": "event"
    },
    {
      "anonymous": false,
      "inputs": [
        {
          "indexed": true,
          "internalType": "bytes32",
          "name": "role",
          "type": "bytes32"
        },
        {
          "indexed": true,
          "internalType": "bytes32",
          "name": "previousAdminRole",
          "type": "bytes32"
        },
        {
          "indexed": true,
          "internalType": "bytes32",
          "name": "newAdminRole",
          "type": "bytes32"
        }
      ],
      "name": "RoleAdminChanged",
      "type": "event"
    },
    {
      "anonymous": false,
      "inputs": [
        {
          "indexed": true,
          "internalType": "bytes32",
          "name": "role",
          "type": "bytes32"
        },
        {
          "indexed": true,
          "internalType": "address",
          "name": "account",
          "type": "address"
        },
        {
          "indexed": true,
          "internalType": "address",
          "name": "sender",
          "type": "address"
        }
      ],
      "name": "RoleGranted",
      "type": "event"
    },
    {
      "anonymous": false,
      "inputs": [
        {
          "indexed": true,
          "internalType": "bytes32",
          "name": "role",
          "type": "bytes32"
        },
        {
          "indexed": true,
          "internalType": "address",
          "name": "account",
          "type": "address"
        },
        {
          "indexed": true,
          "internalType": "address",
          "name": "sender",
          "type": "address"
        }
      ],
      "name": "RoleRevoked",
      "type": "event"
    },
    {
      "anonymous": false,
      "inputs": [
        {
          "indexed": false,
          "internalType": "address",
          "name": "account",
          "type": "address"
        }
      ],
      "name": "Unpaused",
      "type": "event"
    },
    {
      "anonymous": false,
      "inputs": [
        {
          "indexed": true,
          "internalType": "string",
          "name": "collectionId",
          "type": "string"
        },
        {
          "indexed": true,
          "internalType": "string",
          "name": "vectorId",
          "type": "string"
        },
        {
          "indexed": true,
          "internalType": "address",
          "name": "user",
          "type": "address"
        },
        {
          "indexed": false,
          "internalType": "string",
          "name": "storageHash",
          "type": "string"
        }
      ],
      "name": "VectorAdded",
      "type": "event"
    },
    {
      "anonymous": false,
      "inputs": [
        {
          "indexed": true,
          "internalType": "string",
          "name": "collectionId",
          "type": "string"
        },
        {
          "indexed": true,
          "internalType": "string",
          "name": "vectorId",
          "type": "string"
        }
      ],
      "name": "VectorRemoved",
      "type": "event"
    },
    {
      "inputs": [],
      "name": "ADMIN_ROLE",
      "outputs": [
        {
          "internalType": "bytes32",
          "name": "",
          "type": "bytes32"
        }
      ],
      "stateMutability": "view",
      "type": "function"
    },
    {
      "inputs": [],
      "name": "DEFAULT_ADMIN_ROLE",
      "outputs": [
        {
          "internalType": "bytes32",
          "name": "",
          "type": "bytes32"
        }
      ],
      "stateMutability": "view",
      "type": "function"
    },
    {
      "inputs": [],
      "name": "OPERATOR_ROLE",
      "outputs": [
        {
          "internalType": "bytes32",
          "name": "",
          "type": "bytes32"
        }
      ],
      "stateMutability": "view",
      "type": "function"
    },
    {
      "inputs": [],
      "name": "USER_ROLE",
      "outputs": [
        {
          "internalType": "bytes32",
          "name": "",
          "type": "bytes32"
        }
      ],
      "stateMutability": "view",
      "type": "function"
    },
    {
      "inputs": [
        {
          "internalType": "string",
          "name": "collectionId",
          "type": "string"
        },
        {
          "internalType": "string",
          "name": "vectorId",
          "type": "string"
        },
        {
          "internalType": "string",
          "name": "storageHash",
          "type": "string"
        },
        {
          "internalType": "bytes32",
          "name": "contentHash",
          "type": "bytes32"
        }
      ],
      "name": "addVectorMetadata",
      "outputs": [],
      "stateMutability": "nonpayable",
      "type": "function"
    },
    {
      "inputs": [
        {
          "internalType": "string",
          "name": "",
          "type": "string"
        },
        {
          "internalType": "address",
          "name": "",
          "type": "address"
        }
      ],
      "name": "collectionAccess",
      "outputs": [
        {
          "internalType": "bool",
          "name": "",
          "type": "bool"
        }
      ],
      "stateMutability": "view",
      "type": "function"
    },
    {
      "inputs": [
        {
          "internalType": "uint256",
          "name": "",
          "type": "uint256"
        }
      ],
      "name": "collectionIds",
      "outputs": [
        {
          "internalType": "string",
          "name": "",
          "type": "string"
        }
      ],
      "stateMutability": "view",
      "type": "function"
    },
    {
      "inputs": [
        {
          "internalType": "string",
          "name": "",
          "type": "string"
        },
        {
          "internalType": "uint256",
          "name": "",
          "type": "uint256"
        }
      ],
      "name": "collectionUsers",
      "outputs": [
        {
          "internalType": "address",
          "name": "",
          "type": "address"
        }
      ],
      "stateMutability": "view",
      "type": "function"
    },
    {
      "inputs": [
        {
          "internalType": "string",
          "name": "",
          "type": "string"
        }
      ],
      "name": "collections",
      "outputs": [
        {
          "internalType": "string",
          "name": "name",
          "type": "string"
        },
        {
          "internalType": "string",
          "name": "description",
          "type": "string"
        },
        {
          "internalType": "uint256",
          "name": "dimension",
          "type": "uint256"
        },
        {
          "internalType": "uint256",
          "name": "vectorCount",
          "type": "uint256"
        },
        {
          "internalType": "address",
          "name": "owner",
          "type": "address"
        },
        {
          "internalType": "bool",
          "name": "isPublic",
          "type": "bool"
        },
        {
          "internalType": "uint256",
          "name": "createdAt",
          "type": "uint256"
        },
        {
          "internalType": "uint256",
          "name": "updatedAt",
          "type": "uint256"
        },
        {
          "internalType": "string",
          "name": "storageRoot",
          "type": "string"
        },
        {
          "internalType": "bytes32",
          "name": "metadataHash",
          "type": "bytes32"
        }
      ],
      "stateMutability": "view",
      "type": "function"
    },
    {
      "inputs": [
        {
          "internalType": "string",
          "name": "collectionId",
          "type": "string"
        },
        {
          "internalType": "string",
          "name": "name",
          "type": "string"
        },
        {
          "internalType": "string",
          "name": "description",
          "type": "string"
        },
        {
          "internalType": "uint256",
          "name": "dimension",
          "type": "uint256"
        },
        {
          "internalType": "bool",
          "name": "isPublic",
          "type": "bool"
        }
      ],
      "name": "createCollection",
      "outputs": [],
      "stateMutability": "nonpayable",
      "type": "function"
    },
    {
      "inputs": [],
      "name": "getAllCollections",
      "outputs": [
        {
          "internalType": "string[]",
          "name": "",
          "type": "string[]"
        }
      ],
      "stateMutability": "view",
      "type": "function"
    },
    {
      "inputs": [
        {
          "internalType": "string",
          "name": "collectionId",
          "type": "string"
        }
      ],
      "name": "getCollection",
      "outputs": [
        {
          "components": [
            {
              "internalType": "string",
              "name": "name",
              "type": "string"
            },
            {
              "internalType": "string",
              "name": "description",
              "type": "string"
            },
            {
              "internalType": "uint256",
              "name": "dimension",
              "type": "uint256"
            },
            {
              "internalType": "uint256",
              "name": "vectorCount",
              "type": "uint256"
            },
            {
              "internalType": "address",
              "name": "owner",
              "type": "address"
            },
            {
              "internalType": "bool",
              "name": "isPublic",
              "type": "bool"
            },
            {
              "internalType": "uint256",
              "name": "createdAt",
              "type": "uint256"
            },
            {
              "internalType": "uint256",
              "name": "updatedAt",
              "type": "uint256"
            },
            {
              "internalType": "string",
              "name": "storageRoot",
              "type": "string"
            },
            {
              "internalType": "bytes32",
              "name": "metadataHash",
              "type": "bytes32"
            }
          ],
          "internalType": "struct VectorRegistry.Collection",
          "name": "",
          "type": "tuple"
        }
      ],
      "stateMutability": "view",
      "type": "function"
    },
    {
      "inputs": [
        {
          "internalType": "string",
          "name": "collectionId",
          "type": "string"
        }
      ],
      "name": "getCollectionUsers",
      "outputs": [
        {
          "internalType": "address[]",
          "name": "",
          "type": "address[]"
        }
      ],
      "stateMutability": "view",
      "type": "function"
    },
    {
      "inputs": [
        {
          "internalType": "bytes32",
          "name": "role",
          "type": "bytes32"
        }
      ],
      "name": "getRoleAdmin",
      "outputs": [
        {
          "internalType": "bytes32",
          "name": "",
          "type": "bytes32"
        }
      ],
      "stateMutability": "view",
      "type": "function"
    },
    {
      "inputs": [],
      "name": "getStats",
      "outputs": [
        {
          "internalType": "uint256",
          "name": "",
          "type": "uint256"
        },
        {
          "internalType": "uint256",
          "name": "",
          "type": "uint256"
        },
        {
          "internalType": "uint256",
          "name": "",
          "type": "uint256"
        }
      ],
      "stateMutability": "view",
      "type": "function"
    },
    {
      "inputs": [
        {
          "internalType": "address",
          "name": "user",
          "type": "address"
        }
      ],
      "name": "getUserCollections",
      "outputs": [
        {
          "internalType": "string[]",
          "name": "",
          "type": "string[]"
        }
      ],
      "stateMutability": "view",
      "type": "function"
    },
    {
      "inputs": [
        {
          "internalType": "string",
          "name": "collectionId",
          "type": "string"
        },
        {
          "internalType": "string",
          "name": "vectorId",
          "type": "string"
        },
        {
          "internalType": "string",
          "name": "key",
          "type": "string"
        }
      ],
      "name": "getVectorAttribute",
      "outputs": [
        {
          "internalType": "string",
          "name": "",
          "type": "string"
        }
      ],
      "stateMutability": "view",
      "type": "function"
    },
    {
      "inputs": [
        {
          "internalType": "string",
          "name": "collectionId",
          "type": "string"
        },
        {
          "internalType": "string",
          "name": "vectorId",
          "type": "string"
        }
      ],
      "name": "getVectorMetadata",
      "outputs": [
        {
          "internalType": "string",
          "name": "",
          "type": "string"
        },
        {
          "internalType": "string",
          "name": "",
          "type": "string"
        },
        {
          "internalType": "uint256",
          "name": "",
          "type": "uint256"
        },
        {
          "internalType": "bytes32",
          "name": "",
          "type": "bytes32"
        }
      ],
      "stateMutability": "view",
      "type": "function"
    },
    {
      "inputs": [
        {
          "internalType": "string",
          "name": "collectionId",
          "type": "string"
        },
        {
          "internalType": "address",
          "name": "user",
          "type": "address"
        }
      ],
      "name": "grantAccess",
      "outputs": [],
      "stateMutability": "nonpayable",
      "type": "function"
    },
    {
      "inputs": [
        {
          "internalType": "bytes32",
          "name": "role",
          "type": "bytes32"
        },
        {
          "internalType": "address",
          "name": "account",
          "type": "address"
        }
      ],
      "name": "grantRole",
      "outputs": [],
      "stateMutability": "nonpayable",
      "type": "function"
    },
    {
      "inputs": [
        {
          "internalType": "address",
          "name": "user",
          "type": "address"
        }
      ],
      "name": "grantUserRole",
      "outputs": [],
      "stateMutability": "nonpayable",
      "type": "function"
    },
    {
      "inputs": [
        {
          "internalType": "string",
          "name": "collectionId",
          "type": "string"
        },
        {
          "internalType": "address",
          "name": "user",
          "type": "address"
        }
      ],
      "name": "hasAccess",
      "outputs": [
        {
          "internalType": "bool",
          "name": "",
          "type": "bool"
        }
      ],
      "stateMutability": "view",
      "type": "function"
    },
    {
      "inputs": [
        {
          "internalType": "bytes32",
          "name": "role",
          "type": "bytes32"
        },
        {
          "internalType": "address",
          "name": "account",
          "type": "address"
        }
      ],
      "name": "hasRole",
      "outputs": [
        {
          "internalType": "bool",
          "name": "",
          "type": "bool"
        }
      ],
      "stateMutability": "view",
      "type": "function"
    },
    {
      "inputs": [],
      "name": "pause",
      "outputs": [],
      "stateMutability": "nonpayable",
      "type": "function"
    },
    {
      "inputs": [],
      "name": "paused",
      "outputs": [
        {
          "internalType": "bool",
          "name": "",
          "type": "bool"
        }
      ],
      "stateMutability": "view",
      "type": "function"
    },
    {
      "inputs": [
        {
          "internalType": "string",
          "name": "collectionId",
          "type": "string"
        },
        {
          "internalType": "string",
          "name": "vectorId",
          "type": "string"
        }
      ],
      "name": "removeVectorMetadata",
      "outputs": [],
      "stateMutability": "nonpayable",
      "type": "function"
    },
    {
      "inputs": [
        {
          "internalType": "bytes32",
          "name": "role",
          "type": "bytes32"
        },
        {
          "internalType": "address",
          "name": "callerConfirmation",
          "type": "address"
        }
      ],
      "name": "renounceRole",
      "outputs": [],
      "stateMutability": "nonpayable",
      "type": "function"
    },
    {
      "inputs": [
        {
          "internalType": "string",
          "name": "collectionId",
          "type": "string"
        },
        {
          "internalType": "address",
          "name": "user",
          "type": "address"
        }
      ],
      "name": "revokeAccess",
      "outputs": [],
      "stateMutability": "nonpayable",
      "type": "function"
    },
    {
      "inputs": [
        {
          "internalType": "bytes32",
          "name": "role",
          "type": "bytes32"
        },
        {
          "internalType": "address",
          "name": "account",
          "type": "address"
        }
      ],
      "name": "revokeRole",
      "outputs": [],
      "stateMutability": "nonpayable",
      "type": "function"
    },
    {
      "inputs": [
        {
          "internalType": "string",
          "name": "collectionId",
          "type": "string"
        },
        {
          "internalType": "string",
          "name": "vectorId",
          "type": "string"
        },
        {
          "internalType": "string",
          "name": "key",
          "type": "string"
        },
        {
          "internalType": "string",
          "name": "value",
          "type": "string"
        }
      ],
      "name": "setVectorAttribute",
      "outputs": [],
      "stateMutability": "nonpayable",
      "type": "function"
    },
    {
      "inputs": [
        {
          "internalType": "bytes4",
          "name": "interfaceId",
          "type": "bytes4"
        }
      ],
      "name": "supportsInterface",
      "outputs": [
        {
          "internalType": "bool",
          "name": "",
          "type": "bool"
        }
      ],
      "stateMutability": "view",
      "type": "function"
    },
    {
      "inputs": [],
      "name": "totalCollections",
      "outputs": [
        {
          "internalType": "uint256",
          "name": "",
          "type": "uint256"
        }
      ],
      "stateMutability": "view",
      "type": "function"
    },
    {
      "inputs": [],
      "name": "totalVectors",
      "outputs": [
        {
          "internalType": "uint256",
          "name": "",
          "type": "uint256"
        }
      ],
      "stateMutability": "view",
      "type": "function"
    },
    {
      "inputs": [],
      "name": "unpause",
      "outputs": [],
      "stateMutability": "nonpayable",
      "type": "function"
    },
    {
      "inputs": [
        {
          "internalType": "string",
          "name": "collectionId",
          "type": "string"
        },
        {
          "internalType": "string",
          "name": "storageRoot",
          "type": "string"
        },
        {
          "internalType": "uint256",
          "name": "vectorCount",
          "type": "uint256"
        },
        {
          "internalType": "bytes32",
          "name": "metadataHash",
          "type": "bytes32"
        }
      ],
      "name": "updateCollection",
      "outputs": [],
      "stateMutability": "nonpayable",
      "type": "function"
    },
    {
      "inputs": [
        {
          "internalType": "address",
          "name": "",
          "type": "address"
        },
        {
          "internalType": "uint256",
          "name": "",
          "type": "uint256"
        }
      ],
      "name": "userCollections",
      "outputs": [
        {
          "internalType": "string",
          "name": "",
          "type": "string"
        }
      ],
      "stateMutability": "view",
      "type": "function"
    },
    {
      "inputs": [
        {
          "internalType": "string",
          "name": "",
          "type": "string"
        }
      ],
      "name": "vectorMetadata",
      "outputs": [
        {
          "internalType": "string",
          "name": "collectionId",
          "type": "string"
        },
        {
          "internalType": "string",
          "name": "vectorId",
          "type": "string"
        },
        {
          "internalType": "string",
          "name": "storageHash",
          "type": "string"
        },
        {
          "internalType": "uint256",
          "name": "timestamp",
          "type": "uint256"
        },
        {
          "internalType": "bytes32",
          "name": "contentHash",
          "type": "bytes32"
        }
      ],
      "stateMutability": "view",
      "type": "function"
    }
  ],
  "bytecode": "0x608060405234801561001057600080fd5b50600180556100206000336100a7565b5061004b7fa49807205ce4d355092ef5a8a18f56e8913cf4a201fbe287825b095693c21775336100a7565b506100767f97667070c54ef182b0f5858b034beac1b6f3089aa2d3188bb1e8929f4fa9b929336100a7565b506100a17f14823911f2da1b49f045a0929a60b8c1f2a7fc8c06c7284ca3e8ab4e193a08c8336100a7565b50610153565b6000828152602081815260408083206001600160a01b038516845290915281205460ff16610149576000838152602081815260408083206001600160a01b03861684529091529020805460ff191660011790556101013390565b6001600160a01b0316826001600160a01b0316847f2f8788117e7eff1d82e926ec794901d17c78024a50270940304540a733656f0d60405160405180910390a450600161014d565b5060005b92915050565b6131ed806101626000396000f3fe608060405234801561001057600080fd5b50600436106102275760003560e01c80636804a95811610130578063a279615d116100b8578063d547741f1161007c578063d547741f1461054e578063dfe0b5fe14610561578063f37c215e14610574578063f5b541a614610587578063faa8a595146105ae57600080fd5b8063a279615d146104d7578063a40ef306146104ea578063a9b566a3146104f3578063b20d42e714610506578063c59d48471461052a57600080fd5b80638eb97625116100ff5780638eb97625146104485780638f8d7e5d1461046b57806391d14854146104a95780639aa5ad8c146104bc578063a217fddf146104cf57600080fd5b80636804a9581461040357806368660e3c1461041857806375b238fc1461042b5780638456cb591461044057600080fd5b806336568abe116101b35780635c975abb116101825780635c975abb146103885780635eb70a8914610393578063602511c5146103be57806361d9db2d146103d157806366e54d7b146103da57600080fd5b806336568abe1461033a5780633f4ba83a1461034d578063428a617114610355578063511e1ddb1461037557600080fd5b806320bee617116101fa57806320bee617146102bc578063248a9ca3146102d157806324c19b30146102f45780632bd0b05a146103075780632f2ff15d1461032757600080fd5b806301ffc9a71461022c5780630ff79b3314610254578063131191611461027457806313bd20e2146102a9575b600080fd5b61023f61023a366004612658565b6105c1565b60405190151581526020015b60405180910390f35b610267610262366004612725565b6105f8565b60405161024b91906127b1565b61029b7f14823911f2da1b49f045a0929a60b8c1f2a7fc8c06c7284ca3e8ab4e193a08c881565b60405190815260200161024b565b61023f6102b7366004612893565b61089e565b6102cf6102ca3660046128e0565b610952565b005b61029b6102df36600461299c565b60009081526020819052604090206001015490565b6102cf6103023660046129b5565b610b3f565b61031a610315366004612725565b610ec9565b60405161024b9190612a6a565b6102cf610335366004612ab6565b610f43565b6102cf610348366004612ab6565b610f6e565b6102cf610fa6565b610368610363366004612ad9565b610fc9565b60405161024b9190612b03565b6102cf610383366004612b16565b611082565b60025460ff1661023f565b6103a66103a1366004612baf565b611393565b6040516001600160a01b03909116815260200161024b565b6102cf6103cc366004612bf3565b6113da565b61029b60095481565b6103ed6103e8366004612725565b611581565b60405161024b9a99989796959493929190612c5a565b61040b611785565b60405161024b9190612cdd565b6102cf610426366004612d42565b61185e565b61029b60008051602061319883398151915281565b6102cf6118a0565b61045b610456366004612bf3565b6118c0565b60405161024b9493929190612d5d565b61023f610479366004612893565b81516020818401810180516007825292820194820194909420919093529091526000908152604090205460ff1681565b61023f6104b7366004612ab6565b611a4b565b61040b6104ca366004612d42565b611a74565b61029b600081565b6103686104e5366004612d96565b611b63565b61029b600a5481565b61036861050136600461299c565b611c5b565b610519610514366004612725565b611c86565b60405161024b959493929190612e27565b600954600a546008546040805193845260208401929092529082015260600161024b565b6102cf61055c366004612ab6565b611e57565b6102cf61056f366004612893565b611e7c565b6102cf610582366004612893565b611fd7565b61029b7f97667070c54ef182b0f5858b034beac1b6f3089aa2d3188bb1e8929f4fa9b92981565b6102cf6105bc366004612e75565b61220d565b60006001600160e01b03198216637965db0b60e01b14806105f257506301ffc9a760e01b6001600160e01b03198316145b92915050565b61065c6040518061014001604052806060815260200160608152602001600081526020016000815260200160006001600160a01b03168152602001600015158152602001600081526020016000815260200160608152602001600080191681525090565b60038260405161066c9190612eec565b90815260200160405180910390206040518061014001604052908160008201805461069690612f08565b80601f01602080910402602001604051908101604052809291908181526020018280546106c290612f08565b801561070f5780601f106106e45761010080835404028352916020019161070f565b820191906000526020600020905b8154815290600101906020018083116106f257829003601f168201915b5050505050815260200160018201805461072890612f08565b80601f016020809104026020016040519081016040528092919081815260200182805461075490612f08565b80156107a15780601f10610776576101008083540402835291602001916107a1565b820191906000526020600020905b81548152906001019060200180831161078457829003601f168201915b5050509183525050600282015460208201526003820154604082015260048201546001600160a01b0381166060830152600160a01b900460ff1615156080820152600582015460a0820152600682015460c082015260078201805460e09092019161080b90612f08565b80601f016020809104026020016040519081016040528092919081815260200182805461083790612f08565b80156108845780601f1061085957610100808354040283529160200191610884565b820191906000526020600020905b81548152906001019060200180831161086757829003601f168201915b505050505081526020016008820154815250509050919050565b60006003836040516108b09190612eec565b9081526040519081900360200190206004015460ff600160a01b909104168061090c5750816001600160a01b03166003846040516108ee9190612eec565b908152604051908190036020019020600401546001600160a01b0316145b8061094b57506007836040516109229190612eec565b90815260408051602092819003830190206001600160a01b0385166000908152925290205460ff165b9392505050565b61095a6123ee565b8360006001600160a01b03166003826040516109769190612eec565b908152604051908190036020019020600401546001600160a01b0316036109b85760405162461bcd60e51b81526004016109af90612f42565b60405180910390fd5b846003816040516109c99190612eec565b9081526040519081900360200190206004015460ff600160a01b9091041680610a255750336001600160a01b0316600382604051610a079190612eec565b908152604051908190036020019020600401546001600160a01b0316145b80610a5b5750600781604051610a3b9190612eec565b9081526040805160209281900383019020336000908152925290205460ff165b80610a795750610a7960008051602061319883398151915233611a4b565b610ac55760405162461bcd60e51b815260206004820152601d60248201527f566563746f7252656769737472793a204163636573732064656e69656400000060448201526064016109af565b60008686604051602001610ada929190612f8b565b604051602081830303815290604052905083600482604051610afc9190612eec565b908152602001604051809103902060050186604051610b1b9190612eec565b90815260200160405180910390209081610b359190613015565b5050505050505050565b610b476123ee565b610b717f14823911f2da1b49f045a0929a60b8c1f2a7fc8c06c7284ca3e8ab4e193a08c833611a4b565b610bc85760405162461bcd60e51b815260206004820152602260248201527f566563746f7252656769737472793a205573657220726f6c6520726571756972604482015261195960f21b60648201526084016109af565b6000855111610c275760405162461bcd60e51b815260206004820152602560248201527f566563746f7252656769737472793a20496e76616c696420636f6c6c656374696044820152641bdb88125160da1b60648201526084016109af565b6000845111610c885760405162461bcd60e51b815260206004820152602760248201527f566563746f7252656769737472793a20496e76616c696420636f6c6c656374696044820152666f6e206e616d6560c81b60648201526084016109af565b60008211610ce25760405162461bcd60e51b815260206004820152602160248201527f566563746f7252656769737472793a20496e76616c69642064696d656e73696f6044820152603760f91b60648201526084016109af565b60006001600160a01b0316600386604051610cfd9190612eec565b908152604051908190036020019020600401546001600160a01b031614610d785760405162461bcd60e51b815260206004820152602960248201527f566563746f7252656769737472793a20436f6c6c656374696f6e20616c72656160448201526864792065786973747360b81b60648201526084016109af565b6000600386604051610d8a9190612eec565b908152604051908190036020019020905080610da68682613015565b5060018101610db58582613015565b50600281018390556000600382018190556004820180546001600160a81b0319163360ff60a01b191617600160a01b85151502179055426005830181905560068301556008805460018101825591527ff3f7a9fe364faab93b216da50a3214154f22a0a2b415b23a84c8169e8b636ee301610e308782613015565b5033600090815260056020908152604082208054600181018255908352912001610e5a8782613015565b5060098054906000610e6b836130e9565b90915550506040513390610e80908890612eec565b60405180910390207fced19707320d6f92deeb63e8e81f526fae6cae5fc347d536a24090ff232333218786604051610eb9929190613102565b60405180910390a3505050505050565b6060600682604051610edb9190612eec565b9081526040805191829003602090810183208054808302850183019093528284529190830182828015610f3757602002820191906000526020600020905b81546001600160a01b03168152600190910190602001808311610f19575b50505050509050919050565b600082815260208190526040902060010154610f5e81612414565b610f68838361241e565b50505050565b6001600160a01b0381163314610f975760405163334bd91960e11b815260040160405180910390fd5b610fa182826124b0565b505050565b600080516020613198833981519152610fbe81612414565b610fc661251b565b50565b60056020528160005260406000208181548110610fe557600080fd5b9060005260206000200160009150915050805461100190612f08565b80601f016020809104026020016040519081016040528092919081815260200182805461102d90612f08565b801561107a5780601f1061104f5761010080835404028352916020019161107a565b820191906000526020600020905b81548152906001019060200180831161105d57829003601f168201915b505050505081565b61108a6123ee565b8360006001600160a01b03166003826040516110a69190612eec565b908152604051908190036020019020600401546001600160a01b0316036110df5760405162461bcd60e51b81526004016109af90612f42565b846003816040516110f09190612eec565b9081526040519081900360200190206004015460ff600160a01b909104168061114c5750336001600160a01b031660038260405161112e9190612eec565b908152604051908190036020019020600401546001600160a01b0316145b8061118257506007816040516111629190612eec565b9081526040805160209281900383019020336000908152925290205460ff165b806111a057506111a060008051602061319883398151915233611a4b565b6111ec5760405162461bcd60e51b815260206004820152601d60248201527f566563746f7252656769737472793a204163636573732064656e69656400000060448201526064016109af565b60008551116112475760405162461bcd60e51b815260206004820152602160248201527f566563746f7252656769737472793a20496e76616c696420766563746f7220496044820152601160fa1b60648201526084016109af565b60008451116112a45760405162461bcd60e51b8152602060048201526024808201527f566563746f7252656769737472793a20496e76616c69642073746f72616765206044820152630d0c2e6d60e31b60648201526084016109af565b600086866040516020016112b9929190612f8b565b604051602081830303815290604052905060006004826040516112dc9190612eec565b9081526040519081900360200190209050806112f88982613015565b50600181016113078882613015565b50600281016113168782613015565b50426003820155600481018590556040513390611334908990612eec565b60405180910390208960405161134a9190612eec565b60405180910390207f02da1f39d6cc472b20653aa1e165a936e82481c4f406610bf13dd29641bac930896040516113819190612b03565b60405180910390a45050505050505050565b815160208184018101805160068252928201918501919091209190528054829081106113be57600080fd5b6000918252602090912001546001600160a01b03169150829050565b6113e26123ee565b8160006001600160a01b03166003826040516113fe9190612eec565b908152604051908190036020019020600401546001600160a01b0316036114375760405162461bcd60e51b81526004016109af90612f42565b82336001600160a01b03166003826040516114529190612eec565b908152604051908190036020019020600401546001600160a01b0316148061148d575061148d60008051602061319883398151915233611a4b565b6114a95760405162461bcd60e51b81526004016109af90613124565b600084846040516020016114be929190612f8b565b60405160208183030381529060405290506004816040516114df9190612eec565b90815260405190819003602001902060006114fa828261260a565b61150860018301600061260a565b61151660028301600061260a565b50600060038201819055600490910155604051611534908590612eec565b60405180910390208560405161154a9190612eec565b604051908190038120907fdbb26aac2670627581f388bfbd48901cbf0449af5e81771cc5f5b4b958c046b290600090a35050505050565b80516020818301810180516003825292820191909301209152805481906115a790612f08565b80601f01602080910402602001604051908101604052809291908181526020018280546115d390612f08565b80156116205780601f106115f557610100808354040283529160200191611620565b820191906000526020600020905b81548152906001019060200180831161160357829003601f168201915b50505050509080600101805461163590612f08565b80601f016020809104026020016040519081016040528092919081815260200182805461166190612f08565b80156116ae5780601f10611683576101008083540402835291602001916116ae565b820191906000526020600020905b81548152906001019060200180831161169157829003601f168201915b5050505060028301546003840154600485015460058601546006870154600788018054979895979496506001600160a01b03841695600160a01b90940460ff1694929391926116fc90612f08565b80601f016020809104026020016040519081016040528092919081815260200182805461172890612f08565b80156117755780601f1061174a57610100808354040283529160200191611775565b820191906000526020600020905b81548152906001019060200180831161175857829003601f168201915b505050505090806008015490508a565b60606008805480602002602001604051908101604052809291908181526020016000905b828210156118555783829060005260206000200180546117c890612f08565b80601f01602080910402602001604051908101604052809291908181526020018280546117f490612f08565b80156118415780601f1061181657610100808354040283529160200191611841565b820191906000526020600020905b81548152906001019060200180831161182457829003601f168201915b5050505050815260200190600101906117a9565b50505050905090565b60008051602061319883398151915261187681612414565b610fa17f14823911f2da1b49f045a0929a60b8c1f2a7fc8c06c7284ca3e8ab4e193a08c88361241e565b6000805160206131988339815191526118b881612414565b610fc661256d565b606080600080600086866040516020016118db929190612f8b565b604051602081830303815290604052905060006004826040516118fe9190612eec565b9081526020016040518091039020905080600201816000018260030154836004015483805461192c90612f08565b80601f016020809104026020016040519081016040528092919081815260200182805461195890612f08565b80156119a55780601f1061197a576101008083540402835291602001916119a5565b820191906000526020600020905b81548152906001019060200180831161198857829003601f168201915b505050505093508280546119b890612f08565b80601f01602080910402602001604051908101604052809291908181526020018280546119e490612f08565b8015611a315780601f10611a0657610100808354040283529160200191611a31565b820191906000526020600020905b815481529060010190602001808311611a1457829003601f168201915b505050505092509550955095509550505092959194509250565b6000918252602082815260408084206001600160a01b0393909316845291905290205460ff1690565b6001600160a01b0381166000908152600560209081526040808320805482518185028101850190935280835260609492939192909184015b82821015611b58578382906000526020600020018054611acb90612f08565b80601f0160208091040260200160405190810160405280929190818152602001828054611af790612f08565b8015611b445780601f10611b1957610100808354040283529160200191611b44565b820191906000526020600020905b815481529060010190602001808311611b2757829003601f168201915b505050505081526020019060010190611aac565b505050509050919050565b606060008484604051602001611b7a929190612f8b565b6040516020818303038152906040529050600481604051611b9b9190612eec565b908152602001604051809103902060050183604051611bba9190612eec565b90815260200160405180910390208054611bd390612f08565b80601f0160208091040260200160405190810160405280929190818152602001828054611bff90612f08565b8015611c4c5780601f10611c2157610100808354040283529160200191611c4c565b820191906000526020600020905b815481529060010190602001808311611c2f57829003601f168201915b50505050509150509392505050565b60088181548110611c6b57600080fd5b90600052602060002001600091509050805461100190612f08565b8051602081830181018051600482529282019190930120915280548190611cac90612f08565b80601f0160208091040260200160405190810160405280929190818152602001828054611cd890612f08565b8015611d255780601f10611cfa57610100808354040283529160200191611d25565b820191906000526020600020905b815481529060010190602001808311611d0857829003601f168201915b505050505090806001018054611d3a90612f08565b80601f0160208091040260200160405190810160405280929190818152602001828054611d6690612f08565b8015611db35780601f10611d8857610100808354040283529160200191611db3565b820191906000526020600020905b815481529060010190602001808311611d9657829003601f168201915b505050505090806002018054611dc890612f08565b80601f0160208091040260200160405190810160405280929190818152602001828054611df490612f08565b8015611e415780601f10611e1657610100808354040283529160200191611e41565b820191906000526020600020905b815481529060010190602001808311611e2457829003601f168201915b5050505050908060030154908060040154905085565b600082815260208190526040902060010154611e7281612414565b610f6883836124b0565b611e846123ee565b8160006001600160a01b0316600382604051611ea09190612eec565b908152604051908190036020019020600401546001600160a01b031603611ed95760405162461bcd60e51b81526004016109af90612f42565b82336001600160a01b0316600382604051611ef49190612eec565b908152604051908190036020019020600401546001600160a01b03161480611f2f5750611f2f60008051602061319883398151915233611a4b565b611f4b5760405162461bcd60e51b81526004016109af90613124565b6000600785604051611f5d9190612eec565b90815260408051602092819003830181206001600160a01b03881660008181529190945291909120805460ff19169315159390931790925590611fa1908690612eec565b604051908190038120907fa4056635223780a71518e8c10b6fc0fd195775c8375c4841c124a959ae5c30ad90600090a350505050565b611fdf6123ee565b8160006001600160a01b0316600382604051611ffb9190612eec565b908152604051908190036020019020600401546001600160a01b0316036120345760405162461bcd60e51b81526004016109af90612f42565b82336001600160a01b031660038260405161204f9190612eec565b908152604051908190036020019020600401546001600160a01b0316148061208a575061208a60008051602061319883398151915233611a4b565b6120a65760405162461bcd60e51b81526004016109af90613124565b6001600160a01b0383166121085760405162461bcd60e51b8152602060048201526024808201527f566563746f7252656769737472793a20496e76616c69642075736572206164646044820152637265737360e01b60648201526084016109af565b600160078560405161211a9190612eec565b90815260408051602092819003830181206001600160a01b038816600090815293529120805460ff19169215159290921790915560069061215c908690612eec565b9081526040805160209281900383019020805460018082018355600092835284832090910180546001600160a01b0319166001600160a01b03891690811790915582526005845291812080549283018155815291909120016121be8582613015565b50826001600160a01b0316846040516121d79190612eec565b604051908190038120907f780f596ecb91e1e030f57631a828b4c1f227615c1e11422248348930f6d2160c90600090a350505050565b6122156123ee565b8360006001600160a01b03166003826040516122319190612eec565b908152604051908190036020019020600401546001600160a01b03160361226a5760405162461bcd60e51b81526004016109af90612f42565b84336001600160a01b03166003826040516122859190612eec565b908152604051908190036020019020600401546001600160a01b031614806122c057506122c060008051602061319883398151915233611a4b565b6122dc5760405162461bcd60e51b81526004016109af90613124565b60006003876040516122ee9190612eec565b908152602001604051809103902090506000816003015486116123205785826003015461231b9190613171565b61232f565b600382015461232f9087613171565b9050816003015486111561235a5780600a600082825461234f9190613184565b909155506123729050565b80600a600082825461236c9190613171565b90915550505b600782016123808882613015565b5060038201869055600882018590554260068301556040516123a3908990612eec565b60405180910390207f57c4c76d95ee35e45af9587068b53cc5295544e4d065997304b7ec7182f99c8088886040516123dc929190613102565b60405180910390a25050505050505050565b60025460ff16156124125760405163d93c066560e01b815260040160405180910390fd5b565b610fc681336125aa565b600061242a8383611a4b565b6124a8576000838152602081815260408083206001600160a01b03861684529091529020805460ff191660011790556124603390565b6001600160a01b0316826001600160a01b0316847f2f8788117e7eff1d82e926ec794901d17c78024a50270940304540a733656f0d60405160405180910390a45060016105f2565b5060006105f2565b60006124bc8383611a4b565b156124a8576000838152602081815260408083206001600160a01b0386168085529252808320805460ff1916905551339286917ff6391f5c32d9c69d2a47ea670b442974b53935d1edc7fd64eb21e047a839171b9190a45060016105f2565b6125236125e7565b6002805460ff191690557f5db9ee0a495bf2e6ff9c91a7834c1ba4fdd244a5e8aa4e537bd38aeae4b073aa335b6040516001600160a01b03909116815260200160405180910390a1565b6125756123ee565b6002805460ff191660011790557f62e78cea01bee320cd4e420270b5ea74000d11b0c9f74754ebdbfc544b05a2586125503390565b6125b48282611a4b565b6125e35760405163e2517d3f60e01b81526001600160a01b0382166004820152602481018390526044016109af565b5050565b60025460ff1661241257604051638dfc202b60e01b815260040160405180910390fd5b50805461261690612f08565b6000825580601f10612626575050565b601f016020900490600052602060002090810190610fc691905b808211156126545760008155600101612640565b5090565b60006020828403121561266a57600080fd5b81356001600160e01b03198116811461094b57600080fd5b634e487b7160e01b600052604160045260246000fd5b600082601f8301126126a957600080fd5b81356001600160401b038111156126c2576126c2612682565b604051601f8201601f19908116603f011681016001600160401b03811182821017156126f0576126f0612682565b60405281815283820160200185101561270857600080fd5b816020850160208301376000918101602001919091529392505050565b60006020828403121561273757600080fd5b81356001600160401b0381111561274d57600080fd5b61275984828501612698565b949350505050565b60005b8381101561277c578181015183820152602001612764565b50506000910152565b6000815180845261279d816020860160208601612761565b601f01601f19169290920160200192915050565b602081526000825161014060208401526127cf610160840182612785565b90506020840151601f198483030160408501526127ec8282612785565b9150506040840151606084015260608401516080840152608084015161281d60a08501826001600160a01b03169052565b5060a084015180151560c08501525060c084015160e084015260e0840151610100840152610100840151601f198483030161012085015261285e8282612785565b9150506101208401516101408401528091505092915050565b80356001600160a01b038116811461288e57600080fd5b919050565b600080604083850312156128a657600080fd5b82356001600160401b038111156128bc57600080fd5b6128c885828601612698565b9250506128d760208401612877565b90509250929050565b600080600080608085870312156128f657600080fd5b84356001600160401b0381111561290c57600080fd5b61291887828801612698565b94505060208501356001600160401b0381111561293457600080fd5b61294087828801612698565b93505060408501356001600160401b0381111561295c57600080fd5b61296887828801612698565b92505060608501356001600160401b0381111561298457600080fd5b61299087828801612698565b91505092959194509250565b6000602082840312156129ae57600080fd5b5035919050565b600080600080600060a086880312156129cd57600080fd5b85356001600160401b038111156129e357600080fd5b6129ef88828901612698565b95505060208601356001600160401b03811115612a0b57600080fd5b612a1788828901612698565b94505060408601356001600160401b03811115612a3357600080fd5b612a3f88828901612698565b9350506060860135915060808601358015158114612a5c57600080fd5b809150509295509295909350565b602080825282518282018190526000918401906040840190835b81811015612aab5783516001600160a01b0316835260209384019390920191600101612a84565b509095945050505050565b60008060408385031215612ac957600080fd5b823591506128d760208401612877565b60008060408385031215612aec57600080fd5b612af583612877565b946020939093013593505050565b60208152600061094b6020830184612785565b60008060008060808587031215612b2c57600080fd5b84356001600160401b03811115612b4257600080fd5b612b4e87828801612698565b94505060208501356001600160401b03811115612b6a57600080fd5b612b7687828801612698565b93505060408501356001600160401b03811115612b9257600080fd5b612b9e87828801612698565b949793965093946060013593505050565b60008060408385031215612bc257600080fd5b82356001600160401b03811115612bd857600080fd5b612be485828601612698565b95602094909401359450505050565b60008060408385031215612c0657600080fd5b82356001600160401b03811115612c1c57600080fd5b612c2885828601612698565b92505060208301356001600160401b03811115612c4457600080fd5b612c5085828601612698565b9150509250929050565b61014081526000612c6f61014083018d612785565b8281036020840152612c81818d612785565b90508a604084015289606084015260018060a01b038916608084015287151560a08401528660c08401528560e0840152828103610100840152612cc48186612785565b915050826101208301529b9a5050505050505050505050565b6000602082016020835280845180835260408501915060408160051b86010192506020860160005b82811015612d3657603f19878603018452612d21858351612785565b94506020938401939190910190600101612d05565b50929695505050505050565b600060208284031215612d5457600080fd5b61094b82612877565b608081526000612d706080830187612785565b8281036020840152612d828187612785565b604084019590955250506060015292915050565b600080600060608486031215612dab57600080fd5b83356001600160401b03811115612dc157600080fd5b612dcd86828701612698565b93505060208401356001600160401b03811115612de957600080fd5b612df586828701612698565b92505060408401356001600160401b03811115612e1157600080fd5b612e1d86828701612698565b9150509250925092565b60a081526000612e3a60a0830188612785565b8281036020840152612e4c8188612785565b90508281036040840152612e608187612785565b60608401959095525050608001529392505050565b60008060008060808587031215612e8b57600080fd5b84356001600160401b03811115612ea157600080fd5b612ead87828801612698565b94505060208501356001600160401b03811115612ec957600080fd5b612ed587828801612698565b949794965050505060408301359260600135919050565b60008251612efe818460208701612761565b9190910192915050565b600181811c90821680612f1c57607f821691505b602082108103612f3c57634e487b7160e01b600052602260045260246000fd5b50919050565b60208082526029908201527f566563746f7252656769737472793a20436f6c6c656374696f6e20646f6573206040820152681b9bdd08195e1a5cdd60ba1b606082015260800190565b60008351612f9d818460208801612761565b601d60f91b9083019081528351612fbb816001840160208801612761565b01600101949350505050565b601f821115610fa157806000526020600020601f840160051c81016020851015612fee5750805b601f840160051c820191505b8181101561300e5760008155600101612ffa565b5050505050565b81516001600160401b0381111561302e5761302e612682565b6130428161303c8454612f08565b84612fc7565b6020601f821160018114613076576000831561305e5750848201515b600019600385901b1c1916600184901b17845561300e565b600084815260208120601f198516915b828110156130a65787850151825560209485019460019092019101613086565b50848210156130c45786840151600019600387901b60f8161c191681555b50505050600190811b01905550565b634e487b7160e01b600052601160045260246000fd5b6000600182016130fb576130fb6130d3565b5060010190565b6040815260006131156040830185612785565b90508260208301529392505050565b6020808252602d908201527f566563746f7252656769737472793a204e6f7420636f6c6c656374696f6e206f60408201526c3bb732b91037b91030b236b4b760991b606082015260800190565b818103818111156105f2576105f26130d3565b808201808211156105f2576105f26130d356fea49807205ce4d355092ef5a8a18f56e8913cf4a201fbe287825b095693c21775a26469706673582212206896f6adea97886697c462e843e09a9006f6020d4590af921ec35b8559e4c26664736f6c634300081b0033",
  "linkReferences": {},
  "deployedLinkReferences": {}
}