{
  "_format": "hh-sol-artifact-1",
  "contractName": "StorageOracle",
  "sourceName": "contracts/StorageOracle.sol",
  "abi": [
    {
      "inputs": [],
      "stateMutability": "nonpayable",
      "type": "constructor"
    },
    {
      "inputs": [],
      "name": "AccessControlBadConfirmation",
      "type": "error"
    },
    {
      "inputs": [
        {
          "internalType": "address",
          "name": "account",
          "type": "address"
        },
        {
          "internalType": "bytes32",
          "name": "neededRole",
          "type": "bytes32"
        }
      ],
      "name": "AccessControlUnauthorizedAccount",
      "type": "error"
    },
    {
      "inputs": [],
      "name": "ReentrancyGuardReentrantCall",
      "type": "error"
    },
    {
      "anonymous": false,
      "inputs": [
        {
          "indexed": true,
          "internalType": "string",
          "name": "root",
          "type": "string"
        },
        {
          "indexed": false,
          "internalType": "uint256",
          "name": "size",
          "type": "uint256"
        }
      ],
      "name": "DataRemoved",
      "type": "event"
    },
    {
      "anonymous": false,
      "inputs": [
        {
          "indexed": true,
          "internalType": "string",
          "name": "root",
          "type": "string"
        },
        {
          "indexed": false,
          "internalType": "string[]",
          "name": "nodeAddresses",
          "type": "string[]"
        },
        {
          "indexed": false,
          "internalType": "uint256",
          "name": "size",
          "type": "uint256"
        },
        {
          "indexed": false,
          "internalType": "uint256",
          "name": "replicationFactor",
          "type": "uint256"
        }
      ],
      "name": "DataStored",
      "type": "event"
    },
    {
      "anonymous": false,
      "inputs": [
        {
          "indexed": true,
          "internalType": "string",
          "name": "root",
          "type": "string"
        },
        {
          "indexed": true,
          "internalType": "string",
          "name": "nodeAddress",
          "type": "string"
        },
        {
          "indexed": false,
          "internalType": "bytes32",
          "name": "expectedHash",
          "type": "bytes32"
        },
        {
          "indexed": false,
          "internalType": "bytes32",
          "name": "actualHash",
          "type": "bytes32"
        }
      ],
      "name": "IntegrityViolation",
      "type": "event"
    },
    {
      "anonymous": false,
      "inputs": [
        {
          "indexed": true,
          "internalType": "string",
          "name": "nodeAddress",
          "type": "string"
        }
      ],
      "name": "NodeDeactivated",
      "type": "event"
    },
    {
      "anonymous": false,
      "inputs": [
        {
          "indexed": true,
          "internalType": "string",
          "name": "nodeAddress",
          "type": "string"
        },
        {
          "indexed": false,
          "internalType": "uint256",
          "name": "totalStorage",
          "type": "uint256"
        }
      ],
      "name": "NodeRegistered",
      "type": "event"
    },
    {
      "anonymous": false,
      "inputs": [
        {
          "indexed": true,
          "internalType": "string",
          "name": "nodeAddress",
          "type": "string"
        },
        {
          "indexed": false,
          "internalType": "uint256",
          "name": "usedStorage",
          "type": "uint256"
        },
        {
          "indexed": false,
          "internalType": "uint256",
          "name": "reliability",
          "type": "uint256"
        }
      ],
      "name": "NodeUpdated",
      "type": "event"
    },
    {
      "anonymous": false,
      "inputs": [
        {
          "indexed": true,
          "internalType": "string",
          "name": "root",
          "type": "string"
        },
        {
          "indexed": false,
          "internalType": "uint256",
          "name": "newReplicationFactor",
          "type": "uint256"
        }
      ],
      "name": "ReplicationCompleted",
      "type": "event"
    },
    {
      "anonymous": false,
      "inputs": [
        {
          "indexed": true,
          "internalType": "string",
          "name": "root",
          "type": "string"
        },
        {
          "indexed": false,
          "internalType": "uint256",
          "name": "targetReplicas",
          "type": "uint256"
        }
      ],
      "name": "ReplicationRequested",
      "type": "event"
    },
    {
      "anonymous": false,
      "inputs": [
        {
          "indexed": true,
          "internalType": "bytes32",
          "name": "role",
          "type": "bytes32"
        },
        {
          "indexed": true,
          "internalType": "bytes32",
          "name": "previousAdminRole",
          "type": "bytes32"
        },
        {
          "indexed": true,
          "internalType": "bytes32",
          "name": "newAdminRole",
          "type": "bytes32"
        }
      ],
      "name": "RoleAdminChanged",
      "type": "event"
    },
    {
      "anonymous": false,
      "inputs": [
        {
          "indexed": true,
          "internalType": "bytes32",
          "name": "role",
          "type": "bytes32"
        },
        {
          "indexed": true,
          "internalType": "address",
          "name": "account",
          "type": "address"
        },
        {
          "indexed": true,
          "internalType": "address",
          "name": "sender",
          "type": "address"
        }
      ],
      "name": "RoleGranted",
      "type": "event"
    },
    {
      "anonymous": false,
      "inputs": [
        {
          "indexed": true,
          "internalType": "bytes32",
          "name": "role",
          "type": "bytes32"
        },
        {
          "indexed": true,
          "internalType": "address",
          "name": "account",
          "type": "address"
        },
        {
          "indexed": true,
          "internalType": "address",
          "name": "sender",
          "type": "address"
        }
      ],
      "name": "RoleRevoked",
      "type": "event"
    },
    {
      "inputs": [],
      "name": "ADMIN_ROLE",
      "outputs": [
        {
          "internalType": "bytes32",
          "name": "",
          "type": "bytes32"
        }
      ],
      "stateMutability": "view",
      "type": "function"
    },
    {
      "inputs": [],
      "name": "DEFAULT_ADMIN_ROLE",
      "outputs": [
        {
          "internalType": "bytes32",
          "name": "",
          "type": "bytes32"
        }
      ],
      "stateMutability": "view",
      "type": "function"
    },
    {
      "inputs": [],
      "name": "ORACLE_ROLE",
      "outputs": [
        {
          "internalType": "bytes32",
          "name": "",
          "type": "bytes32"
        }
      ],
      "stateMutability": "view",
      "type": "function"
    },
    {
      "inputs": [
        {
          "internalType": "uint256",
          "name": "",
          "type": "uint256"
        }
      ],
      "name": "activeNodes",
      "outputs": [
        {
          "internalType": "string",
          "name": "",
          "type": "string"
        }
      ],
      "stateMutability": "view",
      "type": "function"
    },
    {
      "inputs": [
        {
          "internalType": "uint256",
          "name": "",
          "type": "uint256"
        }
      ],
      "name": "activeRoots",
      "outputs": [
        {
          "internalType": "string",
          "name": "",
          "type": "string"
        }
      ],
      "stateMutability": "view",
      "type": "function"
    },
    {
      "inputs": [
        {
          "internalType": "string",
          "name": "root",
          "type": "string"
        },
        {
          "internalType": "string[]",
          "name": "newNodeAddresses",
          "type": "string[]"
        }
      ],
      "name": "completeReplication",
      "outputs": [],
      "stateMutability": "nonpayable",
      "type": "function"
    },
    {
      "inputs": [
        {
          "internalType": "string",
          "name": "nodeAddress",
          "type": "string"
        }
      ],
      "name": "deactivateNode",
      "outputs": [],
      "stateMutability": "nonpayable",
      "type": "function"
    },
    {
      "inputs": [],
      "name": "getActiveNodes",
      "outputs": [
        {
          "internalType": "string[]",
          "name": "",
          "type": "string[]"
        }
      ],
      "stateMutability": "view",
      "type": "function"
    },
    {
      "inputs": [],
      "name": "getActiveRoots",
      "outputs": [
        {
          "internalType": "string[]",
          "name": "",
          "type": "string[]"
        }
      ],
      "stateMutability": "view",
      "type": "function"
    },
    {
      "inputs": [
        {
          "internalType": "bytes32",
          "name": "role",
          "type": "bytes32"
        }
      ],
      "name": "getRoleAdmin",
      "outputs": [
        {
          "internalType": "bytes32",
          "name": "",
          "type": "bytes32"
        }
      ],
      "stateMutability": "view",
      "type": "function"
    },
    {
      "inputs": [
        {
          "internalType": "string",
          "name": "root",
          "type": "string"
        }
      ],
      "name": "getStorageEntry",
      "outputs": [
        {
          "components": [
            {
              "internalType": "string",
              "name": "root",
              "type": "string"
            },
            {
              "internalType": "string[]",
              "name": "nodeAddresses",
              "type": "string[]"
            },
            {
              "internalType": "uint256",
              "name": "size",
              "type": "uint256"
            },
            {
              "internalType": "uint256",
              "name": "replicationFactor",
              "type": "uint256"
            },
            {
              "internalType": "uint256",
              "name": "timestamp",
              "type": "uint256"
            },
            {
              "internalType": "bool",
              "name": "isActive",
              "type": "bool"
            },
            {
              "internalType": "bytes32",
              "name": "integrityHash",
              "type": "bytes32"
            }
          ],
          "internalType": "struct StorageOracle.StorageEntry",
          "name": "",
          "type": "tuple"
        }
      ],
      "stateMutability": "view",
      "type": "function"
    },
    {
      "inputs": [
        {
          "internalType": "string",
          "name": "nodeAddress",
          "type": "string"
        }
      ],
      "name": "getStorageNode",
      "outputs": [
        {
          "components": [
            {
              "internalType": "string",
              "name": "nodeAddress",
              "type": "string"
            },
            {
              "internalType": "uint256",
              "name": "totalStorage",
              "type": "uint256"
            },
            {
              "internalType": "uint256",
              "name": "usedStorage",
              "type": "uint256"
            },
            {
              "internalType": "uint256",
              "name": "reliability",
              "type": "uint256"
            },
            {
              "internalType": "uint256",
              "name": "lastSeen",
              "type": "uint256"
            },
            {
              "internalType": "bool",
              "name": "isActive",
              "type": "bool"
            }
          ],
          "internalType": "struct StorageOracle.StorageNode",
          "name": "",
          "type": "tuple"
        }
      ],
      "stateMutability": "view",
      "type": "function"
    },
    {
      "inputs": [],
      "name": "getStorageStats",
      "outputs": [
        {
          "internalType": "uint256",
          "name": "",
          "type": "uint256"
        },
        {
          "internalType": "uint256",
          "name": "",
          "type": "uint256"
        },
        {
          "internalType": "uint256",
          "name": "",
          "type": "uint256"
        },
        {
          "internalType": "uint256",
          "name": "",
          "type": "uint256"
        }
      ],
      "stateMutability": "view",
      "type": "function"
    },
    {
      "inputs": [
        {
          "internalType": "address",
          "name": "oracle",
          "type": "address"
        }
      ],
      "name": "grantOracleRole",
      "outputs": [],
      "stateMutability": "nonpayable",
      "type": "function"
    },
    {
      "inputs": [
        {
          "internalType": "bytes32",
          "name": "role",
          "type": "bytes32"
        },
        {
          "internalType": "address",
          "name": "account",
          "type": "address"
        }
      ],
      "name": "grantRole",
      "outputs": [],
      "stateMutability": "nonpayable",
      "type": "function"
    },
    {
      "inputs": [
        {
          "internalType": "bytes32",
          "name": "role",
          "type": "bytes32"
        },
        {
          "internalType": "address",
          "name": "account",
          "type": "address"
        }
      ],
      "name": "hasRole",
      "outputs": [
        {
          "internalType": "bool",
          "name": "",
          "type": "bool"
        }
      ],
      "stateMutability": "view",
      "type": "function"
    },
    {
      "inputs": [
        {
          "internalType": "string",
          "name": "root",
          "type": "string"
        }
      ],
      "name": "hasSufficientReplication",
      "outputs": [
        {
          "internalType": "bool",
          "name": "",
          "type": "bool"
        }
      ],
      "stateMutability": "view",
      "type": "function"
    },
    {
      "inputs": [],
      "name": "minReplicationFactor",
      "outputs": [
        {
          "internalType": "uint256",
          "name": "",
          "type": "uint256"
        }
      ],
      "stateMutability": "view",
      "type": "function"
    },
    {
      "inputs": [
        {
          "internalType": "string",
          "name": "",
          "type": "string"
        },
        {
          "internalType": "uint256",
          "name": "",
          "type": "uint256"
        }
      ],
      "name": "nodeDataMap",
      "outputs": [
        {
          "internalType": "string",
          "name": "",
          "type": "string"
        }
      ],
      "stateMutability": "view",
      "type": "function"
    },
    {
      "inputs": [
        {
          "internalType": "string",
          "name": "root",
          "type": "string"
        },
        {
          "internalType": "string[]",
          "name": "nodeAddresses",
          "type": "string[]"
        },
        {
          "internalType": "uint256",
          "name": "size",
          "type": "uint256"
        },
        {
          "internalType": "bytes32",
          "name": "integrityHash",
          "type": "bytes32"
        }
      ],
      "name": "registerDataStorage",
      "outputs": [],
      "stateMutability": "nonpayable",
      "type": "function"
    },
    {
      "inputs": [
        {
          "internalType": "string",
          "name": "nodeAddress",
          "type": "string"
        },
        {
          "internalType": "uint256",
          "name": "totalStorage",
          "type": "uint256"
        }
      ],
      "name": "registerNode",
      "outputs": [],
      "stateMutability": "nonpayable",
      "type": "function"
    },
    {
      "inputs": [
        {
          "internalType": "string",
          "name": "root",
          "type": "string"
        }
      ],
      "name": "removeDataStorage",
      "outputs": [],
      "stateMutability": "nonpayable",
      "type": "function"
    },
    {
      "inputs": [
        {
          "internalType": "bytes32",
          "name": "role",
          "type": "bytes32"
        },
        {
          "internalType": "address",
          "name": "callerConfirmation",
          "type": "address"
        }
      ],
      "name": "renounceRole",
      "outputs": [],
      "stateMutability": "nonpayable",
      "type": "function"
    },
    {
      "inputs": [
        {
          "internalType": "string",
          "name": "",
          "type": "string"
        }
      ],
      "name": "replicationRequests",
      "outputs": [
        {
          "internalType": "string",
          "name": "root",
          "type": "string"
        },
        {
          "internalType": "uint256",
          "name": "targetReplicas",
          "type": "uint256"
        },
        {
          "internalType": "uint256",
          "name": "currentReplicas",
          "type": "uint256"
        },
        {
          "internalType": "uint256",
          "name": "requestTime",
          "type": "uint256"
        },
        {
          "internalType": "bool",
          "name": "fulfilled",
          "type": "bool"
        }
      ],
      "stateMutability": "view",
      "type": "function"
    },
    {
      "inputs": [
        {
          "internalType": "string",
          "name": "root",
          "type": "string"
        },
        {
          "internalType": "uint256",
          "name": "targetReplicas",
          "type": "uint256"
        }
      ],
      "name": "requestReplication",
      "outputs": [],
      "stateMutability": "nonpayable",
      "type": "function"
    },
    {
      "inputs": [
        {
          "internalType": "address",
          "name": "oracle",
          "type": "address"
        }
      ],
      "name": "revokeOracleRole",
      "outputs": [],
      "stateMutability": "nonpayable",
      "type": "function"
    },
    {
      "inputs": [
        {
          "internalType": "bytes32",
          "name": "role",
          "type": "bytes32"
        },
        {
          "internalType": "address",
          "name": "account",
          "type": "address"
        }
      ],
      "name": "revokeRole",
      "outputs": [],
      "stateMutability": "nonpayable",
      "type": "function"
    },
    {
      "inputs": [
        {
          "internalType": "uint256",
          "name": "newMinReplication",
          "type": "uint256"
        }
      ],
      "name": "setMinReplicationFactor",
      "outputs": [],
      "stateMutability": "nonpayable",
      "type": "function"
    },
    {
      "inputs": [
        {
          "internalType": "string",
          "name": "",
          "type": "string"
        }
      ],
      "name": "storageEntries",
      "outputs": [
        {
          "internalType": "string",
          "name": "root",
          "type": "string"
        },
        {
          "internalType": "uint256",
          "name": "size",
          "type": "uint256"
        },
        {
          "internalType": "uint256",
          "name": "replicationFactor",
          "type": "uint256"
        },
        {
          "internalType": "uint256",
          "name": "timestamp",
          "type": "uint256"
        },
        {
          "internalType": "bool",
          "name": "isActive",
          "type": "bool"
        },
        {
          "internalType": "bytes32",
          "name": "integrityHash",
          "type": "bytes32"
        }
      ],
      "stateMutability": "view",
      "type": "function"
    },
    {
      "inputs": [
        {
          "internalType": "string",
          "name": "",
          "type": "string"
        }
      ],
      "name": "storageNodes",
      "outputs": [
        {
          "internalType": "string",
          "name": "nodeAddress",
          "type": "string"
        },
        {
          "internalType": "uint256",
          "name": "totalStorage",
          "type": "uint256"
        },
        {
          "internalType": "uint256",
          "name": "usedStorage",
          "type": "uint256"
        },
        {
          "internalType": "uint256",
          "name": "reliability",
          "type": "uint256"
        },
        {
          "internalType": "uint256",
          "name": "lastSeen",
          "type": "uint256"
        },
        {
          "internalType": "bool",
          "name": "isActive",
          "type": "bool"
        }
      ],
      "stateMutability": "view",
      "type": "function"
    },
    {
      "inputs": [
        {
          "internalType": "bytes4",
          "name": "interfaceId",
          "type": "bytes4"
        }
      ],
      "name": "supportsInterface",
      "outputs": [
        {
          "internalType": "bool",
          "name": "",
          "type": "bool"
        }
      ],
      "stateMutability": "view",
      "type": "function"
    },
    {
      "inputs": [],
      "name": "totalActiveNodes",
      "outputs": [
        {
          "internalType": "uint256",
          "name": "",
          "type": "uint256"
        }
      ],
      "stateMutability": "view",
      "type": "function"
    },
    {
      "inputs": [],
      "name": "totalStoredData",
      "outputs": [
        {
          "internalType": "uint256",
          "name": "",
          "type": "uint256"
        }
      ],
      "stateMutability": "view",
      "type": "function"
    },
    {
      "inputs": [
        {
          "internalType": "string",
          "name": "nodeAddress",
          "type": "string"
        },
        {
          "internalType": "uint256",
          "name": "usedStorage",
          "type": "uint256"
        },
        {
          "internalType": "uint256",
          "name": "reliability",
          "type": "uint256"
        }
      ],
      "name": "updateNodeStatus",
      "outputs": [],
      "stateMutability": "nonpayable",
      "type": "function"
    },
    {
      "inputs": [
        {
          "internalType": "string",
          "name": "root",
          "type": "string"
        },
        {
          "internalType": "string",
          "name": "nodeAddress",
          "type": "string"
        },
        {
          "internalType": "bytes32",
          "name": "actualHash",
          "type": "bytes32"
        }
      ],
      "name": "verifyIntegrity",
      "outputs": [],
      "stateMutability": "nonpayable",
      "type": "function"
    }
  ],
  "bytecode": "0x60806040526003600a5534801561001557600080fd5b5060018055610025600033610081565b506100507fa49807205ce4d355092ef5a8a18f56e8913cf4a201fbe287825b095693c2177533610081565b5061007b7f68e79a7bf1e0bc45d0a330c573bc367f9cf464fd326078812f301165fbda4ef133610081565b5061012d565b6000828152602081815260408083206001600160a01b038516845290915281205460ff16610123576000838152602081815260408083206001600160a01b03861684529091529020805460ff191660011790556100db3390565b6001600160a01b0316826001600160a01b0316847f2f8788117e7eff1d82e926ec794901d17c78024a50270940304540a733656f0d60405160405180910390a4506001610127565b5060005b92915050565b612f398061013c6000396000f3fe608060405234801561001057600080fd5b50600436106102115760003560e01c80636b51e91911610125578063c7e66d00116100ad578063dbdb2f901161007c578063dbdb2f90146104d7578063dcccc765146104ea578063df9c49a3146104f2578063f3ef747f14610505578063fd1b316a1461051857600080fd5b8063c7e66d0014610479578063ca47e5e81461048c578063d547741f146104b1578063d71aec02146104c457600080fd5b806391d14854116100f457806391d148541461042f57806396f9d9831461044257806398eb92f814610455578063a217fddf1461045e578063a5cbe4151461046657600080fd5b80636b51e919146103df57806372788a62146103f457806375b238fc14610407578063766695ed1461041c57600080fd5b80632f2ff15d116101a857806349a574771161017757806349a57477146103645780634d0b6a881461036d57806350c3271114610380578063537b633a146103a0578063581eac50146103cc57600080fd5b80632f2ff15d1461030757806336568abe1461031a5780634128009a1461032d578063420c26de1461035157600080fd5b8063189a393c116101e4578063189a393c1461028f57806319b0eb36146102af5780631b910341146102c4578063248a9ca3146102e457600080fd5b806301ffc9a71461021657806307e2cea51461023e5780630d92bc561461026157806315ae7cfd14610286575b600080fd5b61022961022436600461240d565b61052b565b60405190151581526020015b60405180910390f35b610253600080516020612ec483398151915281565b604051908152602001610235565b61027461026f3660046124f3565b610562565b6040516102359695949392919061257f565b610253600a5481565b6102a261029d3660046125bd565b61062e565b60405161023591906125d6565b6102c26102bd3660046125e9565b6106da565b005b6102d76102d23660046124f3565b610854565b604051610235919061265a565b6102536102f23660046125bd565b60009081526020819052604090206001015490565b6102c261031536600461273c565b610a6b565b6102c261032836600461273c565b610a90565b61034061033b3660046124f3565b610ac8565b604051610235959493929190612768565b6102c261035f3660046124f3565b610b8d565b61025360095481565b6102c261037b366004612847565b610d95565b61039361038e3660046124f3565b61109b565b60405161023591906128be565b600854600954600554600a54604080519485526020850193909352918301526060820152608001610235565b6102c26103da3660046125bd565b6111cf565b6103e761126a565b6040516102359190612976565b6102c2610402366004612989565b611343565b610253600080516020612ee483398151915281565b6102c261042a3660046124f3565b6114cc565b61022961043d36600461273c565b611799565b6102a26104503660046125bd565b6117c2565b61025360085481565b610253600081565b6102c26104743660046129d6565b6117d2565b6102c26104873660046129f1565b611822565b61049f61049a3660046124f3565b6118c3565b60405161023596959493929190612a35565b6102c26104bf36600461273c565b61198e565b6102c26104d2366004612a73565b6119b3565b6102296104e53660046124f3565b611b67565b6103e7611b97565b6102c26105003660046129d6565b611c67565b6102c26105133660046129f1565b611cb3565b6102a26105263660046129f1565b611eac565b60006001600160e01b03198216637965db0b60e01b148061055c57506301ffc9a760e01b6001600160e01b03198316145b92915050565b805160208183018101805160028252928201919093012091528054819061058890612ada565b80601f01602080910402602001604051908101604052809291908181526020018280546105b490612ada565b80156106015780601f106105d657610100808354040283529160200191610601565b820191906000526020600020905b8154815290600101906020018083116105e457829003601f168201915b505050506002830154600384015460048501546005860154600690960154949592949193509160ff169086565b6005818154811061063e57600080fd5b90600052602060002001600091509050805461065990612ada565b80601f016020809104026020016040519081016040528092919081815260200182805461068590612ada565b80156106d25780601f106106a7576101008083540402835291602001916106d2565b820191906000526020600020905b8154815290600101906020018083116106b557829003601f168201915b505050505081565b6106f2600080516020612ec483398151915233611799565b6107175760405162461bcd60e51b815260040161070e90612b14565b60405180910390fd5b60006002846040516107299190612b57565b908152604051908190036020019020600581015490915060ff1661078f5760405162461bcd60e51b815260206004820152601d60248201527f53746f726167654f7261636c653a2044617461206e6f7420666f756e64000000604482015260640161070e565b8060060154821461084e57826040516107a89190612b57565b6040518091039020846040516107be9190612b57565b604080519182900382206006850154835260208301869052917f1613c50515a34c2e9ee8235e18d6b855e233768d2a1a38dade233b801b406d09910160405180910390a360006003846040516108149190612b57565b90815260200160405180910390209050600a8160030154111561084c57600a8160030160008282546108469190612b89565b90915550505b505b50505050565b6108996040518060e001604052806060815260200160608152602001600081526020016000815260200160008152602001600015158152602001600080191681525090565b6002826040516108a99190612b57565b90815260200160405180910390206040518060e00160405290816000820180546108d290612ada565b80601f01602080910402602001604051908101604052809291908181526020018280546108fe90612ada565b801561094b5780601f106109205761010080835404028352916020019161094b565b820191906000526020600020905b81548152906001019060200180831161092e57829003601f168201915b5050505050815260200160018201805480602002602001604051908101604052809291908181526020016000905b82821015610a2557838290600052602060002001805461099890612ada565b80601f01602080910402602001604051908101604052809291908181526020018280546109c490612ada565b8015610a115780601f106109e657610100808354040283529160200191610a11565b820191906000526020600020905b8154815290600101906020018083116109f457829003601f168201915b505050505081526020019060010190610979565b50505090825250600282015460208201526003820154604082015260048201546060820152600582015460ff161515608082015260069091015460a09091015292915050565b600082815260208190526040902060010154610a8681611ef3565b61084e8383611efd565b6001600160a01b0381163314610ab95760405163334bd91960e11b815260040160405180910390fd5b610ac38282611f8f565b505050565b8051602081830181018051600482529282019190930120915280548190610aee90612ada565b80601f0160208091040260200160405190810160405280929190818152602001828054610b1a90612ada565b8015610b675780601f10610b3c57610100808354040283529160200191610b67565b820191906000526020600020905b815481529060010190602001808311610b4a57829003601f168201915b505050506001830154600284015460038501546004909501549394919390925060ff1685565b610ba5600080516020612ec483398151915233611799565b610bc15760405162461bcd60e51b815260040161070e90612b14565b6000600382604051610bd39190612b57565b908152604051908190036020019020600581015490915060ff16610c535760405162461bcd60e51b815260206004820152603160248201527f53746f726167654f7261636c653a204e6f6465206e6f7420666f756e64206f7260448201527020616c726561647920696e61637469766560781b606482015260840161070e565b60058101805460ff1916905560098054906000610c6f83612b9c565b919050555081604051610c829190612b57565b604051908190038120907fb4551525dafbacbcbad53f3a1ad477e2de2428dcd5832ae46d8edacf8c2959d590600090a26000600783604051610cc49190612b57565b9081526020016040518091039020905060005b815481101561084e57610d8d828281548110610cf557610cf5612bb3565b906000526020600020018054610d0a90612ada565b80601f0160208091040260200160405190810160405280929190818152602001828054610d3690612ada565b8015610d835780601f10610d5857610100808354040283529160200191610d83565b820191906000526020600020905b815481529060010190602001808311610d6657829003601f168201915b5050505050611ffa565b600101610cd7565b610dad600080516020612ec483398151915233611799565b610dc95760405162461bcd60e51b815260040161070e90612b14565b610dd1612048565b6000845111610e225760405162461bcd60e51b815260206004820181905260248201527f53746f726167654f7261636c653a20496e76616c696420726f6f742068617368604482015260640161070e565b6000835111610e845760405162461bcd60e51b815260206004820152602860248201527f53746f726167654f7261636c653a204e6f2073746f72616765206e6f646573206044820152671c1c9bdd9a59195960c21b606482015260840161070e565b60008211610ed45760405162461bcd60e51b815260206004820152601b60248201527f53746f726167654f7261636c653a20496e76616c69642073697a650000000000604482015260640161070e565b6000600285604051610ee69190612b57565b908152604051908190036020019020600581015490915060ff16610f5e57600580546001810182556000919091527f036b6384b5eca791c62761152d0c79bb0604c104a5fb6f4eb0703f3154bb3db001610f408682612c10565b508260086000828254610f539190612cd1565b90915550610f7f9050565b828160020154600854610f719190612b89565b610f7b9190612cd1565b6008555b80610f8a8682612c10565b508351610fa0906001830190602087019061234b565b50600281018390558351600382015542600482015560058101805460ff191660011790556006810182905560005b845181101561102757610ffa858281518110610fec57610fec612bb3565b602002602001015187612072565b61101f85828151811061100f5761100f612bb3565b60200260200101518560016120ad565b600101610fce565b50846040516110369190612b57565b60405180910390207f2e26e697e6e4820176953b372a8b1bd11a29d1e2b484f95ff59d316b3a1c1c098585875160405161107293929190612ce4565b60405180910390a2600a54845110156110915761109185600a5461211e565b5061084e60018055565b6110d66040518060c0016040528060608152602001600081526020016000815260200160008152602001600081526020016000151581525090565b6003826040516110e69190612b57565b90815260200160405180910390206040518060c001604052908160008201805461110f90612ada565b80601f016020809104026020016040519081016040528092919081815260200182805461113b90612ada565b80156111885780601f1061115d57610100808354040283529160200191611188565b820191906000526020600020905b81548152906001019060200180831161116b57829003601f168201915b50505091835250506001820154602082015260028201546040820152600382015460608201526004820154608082015260059091015460ff16151560a09091015292915050565b6111e7600080516020612ee483398151915233611799565b6112035760405162461bcd60e51b815260040161070e90612d09565b600081116112655760405162461bcd60e51b815260206004820152602960248201527f53746f726167654f7261636c653a20496e76616c6964207265706c696361746960448201526837b7103330b1ba37b960b91b606482015260840161070e565b600a55565b60606006805480602002602001604051908101604052809291908181526020016000905b8282101561133a5783829060005260206000200180546112ad90612ada565b80601f01602080910402602001604051908101604052809291908181526020018280546112d990612ada565b80156113265780601f106112fb57610100808354040283529160200191611326565b820191906000526020600020905b81548152906001019060200180831161130957829003601f168201915b50505050508152602001906001019061128e565b50505050905090565b61135b600080516020612ec483398151915233611799565b6113775760405162461bcd60e51b815260040161070e90612b14565b60006003846040516113899190612b57565b908152604051908190036020019020600581015490915060ff166114015760405162461bcd60e51b815260206004820152602960248201527f53746f726167654f7261636c653a204e6f6465206e6f7420666f756e64206f7260448201526820696e61637469766560b81b606482015260840161070e565b60648211156114635760405162461bcd60e51b815260206004820152602860248201527f53746f726167654f7261636c653a20496e76616c69642072656c696162696c6960448201526774792073636f726560c01b606482015260840161070e565b6002810183905560038101829055426004820155604051611485908590612b57565b6040805191829003822085835260208301859052917f0d5d823685676e88e287c4dcb16e87cbf25d719d8fff88c54d82b918a282399f91015b60405180910390a250505050565b6114e4600080516020612ec483398151915233611799565b6115005760405162461bcd60e51b815260040161070e90612b14565b611508612048565b600060028260405161151a9190612b57565b908152604051908190036020019020600581015490915060ff166115995760405162461bcd60e51b815260206004820152603060248201527f53746f726167654f7261636c653a2044617461206e6f7420666f756e64206f7260448201526f08185b1c9958591e481c995b5bdd995960821b606482015260840161070e565b60005b60018201548110156117185761165f8260010182815481106115c0576115c0612bb3565b9060005260206000200180546115d590612ada565b80601f016020809104026020016040519081016040528092919081815260200182805461160190612ada565b801561164e5780601f106116235761010080835404028352916020019161164e565b820191906000526020600020905b81548152906001019060200180831161163157829003601f168201915b5050505050836002015460006120ad565b61171082600101828154811061167757611677612bb3565b90600052602060002001805461168c90612ada565b80601f01602080910402602001604051908101604052809291908181526020018280546116b890612ada565b80156117055780601f106116da57610100808354040283529160200191611705565b820191906000526020600020905b8154815290600101906020018083116116e857829003601f168201915b505050505084612218565b60010161159c565b5080600201546008600082825461172f9190612b89565b909155505060058101805460ff1916905560405161174e908390612b57565b60405190819003812060028301548252907f4d66688fa673c7f3259a7c8f40ad1f957e197fa8afa380524dd2d061ec7e0edd9060200160405180910390a25061179660018055565b50565b6000918252602082815260408084206001600160a01b0393909316845291905290205460ff1690565b6006818154811061063e57600080fd5b6117ea600080516020612ee483398151915233611799565b6118065760405162461bcd60e51b815260040161070e90612d09565b61181e600080516020612ec483398151915282611f8f565b5050565b61183a600080516020612ec483398151915233611799565b6118565760405162461bcd60e51b815260040161070e90612b14565b600a548110156118b95760405162461bcd60e51b815260206004820152602860248201527f53746f726167654f7261636c653a2042656c6f77206d696e696d756d207265706044820152673634b1b0ba34b7b760c11b606482015260840161070e565b61181e828261211e565b80516020818301810180516003825292820191909301209152805481906118e990612ada565b80601f016020809104026020016040519081016040528092919081815260200182805461191590612ada565b80156119625780601f1061193757610100808354040283529160200191611962565b820191906000526020600020905b81548152906001019060200180831161194557829003601f168201915b505050600184015460028501546003860154600487015460059097015495969295919450925060ff1686565b6000828152602081905260409020600101546119a981611ef3565b61084e8383611f8f565b6119cb600080516020612ec483398151915233611799565b6119e75760405162461bcd60e51b815260040161070e90612b14565b60006002836040516119f99190612b57565b908152604051908190036020019020600581015490915060ff16611a5f5760405162461bcd60e51b815260206004820152601d60248201527f53746f726167654f7261636c653a2044617461206e6f7420666f756e64000000604482015260640161070e565b6000600484604051611a719190612b57565b908152604051908190036020019020600481015490915060ff1615611aed5760405162461bcd60e51b815260206004820152602c60248201527f53746f726167654f7261636c653a205265706c69636174696f6e20616c72656160448201526b191e4818dbdb5c1b195d195960a21b606482015260840161070e565b8251611b02906001840190602086019061234b565b5082516003830155426004808401919091558101805460ff19166001179055604051611b2f908590612b57565b60405190819003812084518252907fb2258952c6aa3f320afbb73923ef1335585781582e8d35d9082cc0afc1de9e5c906020016114be565b6000600a54600283604051611b7c9190612b57565b90815260200160405180910390206003015410159050919050565b60606005805480602002602001604051908101604052809291908181526020016000905b8282101561133a578382906000526020600020018054611bda90612ada565b80601f0160208091040260200160405190810160405280929190818152602001828054611c0690612ada565b8015611c535780601f10611c2857610100808354040283529160200191611c53565b820191906000526020600020905b815481529060010190602001808311611c3657829003601f168201915b505050505081526020019060010190611bbb565b611c7f600080516020612ee483398151915233611799565b611c9b5760405162461bcd60e51b815260040161070e90612d09565b61181e600080516020612ec483398151915282611efd565b611ccb600080516020612ec483398151915233611799565b611ce75760405162461bcd60e51b815260040161070e90612b14565b6000825111611d445760405162461bcd60e51b815260206004820152602360248201527f53746f726167654f7261636c653a20496e76616c6964206e6f6465206164647260448201526265737360e81b606482015260840161070e565b60008111611da45760405162461bcd60e51b815260206004820152602760248201527f53746f726167654f7261636c653a20496e76616c69642073746f7261676520636044820152666170616369747960c81b606482015260840161070e565b6000600383604051611db69190612b57565b908152604051908190036020019020600581015490915060ff16611e2757600680546001810182556000919091527ff652222313e28459528d920b65115c16c04f3efc82aaedc97be59f3f377c0d3f01611e108482612c10565b5060098054906000611e2183612d4b565b91905055505b80611e328482612c10565b506001808201839055600060028301556064600383015542600483015560058201805460ff19169091179055604051611e6c908490612b57565b604051908190038120838252907f6d5584b237049a8728238122791e2f39f42d3138254ccf6dd688cc95d48060b9906020015b60405180910390a2505050565b81516020818401810180516007825292820191850191909120919052805482908110611ed757600080fd5b9060005260206000200160009150915050805461065990612ada565b6117968133612312565b6000611f098383611799565b611f87576000838152602081815260408083206001600160a01b03861684529091529020805460ff19166001179055611f3f3390565b6001600160a01b0316826001600160a01b0316847f2f8788117e7eff1d82e926ec794901d17c78024a50270940304540a733656f0d60405160405180910390a450600161055c565b50600061055c565b6000611f9b8383611799565b15611f87576000838152602081815260408083206001600160a01b0386168085529252808320805460ff1916905551339286917ff6391f5c32d9c69d2a47ea670b442974b53935d1edc7fd64eb21e047a839171b9190a450600161055c565b600060028260405161200c9190612b57565b908152604051908190036020019020600581015490915060ff1680156120375750600a548160030154105b1561181e5761181e82600a5461211e565b60026001540361206b57604051633ee5aeb560e01b815260040160405180910390fd5b6002600155565b6007826040516120829190612b57565b908152604051602091819003820190208054600181018255600091825291902001610ac38282612c10565b60006003846040516120bf9190612b57565b9081526020016040518091039020905081156120f457828160020160008282546120e99190612cd1565b9091555061084e9050565b8281600201541061084e57828160020160008282546121139190612b89565b909155505050505050565b60006002836040516121309190612b57565b908152602001604051809103902090506040518060a00160405280848152602001838152602001826003015481526020014281526020016000151581525060048460405161217e9190612b57565b9081526040519081900360200190208151819061219b9082612c10565b50602082015160018201556040808301516002830155606083015160038301556080909201516004909101805460ff1916911515919091179055516121e1908490612b57565b604051908190038120838252907fb033d671b74fa3f35bfb1002b622b52074563aaf7009c7d78173cd72e656738c90602001611e9f565b600060078360405161222a9190612b57565b9081526020016040518091039020905060005b815481101561084e57828051906020012082828154811061226057612260612bb3565b906000526020600020016040516122779190612d64565b60405180910390200361230a578154829061229490600190612b89565b815481106122a4576122a4612bb3565b906000526020600020018282815481106122c0576122c0612bb3565b9060005260206000200190816122d69190612dd9565b50818054806122e7576122e7612ead565b60019003818190600052602060002001600061230391906123a1565b905561084e565b60010161223d565b61231c8282611799565b61181e5760405163e2517d3f60e01b81526001600160a01b03821660048201526024810183905260440161070e565b828054828255906000526020600020908101928215612391579160200282015b8281111561239157825182906123819082612c10565b509160200191906001019061236b565b5061239d9291506123db565b5090565b5080546123ad90612ada565b6000825580601f106123bd575050565b601f01602090049060005260206000209081019061179691906123f8565b8082111561239d5760006123ef82826123a1565b506001016123db565b5b8082111561239d57600081556001016123f9565b60006020828403121561241f57600080fd5b81356001600160e01b03198116811461243757600080fd5b9392505050565b634e487b7160e01b600052604160045260246000fd5b604051601f8201601f191681016001600160401b038111828210171561247c5761247c61243e565b604052919050565b600082601f83011261249557600080fd5b81356001600160401b038111156124ae576124ae61243e565b6124c1601f8201601f1916602001612454565b8181528460208386010111156124d657600080fd5b816020850160208301376000918101602001919091529392505050565b60006020828403121561250557600080fd5b81356001600160401b0381111561251b57600080fd5b61252784828501612484565b949350505050565b60005b8381101561254a578181015183820152602001612532565b50506000910152565b6000815180845261256b81602086016020860161252f565b601f01601f19169290920160200192915050565b60c08152600061259260c0830189612553565b602083019790975250604081019490945260608401929092521515608083015260a090910152919050565b6000602082840312156125cf57600080fd5b5035919050565b6020815260006124376020830184612553565b6000806000606084860312156125fe57600080fd5b83356001600160401b0381111561261457600080fd5b61262086828701612484565b93505060208401356001600160401b0381111561263c57600080fd5b61264886828701612484565b93969395505050506040919091013590565b602081526000825160e06020840152612677610100840182612553565b602085810151858303601f19016040870152805180845292935081019181840191600582901b85010160005b828110156126d457601f198683030184526126bf828651612553565b602095860195949094019391506001016126a3565b506040880151606088015260608801516080880152608088015160a088015260a0880151945061270860c088018615159052565b60c088015160e0880152809550505050505092915050565b80356001600160a01b038116811461273757600080fd5b919050565b6000806040838503121561274f57600080fd5b8235915061275f60208401612720565b90509250929050565b60a08152600061277b60a0830188612553565b905085602083015284604083015283606083015282151560808301529695505050505050565b600082601f8301126127b257600080fd5b81356001600160401b038111156127cb576127cb61243e565b8060051b6127db60208201612454565b918252602081850181019290810190868411156127f757600080fd5b6020860192505b8383101561283d5782356001600160401b0381111561281c57600080fd5b61282b886020838a0101612484565b835250602092830192909101906127fe565b9695505050505050565b6000806000806080858703121561285d57600080fd5b84356001600160401b0381111561287357600080fd5b61287f87828801612484565b94505060208501356001600160401b0381111561289b57600080fd5b6128a7878288016127a1565b949794965050505060408301359260600135919050565b602081526000825160c060208401526128da60e0840182612553565b9050602084015160408401526040840151606084015260608401516080840152608084015160a084015260a0840151151560c08401528091505092915050565b600082825180855260208501945060208160051b8301016020850160005b8381101561296a57601f19858403018852612954838351612553565b6020988901989093509190910190600101612938565b50909695505050505050565b602081526000612437602083018461291a565b60008060006060848603121561299e57600080fd5b83356001600160401b038111156129b457600080fd5b6129c086828701612484565b9660208601359650604090950135949350505050565b6000602082840312156129e857600080fd5b61243782612720565b60008060408385031215612a0457600080fd5b82356001600160401b03811115612a1a57600080fd5b612a2685828601612484565b95602094909401359450505050565b60c081526000612a4860c0830189612553565b602083019790975250604081019490945260608401929092526080830152151560a090910152919050565b60008060408385031215612a8657600080fd5b82356001600160401b03811115612a9c57600080fd5b612aa885828601612484565b92505060208301356001600160401b03811115612ac457600080fd5b612ad0858286016127a1565b9150509250929050565b600181811c90821680612aee57607f821691505b602082108103612b0e57634e487b7160e01b600052602260045260246000fd5b50919050565b60208082526023908201527f53746f726167654f7261636c653a204f7261636c6520726f6c652072657175696040820152621c995960ea1b606082015260800190565b60008251612b6981846020870161252f565b9190910192915050565b634e487b7160e01b600052601160045260246000fd5b8181038181111561055c5761055c612b73565b600081612bab57612bab612b73565b506000190190565b634e487b7160e01b600052603260045260246000fd5b601f821115610ac357806000526020600020601f840160051c81016020851015612bf05750805b601f840160051c820191505b8181101561084c5760008155600101612bfc565b81516001600160401b03811115612c2957612c2961243e565b612c3d81612c378454612ada565b84612bc9565b6020601f821160018114612c745760008315612c595750848201515b600184901b600019600386901b1c198216175b85555061084c565b600084815260208120601f198516915b82811015612ca45787850151825560209485019460019092019101612c84565b5084821015612cc25786840151600019600387901b60f8161c191681555b50505050600190811b01905550565b8082018082111561055c5761055c612b73565b606081526000612cf7606083018661291a565b60208301949094525060400152919050565b60208082526022908201527f53746f726167654f7261636c653a2041646d696e20726f6c6520726571756972604082015261195960f21b606082015260800190565b600060018201612d5d57612d5d612b73565b5060010190565b6000808354612d7281612ada565b600182168015612d895760018114612d9e57612dce565b60ff1983168652811515820286019350612dce565b86600052602060002060005b83811015612dc657815488820152600190910190602001612daa565b505081860193505b509195945050505050565b818103612de4575050565b612dee8254612ada565b6001600160401b03811115612e0557612e0561243e565b612e1381612c378454612ada565b6000601f821160018114612e455760008315612c59575081850154600184901b600019600386901b1c19821617612c6c565b600085815260209020601f19841690600086815260209020845b83811015612e7f5782860154825560019586019590910190602001612e5f565b5085831015612e9d5781850154600019600388901b60f8161c191681555b5050505050600190811b01905550565b634e487b7160e01b600052603160045260246000fdfe68e79a7bf1e0bc45d0a330c573bc367f9cf464fd326078812f301165fbda4ef1a49807205ce4d355092ef5a8a18f56e8913cf4a201fbe287825b095693c21775a26469706673582212203f35931523616f4a514adbab23188ac85751bbbf6654a70c682462ab4ecfd83c64736f6c634300081b0033",
  "linkReferences": {},
  "deployedLinkReferences": {}
}